{
	"data": {
		"bytecode": {
			"linkReferences": {},
			"object": "610160604052348015610010575f5ffd5b50336040518060400160405280600b81526020017f6953746f7279546f6b656e000000000000000000000000000000000000000000815250806040518060400160405280600181526020017f31000000000000000000000000000000000000000000000000000000000000008152506040518060400160405280600b81526020017f6953746f7279546f6b656e0000000000000000000000000000000000000000008152506040518060400160405280600781526020017f244953544f52590000000000000000000000000000000000000000000000000081525081600390816100fa91906109d9565b50806004908161010a91906109d9565b50505061012160058361029560201b90919060201c565b610120818152505061013d60068261029560201b90919060201c565b6101408181525050818051906020012060e08181525050808051906020012061010081815250504660a0818152505061017a6102e260201b60201c565b608081815250503073ffffffffffffffffffffffffffffffffffffffff1660c08173ffffffffffffffffffffffffffffffffffffffff16815250505050505f73ffffffffffffffffffffffffffffffffffffffff168173ffffffffffffffffffffffffffffffffffffffff1603610228575f6040517f1e4fbdf700000000000000000000000000000000000000000000000000000000815260040161021f9190610ae7565b60405180910390fd5b6102378161033c60201b60201c565b5060016009819055505f600a5f6101000a81548160ff0219169083151502179055506102903361026b6103ff60201b60201c565b600a6102779190610c68565b620f42406102859190610cb2565b61040760201b60201c565b610f6d565b5f6020835110156102b6576102af8361048c60201b60201c565b90506102dc565b826102c6836104f160201b60201c565b5f0190816102d491906109d9565b5060ff5f1b90505b92915050565b5f7f8b73c3c69bb8fe3d512ecc4cf759cc79239f7b179b0ffacaa9a75d522b39400f60e051610100514630604051602001610321959493929190610d1a565b60405160208183030381529060405280519060200120905090565b5f60085f9054906101000a900473ffffffffffffffffffffffffffffffffffffffff1690508160085f6101000a81548173ffffffffffffffffffffffffffffffffffffffff021916908373ffffffffffffffffffffffffffffffffffffffff1602179055508173ffffffffffffffffffffffffffffffffffffffff168173ffffffffffffffffffffffffffffffffffffffff167f8be0079c531659141344cd1fd0a4f28419497f9722a3daafe3b4186f6b6457e060405160405180910390a35050565b5f6012905090565b5f73ffffffffffffffffffffffffffffffffffffffff168273ffffffffffffffffffffffffffffffffffffffff1603610477575f6040517fec442f0500000000000000000000000000000000000000000000000000000000815260040161046e9190610ae7565b60405180910390fd5b6104885f83836104fa60201b60201c565b5050565b5f5f829050601f815111156104d857826040517f305a27a90000000000000000000000000000000000000000000000000000000081526004016104cf9190610dd1565b60405180910390fd5b8051816104e490610e1e565b5f1c175f1b915050919050565b5f819050919050565b61050861051e60201b60201c565b61051983838361056e60201b60201c565b505050565b61052c61078760201b60201c565b1561056c576040517f08c379a000000000000000000000000000000000000000000000000000000000815260040161056390610ece565b60405180910390fd5b565b5f73ffffffffffffffffffffffffffffffffffffffff168373ffffffffffffffffffffffffffffffffffffffff16036105be578060025f8282546105b29190610eec565b9250508190555061068c565b5f5f5f8573ffffffffffffffffffffffffffffffffffffffff1673ffffffffffffffffffffffffffffffffffffffff1681526020019081526020015f2054905081811015610647578381836040517fe450d38c00000000000000000000000000000000000000000000000000000000815260040161063e93929190610f1f565b60405180910390fd5b8181035f5f8673ffffffffffffffffffffffffffffffffffffffff1673ffffffffffffffffffffffffffffffffffffffff1681526020019081526020015f2081905550505b5f73ffffffffffffffffffffffffffffffffffffffff168273ffffffffffffffffffffffffffffffffffffffff16036106d3578060025f828254039250508190555061071d565b805f5f8473ffffffffffffffffffffffffffffffffffffffff1673ffffffffffffffffffffffffffffffffffffffff1681526020019081526020015f205f82825401925050819055505b8173ffffffffffffffffffffffffffffffffffffffff168373ffffffffffffffffffffffffffffffffffffffff167fddf252ad1be2c89b69c2b068fc378daa952ba7f163c4a11628f55a4df523b3ef8360405161077a9190610f54565b60405180910390a3505050565b5f600a5f9054906101000a900460ff16905090565b5f81519050919050565b7f4e487b71000000000000000000000000000000000000000000000000000000005f52604160045260245ffd5b7f4e487b71000000000000000000000000000000000000000000000000000000005f52602260045260245ffd5b5f600282049050600182168061081757607f821691505b60208210810361082a576108296107d3565b5b50919050565b5f819050815f5260205f209050919050565b5f6020601f8301049050919050565b5f82821b905092915050565b5f6008830261088c7fffffffffffffffffffffffffffffffffffffffffffffffffffffffffffffffff82610851565b6108968683610851565b95508019841693508086168417925050509392505050565b5f819050919050565b5f819050919050565b5f6108da6108d56108d0846108ae565b6108b7565b6108ae565b9050919050565b5f819050919050565b6108f3836108c0565b6109076108ff826108e1565b84845461085d565b825550505050565b5f5f905090565b61091e61090f565b6109298184846108ea565b505050565b5b8181101561094c576109415f82610916565b60018101905061092f565b5050565b601f8211156109915761096281610830565b61096b84610842565b8101602085101561097a578190505b61098e61098685610842565b83018261092e565b50505b505050565b5f82821c905092915050565b5f6109b15f1984600802610996565b1980831691505092915050565b5f6109c983836109a2565b9150826002028217905092915050565b6109e28261079c565b67ffffffffffffffff8111156109fb576109fa6107a6565b5b610a058254610800565b610a10828285610950565b5f60209050601f831160018114610a41575f8415610a2f578287015190505b610a3985826109be565b865550610aa0565b601f198416610a4f86610830565b5f5b82811015610a7657848901518255600182019150602085019450602081019050610a51565b86831015610a935784890151610a8f601f8916826109a2565b8355505b6001600288020188555050505b505050505050565b5f73ffffffffffffffffffffffffffffffffffffffff82169050919050565b5f610ad182610aa8565b9050919050565b610ae181610ac7565b82525050565b5f602082019050610afa5f830184610ad8565b92915050565b7f4e487b71000000000000000000000000000000000000000000000000000000005f52601160045260245ffd5b5f8160011c9050919050565b5f5f8291508390505b6001851115610b8257808604811115610b5e57610b5d610b00565b5b6001851615610b6d5780820291505b8081029050610b7b85610b2d565b9450610b42565b94509492505050565b5f82610b9a5760019050610c55565b81610ba7575f9050610c55565b8160018114610bbd5760028114610bc757610bf6565b6001915050610c55565b60ff841115610bd957610bd8610b00565b5b8360020a915084821115610bf057610bef610b00565b5b50610c55565b5060208310610133831016604e8410600b8410161715610c2b5782820a905083811115610c2657610c25610b00565b5b610c55565b610c388484846001610b39565b92509050818404811115610c4f57610c4e610b00565b5b81810290505b9392505050565b5f60ff82169050919050565b5f610c72826108ae565b9150610c7d83610c5c565b9250610caa7fffffffffffffffffffffffffffffffffffffffffffffffffffffffffffffffff8484610b8b565b905092915050565b5f610cbc826108ae565b9150610cc7836108ae565b9250828202610cd5816108ae565b91508282048414831517610cec57610ceb610b00565b5b5092915050565b5f819050919050565b610d0581610cf3565b82525050565b610d14816108ae565b82525050565b5f60a082019050610d2d5f830188610cfc565b610d3a6020830187610cfc565b610d476040830186610cfc565b610d546060830185610d0b565b610d616080830184610ad8565b9695505050505050565b5f82825260208201905092915050565b8281835e5f83830152505050565b5f601f19601f8301169050919050565b5f610da38261079c565b610dad8185610d6b565b9350610dbd818560208601610d7b565b610dc681610d89565b840191505092915050565b5f6020820190508181035f830152610de98184610d99565b905092915050565b5f81519050919050565b5f819050602082019050919050565b5f610e158251610cf3565b80915050919050565b5f610e2882610df1565b82610e3284610dfb565b9050610e3d81610e0a565b92506020821015610e7d57610e787fffffffffffffffffffffffffffffffffffffffffffffffffffffffffffffffff83602003600802610851565b831692505b5050919050565b7f5061757361626c653a20706175736564000000000000000000000000000000005f82015250565b5f610eb8601083610d6b565b9150610ec382610e84565b602082019050919050565b5f6020820190508181035f830152610ee581610eac565b9050919050565b5f610ef6826108ae565b9150610f01836108ae565b9250828201905080821115610f1957610f18610b00565b5b92915050565b5f606082019050610f325f830186610ad8565b610f3f6020830185610d0b565b610f4c6040830184610d0b565b949350505050565b5f602082019050610f675f830184610d0b565b92915050565b60805160a05160c05160e05161010051610120516101405161260f610fbe5f395f61116601525f61112b01525f61145e01525f61143d01525f610e2401525f610e7a01525f610ea3015261260f5ff3fe608060405234801561000f575f5ffd5b506004361061014b575f3560e01c806370a08231116100c15780638da5cb5b1161007a5780638da5cb5b1461035757806395d89b4114610375578063a9059cbb14610393578063d505accf146103c3578063dd62ed3e146103df578063f2fde38b1461040f5761014b565b806370a08231146102a3578063715018a6146102d357806379cc6790146102dd5780637ecebe00146102f95780638456cb591461032957806384b0196e146103335761014b565b8063313ce56711610113578063313ce567146102075780633644e515146102255780633f4ba83a1461024357806340c10f191461024d57806342966c68146102695780635c975abb146102855761014b565b806306fdde031461014f578063095ea7b31461016d57806318160ddd1461019d57806323b872dd146101bb5780632a7ea9d2146101eb575b5f5ffd5b61015761042b565b6040516101649190611b76565b60405180910390f35b61018760048036038101906101829190611c34565b6104bb565b6040516101949190611c8c565b60405180910390f35b6101a56104dd565b6040516101b29190611cb4565b60405180910390f35b6101d560048036038101906101d09190611ccd565b6104e6565b6040516101e29190611c8c565b60405180910390f35b61020560048036038101906102009190611e49565b610514565b005b61020f6105aa565b60405161021c9190611ed0565b60405180910390f35b61022d6105b2565b60405161023a9190611f01565b60405180910390f35b61024b6105c0565b005b61026760048036038101906102629190611c34565b6105d2565b005b610283600480360381019061027e9190611f1a565b61064e565b005b61028d610662565b60405161029a9190611c8c565b60405180910390f35b6102bd60048036038101906102b89190611f45565b610677565b6040516102ca9190611cb4565b60405180910390f35b6102db6106bc565b005b6102f760048036038101906102f29190611c34565b6106cf565b005b610313600480360381019061030e9190611f45565b6106ef565b6040516103209190611cb4565b60405180910390f35b610331610700565b005b61033b610712565b60405161034e9796959493929190612070565b60405180910390f35b61035f6107b7565b60405161036c91906120f2565b60405180910390f35b61037d6107df565b60405161038a9190611b76565b60405180910390f35b6103ad60048036038101906103a89190611c34565b61086f565b6040516103ba9190611c8c565b60405180910390f35b6103dd60048036038101906103d8919061215f565b610891565b005b6103f960048036038101906103f491906121fc565b6109d6565b6040516104069190611cb4565b60405180910390f35b61042960048036038101906104249190611f45565b610a58565b005b60606003805461043a90612267565b80601f016020809104026020016040519081016040528092919081815260200182805461046690612267565b80156104b15780601f10610488576101008083540402835291602001916104b1565b820191905f5260205f20905b81548152906001019060200180831161049457829003601f168201915b5050505050905090565b5f5f6104c5610adc565b90506104d2818585610ae3565b600191505092915050565b5f600254905090565b5f5f6104f0610adc565b90506104fd858285610af5565b610508858585610b88565b60019150509392505050565b61051c610c78565b610524610cff565b61052c610d4e565b6105368383610d98565b8273ffffffffffffffffffffffffffffffffffffffff163373ffffffffffffffffffffffffffffffffffffffff167f0b4774608e506ac05432202a7a40787b78ec834c983d1a53be5d34e96f07aece8484604051610595929190612297565b60405180910390a36105a5610e17565b505050565b5f6012905090565b5f6105bb610e21565b905090565b6105c8610c78565b6105d0610ed7565b565b6105da610c78565b6105e2610cff565b6105ea610d4e565b6105f48282610d98565b8173ffffffffffffffffffffffffffffffffffffffff167f3f2c9d57c068687834f0de942a9babb9e5acab57d516d3480a3c16ee165a42738260405161063a9190611cb4565b60405180910390a261064a610e17565b5050565b61065f610659610adc565b82610f38565b50565b5f600a5f9054906101000a900460ff16905090565b5f5f5f8373ffffffffffffffffffffffffffffffffffffffff1673ffffffffffffffffffffffffffffffffffffffff1681526020019081526020015f20549050919050565b6106c4610c78565b6106cd5f610fb7565b565b6106e1826106db610adc565b83610af5565b6106eb8282610f38565b5050565b5f6106f98261107a565b9050919050565b610708610c78565b6107106110c0565b565b5f6060805f5f5f6060610723611122565b61072b61115d565b46305f5f1b5f67ffffffffffffffff81111561074a57610749611d25565b5b6040519080825280602002602001820160405280156107785781602001602082028036833780820191505090505b507f0f00000000000000000000000000000000000000000000000000000000000000959493929190965096509650965096509650965090919293949596565b5f60085f9054906101000a900473ffffffffffffffffffffffffffffffffffffffff16905090565b6060600480546107ee90612267565b80601f016020809104026020016040519081016040528092919081815260200182805461081a90612267565b80156108655780601f1061083c57610100808354040283529160200191610865565b820191905f5260205f20905b81548152906001019060200180831161084857829003601f168201915b5050505050905090565b5f5f610879610adc565b9050610886818585610b88565b600191505092915050565b834211156108d657836040517f627913020000000000000000000000000000000000000000000000000000000081526004016108cd9190611cb4565b60405180910390fd5b5f7f6e71edae12b1b97f4d1f60370fef10105fa2faae0126114a169c64845d6126c98888886109048c611198565b8960405160200161091a969594939291906122c5565b6040516020818303038152906040528051906020012090505f61093c826111eb565b90505f61094b82878787611204565b90508973ffffffffffffffffffffffffffffffffffffffff168173ffffffffffffffffffffffffffffffffffffffff16146109bf57808a6040517f4b800e460000000000000000000000000000000000000000000000000000000081526004016109b6929190612324565b60405180910390fd5b6109ca8a8a8a610ae3565b50505050505050505050565b5f60015f8473ffffffffffffffffffffffffffffffffffffffff1673ffffffffffffffffffffffffffffffffffffffff1681526020019081526020015f205f8373ffffffffffffffffffffffffffffffffffffffff1673ffffffffffffffffffffffffffffffffffffffff1681526020019081526020015f2054905092915050565b610a60610c78565b5f73ffffffffffffffffffffffffffffffffffffffff168173ffffffffffffffffffffffffffffffffffffffff1603610ad0575f6040517f1e4fbdf7000000000000000000000000000000000000000000000000000000008152600401610ac791906120f2565b60405180910390fd5b610ad981610fb7565b50565b5f33905090565b610af08383836001611232565b505050565b5f610b0084846109d6565b90507fffffffffffffffffffffffffffffffffffffffffffffffffffffffffffffffff811015610b825781811015610b73578281836040517ffb8f41b2000000000000000000000000000000000000000000000000000000008152600401610b6a9392919061234b565b60405180910390fd5b610b8184848484035f611232565b5b50505050565b5f73ffffffffffffffffffffffffffffffffffffffff168373ffffffffffffffffffffffffffffffffffffffff1603610bf8575f6040517f96c6fd1e000000000000000000000000000000000000000000000000000000008152600401610bef91906120f2565b60405180910390fd5b5f73ffffffffffffffffffffffffffffffffffffffff168273ffffffffffffffffffffffffffffffffffffffff1603610c68575f6040517fec442f05000000000000000000000000000000000000000000000000000000008152600401610c5f91906120f2565b60405180910390fd5b610c73838383611401565b505050565b610c80610adc565b73ffffffffffffffffffffffffffffffffffffffff16610c9e6107b7565b73ffffffffffffffffffffffffffffffffffffffff1614610cfd57610cc1610adc565b6040517f118cdaa7000000000000000000000000000000000000000000000000000000008152600401610cf491906120f2565b60405180910390fd5b565b600260095403610d44576040517f08c379a0000000000000000000000000000000000000000000000000000000008152600401610d3b906123ca565b60405180910390fd5b6002600981905550565b610d56610662565b15610d96576040517f08c379a0000000000000000000000000000000000000000000000000000000008152600401610d8d90612432565b60405180910390fd5b565b5f73ffffffffffffffffffffffffffffffffffffffff168273ffffffffffffffffffffffffffffffffffffffff1603610e08575f6040517fec442f05000000000000000000000000000000000000000000000000000000008152600401610dff91906120f2565b60405180910390fd5b610e135f8383611401565b5050565b6001600981905550565b5f7f000000000000000000000000000000000000000000000000000000000000000073ffffffffffffffffffffffffffffffffffffffff163073ffffffffffffffffffffffffffffffffffffffff16148015610e9c57507f000000000000000000000000000000000000000000000000000000000000000046145b15610ec9577f00000000000000000000000000000000000000000000000000000000000000009050610ed4565b610ed1611419565b90505b90565b610edf6114ae565b5f600a5f6101000a81548160ff0219169083151502179055507f5db9ee0a495bf2e6ff9c91a7834c1ba4fdd244a5e8aa4e537bd38aeae4b073aa610f21610adc565b604051610f2e91906120f2565b60405180910390a1565b5f73ffffffffffffffffffffffffffffffffffffffff168273ffffffffffffffffffffffffffffffffffffffff1603610fa8575f6040517f96c6fd1e000000000000000000000000000000000000000000000000000000008152600401610f9f91906120f2565b60405180910390fd5b610fb3825f83611401565b5050565b5f60085f9054906101000a900473ffffffffffffffffffffffffffffffffffffffff1690508160085f6101000a81548173ffffffffffffffffffffffffffffffffffffffff021916908373ffffffffffffffffffffffffffffffffffffffff1602179055508173ffffffffffffffffffffffffffffffffffffffff168173ffffffffffffffffffffffffffffffffffffffff167f8be0079c531659141344cd1fd0a4f28419497f9722a3daafe3b4186f6b6457e060405160405180910390a35050565b5f60075f8373ffffffffffffffffffffffffffffffffffffffff1673ffffffffffffffffffffffffffffffffffffffff1681526020019081526020015f20549050919050565b6110c8610d4e565b6001600a5f6101000a81548160ff0219169083151502179055507f62e78cea01bee320cd4e420270b5ea74000d11b0c9f74754ebdbfc544b05a25861110b610adc565b60405161111891906120f2565b60405180910390a1565b606061115860057f00000000000000000000000000000000000000000000000000000000000000006114f790919063ffffffff16565b905090565b606061119360067f00000000000000000000000000000000000000000000000000000000000000006114f790919063ffffffff16565b905090565b5f60075f8373ffffffffffffffffffffffffffffffffffffffff1673ffffffffffffffffffffffffffffffffffffffff1681526020019081526020015f205f815480929190600101919050559050919050565b5f6111fd6111f7610e21565b836115a4565b9050919050565b5f5f5f5f611214888888886115e4565b92509250925061122482826116cb565b829350505050949350505050565b5f73ffffffffffffffffffffffffffffffffffffffff168473ffffffffffffffffffffffffffffffffffffffff16036112a2575f6040517fe602df0500000000000000000000000000000000000000000000000000000000815260040161129991906120f2565b60405180910390fd5b5f73ffffffffffffffffffffffffffffffffffffffff168373ffffffffffffffffffffffffffffffffffffffff1603611312575f6040517f94280d6200000000000000000000000000000000000000000000000000000000815260040161130991906120f2565b60405180910390fd5b8160015f8673ffffffffffffffffffffffffffffffffffffffff1673ffffffffffffffffffffffffffffffffffffffff1681526020019081526020015f205f8573ffffffffffffffffffffffffffffffffffffffff1673ffffffffffffffffffffffffffffffffffffffff1681526020019081526020015f208190555080156113fb578273ffffffffffffffffffffffffffffffffffffffff168473ffffffffffffffffffffffffffffffffffffffff167f8c5be1e5ebec7d5bd14f71427d1e84f3dd0314c0f7b2291e5b200ac8c7c3b925846040516113f29190611cb4565b60405180910390a35b50505050565b611409610d4e565b61141483838361182d565b505050565b5f7f8b73c3c69bb8fe3d512ecc4cf759cc79239f7b179b0ffacaa9a75d522b39400f7f00000000000000000000000000000000000000000000000000000000000000007f00000000000000000000000000000000000000000000000000000000000000004630604051602001611493959493929190612450565b60405160208183030381529060405280519060200120905090565b6114b6610662565b6114f5576040517f08c379a00000000000000000000000000000000000000000000000000000000081526004016114ec906124eb565b60405180910390fd5b565b606060ff5f1b83146115135761150c83611a46565b905061159e565b81805461151f90612267565b80601f016020809104026020016040519081016040528092919081815260200182805461154b90612267565b80156115965780601f1061156d57610100808354040283529160200191611596565b820191905f5260205f20905b81548152906001019060200180831161157957829003601f168201915b505050505090505b92915050565b5f6040517f190100000000000000000000000000000000000000000000000000000000000081528360028201528260228201526042812091505092915050565b5f5f5f7f7fffffffffffffffffffffffffffffff5d576e7357a4501ddfe92f46681b20a0845f1c1115611620575f6003859250925092506116c1565b5f6001888888886040515f81526020016040526040516116439493929190612509565b6020604051602081039080840390855afa158015611663573d5f5f3e3d5ffd5b5050506020604051035190505f73ffffffffffffffffffffffffffffffffffffffff168173ffffffffffffffffffffffffffffffffffffffff16036116b4575f60015f5f1b935093509350506116c1565b805f5f5f1b935093509350505b9450945094915050565b5f60038111156116de576116dd61254c565b5b8260038111156116f1576116f061254c565b5b0315611829576001600381111561170b5761170a61254c565b5b82600381111561171e5761171d61254c565b5b03611755576040517ff645eedf00000000000000000000000000000000000000000000000000000000815260040160405180910390fd5b600260038111156117695761176861254c565b5b82600381111561177c5761177b61254c565b5b036117c057805f1c6040517ffce698f70000000000000000000000000000000000000000000000000000000081526004016117b79190611cb4565b60405180910390fd5b6003808111156117d3576117d261254c565b5b8260038111156117e6576117e561254c565b5b0361182857806040517fd78bce0c00000000000000000000000000000000000000000000000000000000815260040161181f9190611f01565b60405180910390fd5b5b5050565b5f73ffffffffffffffffffffffffffffffffffffffff168373ffffffffffffffffffffffffffffffffffffffff160361187d578060025f82825461187191906125a6565b9250508190555061194b565b5f5f5f8573ffffffffffffffffffffffffffffffffffffffff1673ffffffffffffffffffffffffffffffffffffffff1681526020019081526020015f2054905081811015611906578381836040517fe450d38c0000000000000000000000000000000000000000000000000000000081526004016118fd9392919061234b565b60405180910390fd5b8181035f5f8673ffffffffffffffffffffffffffffffffffffffff1673ffffffffffffffffffffffffffffffffffffffff1681526020019081526020015f2081905550505b5f73ffffffffffffffffffffffffffffffffffffffff168273ffffffffffffffffffffffffffffffffffffffff1603611992578060025f82825403925050819055506119dc565b805f5f8473ffffffffffffffffffffffffffffffffffffffff1673ffffffffffffffffffffffffffffffffffffffff1681526020019081526020015f205f82825401925050819055505b8173ffffffffffffffffffffffffffffffffffffffff168373ffffffffffffffffffffffffffffffffffffffff167fddf252ad1be2c89b69c2b068fc378daa952ba7f163c4a11628f55a4df523b3ef83604051611a399190611cb4565b60405180910390a3505050565b60605f611a5283611ab8565b90505f602067ffffffffffffffff811115611a7057611a6f611d25565b5b6040519080825280601f01601f191660200182016040528015611aa25781602001600182028036833780820191505090505b5090508181528360208201528092505050919050565b5f5f60ff835f1c169050601f811115611afd576040517fb3512b0c00000000000000000000000000000000000000000000000000000000815260040160405180910390fd5b80915050919050565b5f81519050919050565b5f82825260208201905092915050565b8281835e5f83830152505050565b5f601f19601f8301169050919050565b5f611b4882611b06565b611b528185611b10565b9350611b62818560208601611b20565b611b6b81611b2e565b840191505092915050565b5f6020820190508181035f830152611b8e8184611b3e565b905092915050565b5f604051905090565b5f5ffd5b5f5ffd5b5f73ffffffffffffffffffffffffffffffffffffffff82169050919050565b5f611bd082611ba7565b9050919050565b611be081611bc6565b8114611bea575f5ffd5b50565b5f81359050611bfb81611bd7565b92915050565b5f819050919050565b611c1381611c01565b8114611c1d575f5ffd5b50565b5f81359050611c2e81611c0a565b92915050565b5f5f60408385031215611c4a57611c49611b9f565b5b5f611c5785828601611bed565b9250506020611c6885828601611c20565b9150509250929050565b5f8115159050919050565b611c8681611c72565b82525050565b5f602082019050611c9f5f830184611c7d565b92915050565b611cae81611c01565b82525050565b5f602082019050611cc75f830184611ca5565b92915050565b5f5f5f60608486031215611ce457611ce3611b9f565b5b5f611cf186828701611bed565b9350506020611d0286828701611bed565b9250506040611d1386828701611c20565b9150509250925092565b5f5ffd5b5f5ffd5b7f4e487b71000000000000000000000000000000000000000000000000000000005f52604160045260245ffd5b611d5b82611b2e565b810181811067ffffffffffffffff82111715611d7a57611d79611d25565b5b80604052505050565b5f611d8c611b96565b9050611d988282611d52565b919050565b5f67ffffffffffffffff821115611db757611db6611d25565b5b611dc082611b2e565b9050602081019050919050565b828183375f83830152505050565b5f611ded611de884611d9d565b611d83565b905082815260208101848484011115611e0957611e08611d21565b5b611e14848285611dcd565b509392505050565b5f82601f830112611e3057611e2f611d1d565b5b8135611e40848260208601611ddb565b91505092915050565b5f5f5f60608486031215611e6057611e5f611b9f565b5b5f611e6d86828701611bed565b9350506020611e7e86828701611c20565b925050604084013567ffffffffffffffff811115611e9f57611e9e611ba3565b5b611eab86828701611e1c565b9150509250925092565b5f60ff82169050919050565b611eca81611eb5565b82525050565b5f602082019050611ee35f830184611ec1565b92915050565b5f819050919050565b611efb81611ee9565b82525050565b5f602082019050611f145f830184611ef2565b92915050565b5f60208284031215611f2f57611f2e611b9f565b5b5f611f3c84828501611c20565b91505092915050565b5f60208284031215611f5a57611f59611b9f565b5b5f611f6784828501611bed565b91505092915050565b5f7fff0000000000000000000000000000000000000000000000000000000000000082169050919050565b611fa481611f70565b82525050565b611fb381611bc6565b82525050565b5f81519050919050565b5f82825260208201905092915050565b5f819050602082019050919050565b611feb81611c01565b82525050565b5f611ffc8383611fe2565b60208301905092915050565b5f602082019050919050565b5f61201e82611fb9565b6120288185611fc3565b935061203383611fd3565b805f5b8381101561206357815161204a8882611ff1565b975061205583612008565b925050600181019050612036565b5085935050505092915050565b5f60e0820190506120835f83018a611f9b565b81810360208301526120958189611b3e565b905081810360408301526120a98188611b3e565b90506120b86060830187611ca5565b6120c56080830186611faa565b6120d260a0830185611ef2565b81810360c08301526120e48184612014565b905098975050505050505050565b5f6020820190506121055f830184611faa565b92915050565b61211481611eb5565b811461211e575f5ffd5b50565b5f8135905061212f8161210b565b92915050565b61213e81611ee9565b8114612148575f5ffd5b50565b5f8135905061215981612135565b92915050565b5f5f5f5f5f5f5f60e0888a03121561217a57612179611b9f565b5b5f6121878a828b01611bed565b97505060206121988a828b01611bed565b96505060406121a98a828b01611c20565b95505060606121ba8a828b01611c20565b94505060806121cb8a828b01612121565b93505060a06121dc8a828b0161214b565b92505060c06121ed8a828b0161214b565b91505092959891949750929550565b5f5f6040838503121561221257612211611b9f565b5b5f61221f85828601611bed565b925050602061223085828601611bed565b9150509250929050565b7f4e487b71000000000000000000000000000000000000000000000000000000005f52602260045260245ffd5b5f600282049050600182168061227e57607f821691505b6020821081036122915761229061223a565b5b50919050565b5f6040820190506122aa5f830185611ca5565b81810360208301526122bc8184611b3e565b90509392505050565b5f60c0820190506122d85f830189611ef2565b6122e56020830188611faa565b6122f26040830187611faa565b6122ff6060830186611ca5565b61230c6080830185611ca5565b61231960a0830184611ca5565b979650505050505050565b5f6040820190506123375f830185611faa565b6123446020830184611faa565b9392505050565b5f60608201905061235e5f830186611faa565b61236b6020830185611ca5565b6123786040830184611ca5565b949350505050565b7f5265656e7472616e637947756172643a207265656e7472616e742063616c6c005f82015250565b5f6123b4601f83611b10565b91506123bf82612380565b602082019050919050565b5f6020820190508181035f8301526123e1816123a8565b9050919050565b7f5061757361626c653a20706175736564000000000000000000000000000000005f82015250565b5f61241c601083611b10565b9150612427826123e8565b602082019050919050565b5f6020820190508181035f83015261244981612410565b9050919050565b5f60a0820190506124635f830188611ef2565b6124706020830187611ef2565b61247d6040830186611ef2565b61248a6060830185611ca5565b6124976080830184611faa565b9695505050505050565b7f5061757361626c653a206e6f74207061757365640000000000000000000000005f82015250565b5f6124d5601483611b10565b91506124e0826124a1565b602082019050919050565b5f6020820190508181035f830152612502816124c9565b9050919050565b5f60808201905061251c5f830187611ef2565b6125296020830186611ec1565b6125366040830185611ef2565b6125436060830184611ef2565b95945050505050565b7f4e487b71000000000000000000000000000000000000000000000000000000005f52602160045260245ffd5b7f4e487b71000000000000000000000000000000000000000000000000000000005f52601160045260245ffd5b5f6125b082611c01565b91506125bb83611c01565b92508282019050808211156125d3576125d2612579565b5b9291505056fea264697066735822122045283cd6dda3e3e460f67040b8251e2247f3c5b7f86703b75023237ae174f42a64736f6c634300081e0033",
			"opcodes": "PUSH2 0x160 PUSH1 0x40 MSTORE CALLVALUE DUP1 ISZERO PUSH2 0x10 JUMPI PUSH0 PUSH0 REVERT JUMPDEST POP CALLER PUSH1 0x40 MLOAD DUP1 PUSH1 0x40 ADD PUSH1 0x40 MSTORE DUP1 PUSH1 0xB DUP2 MSTORE PUSH1 0x20 ADD PUSH32 0x6953746F7279546F6B656E000000000000000000000000000000000000000000 DUP2 MSTORE POP DUP1 PUSH1 0x40 MLOAD DUP1 PUSH1 0x40 ADD PUSH1 0x40 MSTORE DUP1 PUSH1 0x1 DUP2 MSTORE PUSH1 0x20 ADD PUSH32 0x3100000000000000000000000000000000000000000000000000000000000000 DUP2 MSTORE POP PUSH1 0x40 MLOAD DUP1 PUSH1 0x40 ADD PUSH1 0x40 MSTORE DUP1 PUSH1 0xB DUP2 MSTORE PUSH1 0x20 ADD PUSH32 0x6953746F7279546F6B656E000000000000000000000000000000000000000000 DUP2 MSTORE POP PUSH1 0x40 MLOAD DUP1 PUSH1 0x40 ADD PUSH1 0x40 MSTORE DUP1 PUSH1 0x7 DUP2 MSTORE PUSH1 0x20 ADD PUSH32 0x244953544F525900000000000000000000000000000000000000000000000000 DUP2 MSTORE POP DUP2 PUSH1 0x3 SWAP1 DUP2 PUSH2 0xFA SWAP2 SWAP1 PUSH2 0x9D9 JUMP JUMPDEST POP DUP1 PUSH1 0x4 SWAP1 DUP2 PUSH2 0x10A SWAP2 SWAP1 PUSH2 0x9D9 JUMP JUMPDEST POP POP POP PUSH2 0x121 PUSH1 0x5 DUP4 PUSH2 0x295 PUSH1 0x20 SHL SWAP1 SWAP2 SWAP1 PUSH1 0x20 SHR JUMP JUMPDEST PUSH2 0x120 DUP2 DUP2 MSTORE POP POP PUSH2 0x13D PUSH1 0x6 DUP3 PUSH2 0x295 PUSH1 0x20 SHL SWAP1 SWAP2 SWAP1 PUSH1 0x20 SHR JUMP JUMPDEST PUSH2 0x140 DUP2 DUP2 MSTORE POP POP DUP2 DUP1 MLOAD SWAP1 PUSH1 0x20 ADD KECCAK256 PUSH1 0xE0 DUP2 DUP2 MSTORE POP POP DUP1 DUP1 MLOAD SWAP1 PUSH1 0x20 ADD KECCAK256 PUSH2 0x100 DUP2 DUP2 MSTORE POP POP CHAINID PUSH1 0xA0 DUP2 DUP2 MSTORE POP POP PUSH2 0x17A PUSH2 0x2E2 PUSH1 0x20 SHL PUSH1 0x20 SHR JUMP JUMPDEST PUSH1 0x80 DUP2 DUP2 MSTORE POP POP ADDRESS PUSH20 0xFFFFFFFFFFFFFFFFFFFFFFFFFFFFFFFFFFFFFFFF AND PUSH1 0xC0 DUP2 PUSH20 0xFFFFFFFFFFFFFFFFFFFFFFFFFFFFFFFFFFFFFFFF AND DUP2 MSTORE POP POP POP POP POP PUSH0 PUSH20 0xFFFFFFFFFFFFFFFFFFFFFFFFFFFFFFFFFFFFFFFF AND DUP2 PUSH20 0xFFFFFFFFFFFFFFFFFFFFFFFFFFFFFFFFFFFFFFFF AND SUB PUSH2 0x228 JUMPI PUSH0 PUSH1 0x40 MLOAD PUSH32 0x1E4FBDF700000000000000000000000000000000000000000000000000000000 DUP2 MSTORE PUSH1 0x4 ADD PUSH2 0x21F SWAP2 SWAP1 PUSH2 0xAE7 JUMP JUMPDEST PUSH1 0x40 MLOAD DUP1 SWAP2 SUB SWAP1 REVERT JUMPDEST PUSH2 0x237 DUP2 PUSH2 0x33C PUSH1 0x20 SHL PUSH1 0x20 SHR JUMP JUMPDEST POP PUSH1 0x1 PUSH1 0x9 DUP2 SWAP1 SSTORE POP PUSH0 PUSH1 0xA PUSH0 PUSH2 0x100 EXP DUP2 SLOAD DUP2 PUSH1 0xFF MUL NOT AND SWAP1 DUP4 ISZERO ISZERO MUL OR SWAP1 SSTORE POP PUSH2 0x290 CALLER PUSH2 0x26B PUSH2 0x3FF PUSH1 0x20 SHL PUSH1 0x20 SHR JUMP JUMPDEST PUSH1 0xA PUSH2 0x277 SWAP2 SWAP1 PUSH2 0xC68 JUMP JUMPDEST PUSH3 0xF4240 PUSH2 0x285 SWAP2 SWAP1 PUSH2 0xCB2 JUMP JUMPDEST PUSH2 0x407 PUSH1 0x20 SHL PUSH1 0x20 SHR JUMP JUMPDEST PUSH2 0xF6D JUMP JUMPDEST PUSH0 PUSH1 0x20 DUP4 MLOAD LT ISZERO PUSH2 0x2B6 JUMPI PUSH2 0x2AF DUP4 PUSH2 0x48C PUSH1 0x20 SHL PUSH1 0x20 SHR JUMP JUMPDEST SWAP1 POP PUSH2 0x2DC JUMP JUMPDEST DUP3 PUSH2 0x2C6 DUP4 PUSH2 0x4F1 PUSH1 0x20 SHL PUSH1 0x20 SHR JUMP JUMPDEST PUSH0 ADD SWAP1 DUP2 PUSH2 0x2D4 SWAP2 SWAP1 PUSH2 0x9D9 JUMP JUMPDEST POP PUSH1 0xFF PUSH0 SHL SWAP1 POP JUMPDEST SWAP3 SWAP2 POP POP JUMP JUMPDEST PUSH0 PUSH32 0x8B73C3C69BB8FE3D512ECC4CF759CC79239F7B179B0FFACAA9A75D522B39400F PUSH1 0xE0 MLOAD PUSH2 0x100 MLOAD CHAINID ADDRESS PUSH1 0x40 MLOAD PUSH1 0x20 ADD PUSH2 0x321 SWAP6 SWAP5 SWAP4 SWAP3 SWAP2 SWAP1 PUSH2 0xD1A JUMP JUMPDEST PUSH1 0x40 MLOAD PUSH1 0x20 DUP2 DUP4 SUB SUB DUP2 MSTORE SWAP1 PUSH1 0x40 MSTORE DUP1 MLOAD SWAP1 PUSH1 0x20 ADD KECCAK256 SWAP1 POP SWAP1 JUMP JUMPDEST PUSH0 PUSH1 0x8 PUSH0 SWAP1 SLOAD SWAP1 PUSH2 0x100 EXP SWAP1 DIV PUSH20 0xFFFFFFFFFFFFFFFFFFFFFFFFFFFFFFFFFFFFFFFF AND SWAP1 POP DUP2 PUSH1 0x8 PUSH0 PUSH2 0x100 EXP DUP2 SLOAD DUP2 PUSH20 0xFFFFFFFFFFFFFFFFFFFFFFFFFFFFFFFFFFFFFFFF MUL NOT AND SWAP1 DUP4 PUSH20 0xFFFFFFFFFFFFFFFFFFFFFFFFFFFFFFFFFFFFFFFF AND MUL OR SWAP1 SSTORE POP DUP2 PUSH20 0xFFFFFFFFFFFFFFFFFFFFFFFFFFFFFFFFFFFFFFFF AND DUP2 PUSH20 0xFFFFFFFFFFFFFFFFFFFFFFFFFFFFFFFFFFFFFFFF AND PUSH32 0x8BE0079C531659141344CD1FD0A4F28419497F9722A3DAAFE3B4186F6B6457E0 PUSH1 0x40 MLOAD PUSH1 0x40 MLOAD DUP1 SWAP2 SUB SWAP1 LOG3 POP POP JUMP JUMPDEST PUSH0 PUSH1 0x12 SWAP1 POP SWAP1 JUMP JUMPDEST PUSH0 PUSH20 0xFFFFFFFFFFFFFFFFFFFFFFFFFFFFFFFFFFFFFFFF AND DUP3 PUSH20 0xFFFFFFFFFFFFFFFFFFFFFFFFFFFFFFFFFFFFFFFF AND SUB PUSH2 0x477 JUMPI PUSH0 PUSH1 0x40 MLOAD PUSH32 0xEC442F0500000000000000000000000000000000000000000000000000000000 DUP2 MSTORE PUSH1 0x4 ADD PUSH2 0x46E SWAP2 SWAP1 PUSH2 0xAE7 JUMP JUMPDEST PUSH1 0x40 MLOAD DUP1 SWAP2 SUB SWAP1 REVERT JUMPDEST PUSH2 0x488 PUSH0 DUP4 DUP4 PUSH2 0x4FA PUSH1 0x20 SHL PUSH1 0x20 SHR JUMP JUMPDEST POP POP JUMP JUMPDEST PUSH0 PUSH0 DUP3 SWAP1 POP PUSH1 0x1F DUP2 MLOAD GT ISZERO PUSH2 0x4D8 JUMPI DUP3 PUSH1 0x40 MLOAD PUSH32 0x305A27A900000000000000000000000000000000000000000000000000000000 DUP2 MSTORE PUSH1 0x4 ADD PUSH2 0x4CF SWAP2 SWAP1 PUSH2 0xDD1 JUMP JUMPDEST PUSH1 0x40 MLOAD DUP1 SWAP2 SUB SWAP1 REVERT JUMPDEST DUP1 MLOAD DUP2 PUSH2 0x4E4 SWAP1 PUSH2 0xE1E JUMP JUMPDEST PUSH0 SHR OR PUSH0 SHL SWAP2 POP POP SWAP2 SWAP1 POP JUMP JUMPDEST PUSH0 DUP2 SWAP1 POP SWAP2 SWAP1 POP JUMP JUMPDEST PUSH2 0x508 PUSH2 0x51E PUSH1 0x20 SHL PUSH1 0x20 SHR JUMP JUMPDEST PUSH2 0x519 DUP4 DUP4 DUP4 PUSH2 0x56E PUSH1 0x20 SHL PUSH1 0x20 SHR JUMP JUMPDEST POP POP POP JUMP JUMPDEST PUSH2 0x52C PUSH2 0x787 PUSH1 0x20 SHL PUSH1 0x20 SHR JUMP JUMPDEST ISZERO PUSH2 0x56C JUMPI PUSH1 0x40 MLOAD PUSH32 0x8C379A000000000000000000000000000000000000000000000000000000000 DUP2 MSTORE PUSH1 0x4 ADD PUSH2 0x563 SWAP1 PUSH2 0xECE JUMP JUMPDEST PUSH1 0x40 MLOAD DUP1 SWAP2 SUB SWAP1 REVERT JUMPDEST JUMP JUMPDEST PUSH0 PUSH20 0xFFFFFFFFFFFFFFFFFFFFFFFFFFFFFFFFFFFFFFFF AND DUP4 PUSH20 0xFFFFFFFFFFFFFFFFFFFFFFFFFFFFFFFFFFFFFFFF AND SUB PUSH2 0x5BE JUMPI DUP1 PUSH1 0x2 PUSH0 DUP3 DUP3 SLOAD PUSH2 0x5B2 SWAP2 SWAP1 PUSH2 0xEEC JUMP JUMPDEST SWAP3 POP POP DUP2 SWAP1 SSTORE POP PUSH2 0x68C JUMP JUMPDEST PUSH0 PUSH0 PUSH0 DUP6 PUSH20 0xFFFFFFFFFFFFFFFFFFFFFFFFFFFFFFFFFFFFFFFF AND PUSH20 0xFFFFFFFFFFFFFFFFFFFFFFFFFFFFFFFFFFFFFFFF AND DUP2 MSTORE PUSH1 0x20 ADD SWAP1 DUP2 MSTORE PUSH1 0x20 ADD PUSH0 KECCAK256 SLOAD SWAP1 POP DUP2 DUP2 LT ISZERO PUSH2 0x647 JUMPI DUP4 DUP2 DUP4 PUSH1 0x40 MLOAD PUSH32 0xE450D38C00000000000000000000000000000000000000000000000000000000 DUP2 MSTORE PUSH1 0x4 ADD PUSH2 0x63E SWAP4 SWAP3 SWAP2 SWAP1 PUSH2 0xF1F JUMP JUMPDEST PUSH1 0x40 MLOAD DUP1 SWAP2 SUB SWAP1 REVERT JUMPDEST DUP2 DUP2 SUB PUSH0 PUSH0 DUP7 PUSH20 0xFFFFFFFFFFFFFFFFFFFFFFFFFFFFFFFFFFFFFFFF AND PUSH20 0xFFFFFFFFFFFFFFFFFFFFFFFFFFFFFFFFFFFFFFFF AND DUP2 MSTORE PUSH1 0x20 ADD SWAP1 DUP2 MSTORE PUSH1 0x20 ADD PUSH0 KECCAK256 DUP2 SWAP1 SSTORE POP POP JUMPDEST PUSH0 PUSH20 0xFFFFFFFFFFFFFFFFFFFFFFFFFFFFFFFFFFFFFFFF AND DUP3 PUSH20 0xFFFFFFFFFFFFFFFFFFFFFFFFFFFFFFFFFFFFFFFF AND SUB PUSH2 0x6D3 JUMPI DUP1 PUSH1 0x2 PUSH0 DUP3 DUP3 SLOAD SUB SWAP3 POP POP DUP2 SWAP1 SSTORE POP PUSH2 0x71D JUMP JUMPDEST DUP1 PUSH0 PUSH0 DUP5 PUSH20 0xFFFFFFFFFFFFFFFFFFFFFFFFFFFFFFFFFFFFFFFF AND PUSH20 0xFFFFFFFFFFFFFFFFFFFFFFFFFFFFFFFFFFFFFFFF AND DUP2 MSTORE PUSH1 0x20 ADD SWAP1 DUP2 MSTORE PUSH1 0x20 ADD PUSH0 KECCAK256 PUSH0 DUP3 DUP3 SLOAD ADD SWAP3 POP POP DUP2 SWAP1 SSTORE POP JUMPDEST DUP2 PUSH20 0xFFFFFFFFFFFFFFFFFFFFFFFFFFFFFFFFFFFFFFFF AND DUP4 PUSH20 0xFFFFFFFFFFFFFFFFFFFFFFFFFFFFFFFFFFFFFFFF AND PUSH32 0xDDF252AD1BE2C89B69C2B068FC378DAA952BA7F163C4A11628F55A4DF523B3EF DUP4 PUSH1 0x40 MLOAD PUSH2 0x77A SWAP2 SWAP1 PUSH2 0xF54 JUMP JUMPDEST PUSH1 0x40 MLOAD DUP1 SWAP2 SUB SWAP1 LOG3 POP POP POP JUMP JUMPDEST PUSH0 PUSH1 0xA PUSH0 SWAP1 SLOAD SWAP1 PUSH2 0x100 EXP SWAP1 DIV PUSH1 0xFF AND SWAP1 POP SWAP1 JUMP JUMPDEST PUSH0 DUP2 MLOAD SWAP1 POP SWAP2 SWAP1 POP JUMP JUMPDEST PUSH32 0x4E487B7100000000000000000000000000000000000000000000000000000000 PUSH0 MSTORE PUSH1 0x41 PUSH1 0x4 MSTORE PUSH1 0x24 PUSH0 REVERT JUMPDEST PUSH32 0x4E487B7100000000000000000000000000000000000000000000000000000000 PUSH0 MSTORE PUSH1 0x22 PUSH1 0x4 MSTORE PUSH1 0x24 PUSH0 REVERT JUMPDEST PUSH0 PUSH1 0x2 DUP3 DIV SWAP1 POP PUSH1 0x1 DUP3 AND DUP1 PUSH2 0x817 JUMPI PUSH1 0x7F DUP3 AND SWAP2 POP JUMPDEST PUSH1 0x20 DUP3 LT DUP2 SUB PUSH2 0x82A JUMPI PUSH2 0x829 PUSH2 0x7D3 JUMP JUMPDEST JUMPDEST POP SWAP2 SWAP1 POP JUMP JUMPDEST PUSH0 DUP2 SWAP1 POP DUP2 PUSH0 MSTORE PUSH1 0x20 PUSH0 KECCAK256 SWAP1 POP SWAP2 SWAP1 POP JUMP JUMPDEST PUSH0 PUSH1 0x20 PUSH1 0x1F DUP4 ADD DIV SWAP1 POP SWAP2 SWAP1 POP JUMP JUMPDEST PUSH0 DUP3 DUP3 SHL SWAP1 POP SWAP3 SWAP2 POP POP JUMP JUMPDEST PUSH0 PUSH1 0x8 DUP4 MUL PUSH2 0x88C PUSH32 0xFFFFFFFFFFFFFFFFFFFFFFFFFFFFFFFFFFFFFFFFFFFFFFFFFFFFFFFFFFFFFFFF DUP3 PUSH2 0x851 JUMP JUMPDEST PUSH2 0x896 DUP7 DUP4 PUSH2 0x851 JUMP JUMPDEST SWAP6 POP DUP1 NOT DUP5 AND SWAP4 POP DUP1 DUP7 AND DUP5 OR SWAP3 POP POP POP SWAP4 SWAP3 POP POP POP JUMP JUMPDEST PUSH0 DUP2 SWAP1 POP SWAP2 SWAP1 POP JUMP JUMPDEST PUSH0 DUP2 SWAP1 POP SWAP2 SWAP1 POP JUMP JUMPDEST PUSH0 PUSH2 0x8DA PUSH2 0x8D5 PUSH2 0x8D0 DUP5 PUSH2 0x8AE JUMP JUMPDEST PUSH2 0x8B7 JUMP JUMPDEST PUSH2 0x8AE JUMP JUMPDEST SWAP1 POP SWAP2 SWAP1 POP JUMP JUMPDEST PUSH0 DUP2 SWAP1 POP SWAP2 SWAP1 POP JUMP JUMPDEST PUSH2 0x8F3 DUP4 PUSH2 0x8C0 JUMP JUMPDEST PUSH2 0x907 PUSH2 0x8FF DUP3 PUSH2 0x8E1 JUMP JUMPDEST DUP5 DUP5 SLOAD PUSH2 0x85D JUMP JUMPDEST DUP3 SSTORE POP POP POP POP JUMP JUMPDEST PUSH0 PUSH0 SWAP1 POP SWAP1 JUMP JUMPDEST PUSH2 0x91E PUSH2 0x90F JUMP JUMPDEST PUSH2 0x929 DUP2 DUP5 DUP5 PUSH2 0x8EA JUMP JUMPDEST POP POP POP JUMP JUMPDEST JUMPDEST DUP2 DUP2 LT ISZERO PUSH2 0x94C JUMPI PUSH2 0x941 PUSH0 DUP3 PUSH2 0x916 JUMP JUMPDEST PUSH1 0x1 DUP2 ADD SWAP1 POP PUSH2 0x92F JUMP JUMPDEST POP POP JUMP JUMPDEST PUSH1 0x1F DUP3 GT ISZERO PUSH2 0x991 JUMPI PUSH2 0x962 DUP2 PUSH2 0x830 JUMP JUMPDEST PUSH2 0x96B DUP5 PUSH2 0x842 JUMP JUMPDEST DUP2 ADD PUSH1 0x20 DUP6 LT ISZERO PUSH2 0x97A JUMPI DUP2 SWAP1 POP JUMPDEST PUSH2 0x98E PUSH2 0x986 DUP6 PUSH2 0x842 JUMP JUMPDEST DUP4 ADD DUP3 PUSH2 0x92E JUMP JUMPDEST POP POP JUMPDEST POP POP POP JUMP JUMPDEST PUSH0 DUP3 DUP3 SHR SWAP1 POP SWAP3 SWAP2 POP POP JUMP JUMPDEST PUSH0 PUSH2 0x9B1 PUSH0 NOT DUP5 PUSH1 0x8 MUL PUSH2 0x996 JUMP JUMPDEST NOT DUP1 DUP4 AND SWAP2 POP POP SWAP3 SWAP2 POP POP JUMP JUMPDEST PUSH0 PUSH2 0x9C9 DUP4 DUP4 PUSH2 0x9A2 JUMP JUMPDEST SWAP2 POP DUP3 PUSH1 0x2 MUL DUP3 OR SWAP1 POP SWAP3 SWAP2 POP POP JUMP JUMPDEST PUSH2 0x9E2 DUP3 PUSH2 0x79C JUMP JUMPDEST PUSH8 0xFFFFFFFFFFFFFFFF DUP2 GT ISZERO PUSH2 0x9FB JUMPI PUSH2 0x9FA PUSH2 0x7A6 JUMP JUMPDEST JUMPDEST PUSH2 0xA05 DUP3 SLOAD PUSH2 0x800 JUMP JUMPDEST PUSH2 0xA10 DUP3 DUP3 DUP6 PUSH2 0x950 JUMP JUMPDEST PUSH0 PUSH1 0x20 SWAP1 POP PUSH1 0x1F DUP4 GT PUSH1 0x1 DUP2 EQ PUSH2 0xA41 JUMPI PUSH0 DUP5 ISZERO PUSH2 0xA2F JUMPI DUP3 DUP8 ADD MLOAD SWAP1 POP JUMPDEST PUSH2 0xA39 DUP6 DUP3 PUSH2 0x9BE JUMP JUMPDEST DUP7 SSTORE POP PUSH2 0xAA0 JUMP JUMPDEST PUSH1 0x1F NOT DUP5 AND PUSH2 0xA4F DUP7 PUSH2 0x830 JUMP JUMPDEST PUSH0 JUMPDEST DUP3 DUP2 LT ISZERO PUSH2 0xA76 JUMPI DUP5 DUP10 ADD MLOAD DUP3 SSTORE PUSH1 0x1 DUP3 ADD SWAP2 POP PUSH1 0x20 DUP6 ADD SWAP5 POP PUSH1 0x20 DUP2 ADD SWAP1 POP PUSH2 0xA51 JUMP JUMPDEST DUP7 DUP4 LT ISZERO PUSH2 0xA93 JUMPI DUP5 DUP10 ADD MLOAD PUSH2 0xA8F PUSH1 0x1F DUP10 AND DUP3 PUSH2 0x9A2 JUMP JUMPDEST DUP4 SSTORE POP JUMPDEST PUSH1 0x1 PUSH1 0x2 DUP9 MUL ADD DUP9 SSTORE POP POP POP JUMPDEST POP POP POP POP POP POP JUMP JUMPDEST PUSH0 PUSH20 0xFFFFFFFFFFFFFFFFFFFFFFFFFFFFFFFFFFFFFFFF DUP3 AND SWAP1 POP SWAP2 SWAP1 POP JUMP JUMPDEST PUSH0 PUSH2 0xAD1 DUP3 PUSH2 0xAA8 JUMP JUMPDEST SWAP1 POP SWAP2 SWAP1 POP JUMP JUMPDEST PUSH2 0xAE1 DUP2 PUSH2 0xAC7 JUMP JUMPDEST DUP3 MSTORE POP POP JUMP JUMPDEST PUSH0 PUSH1 0x20 DUP3 ADD SWAP1 POP PUSH2 0xAFA PUSH0 DUP4 ADD DUP5 PUSH2 0xAD8 JUMP JUMPDEST SWAP3 SWAP2 POP POP JUMP JUMPDEST PUSH32 0x4E487B7100000000000000000000000000000000000000000000000000000000 PUSH0 MSTORE PUSH1 0x11 PUSH1 0x4 MSTORE PUSH1 0x24 PUSH0 REVERT JUMPDEST PUSH0 DUP2 PUSH1 0x1 SHR SWAP1 POP SWAP2 SWAP1 POP JUMP JUMPDEST PUSH0 PUSH0 DUP3 SWAP2 POP DUP4 SWAP1 POP JUMPDEST PUSH1 0x1 DUP6 GT ISZERO PUSH2 0xB82 JUMPI DUP1 DUP7 DIV DUP2 GT ISZERO PUSH2 0xB5E JUMPI PUSH2 0xB5D PUSH2 0xB00 JUMP JUMPDEST JUMPDEST PUSH1 0x1 DUP6 AND ISZERO PUSH2 0xB6D JUMPI DUP1 DUP3 MUL SWAP2 POP JUMPDEST DUP1 DUP2 MUL SWAP1 POP PUSH2 0xB7B DUP6 PUSH2 0xB2D JUMP JUMPDEST SWAP5 POP PUSH2 0xB42 JUMP JUMPDEST SWAP5 POP SWAP5 SWAP3 POP POP POP JUMP JUMPDEST PUSH0 DUP3 PUSH2 0xB9A JUMPI PUSH1 0x1 SWAP1 POP PUSH2 0xC55 JUMP JUMPDEST DUP2 PUSH2 0xBA7 JUMPI PUSH0 SWAP1 POP PUSH2 0xC55 JUMP JUMPDEST DUP2 PUSH1 0x1 DUP2 EQ PUSH2 0xBBD JUMPI PUSH1 0x2 DUP2 EQ PUSH2 0xBC7 JUMPI PUSH2 0xBF6 JUMP JUMPDEST PUSH1 0x1 SWAP2 POP POP PUSH2 0xC55 JUMP JUMPDEST PUSH1 0xFF DUP5 GT ISZERO PUSH2 0xBD9 JUMPI PUSH2 0xBD8 PUSH2 0xB00 JUMP JUMPDEST JUMPDEST DUP4 PUSH1 0x2 EXP SWAP2 POP DUP5 DUP3 GT ISZERO PUSH2 0xBF0 JUMPI PUSH2 0xBEF PUSH2 0xB00 JUMP JUMPDEST JUMPDEST POP PUSH2 0xC55 JUMP JUMPDEST POP PUSH1 0x20 DUP4 LT PUSH2 0x133 DUP4 LT AND PUSH1 0x4E DUP5 LT PUSH1 0xB DUP5 LT AND OR ISZERO PUSH2 0xC2B JUMPI DUP3 DUP3 EXP SWAP1 POP DUP4 DUP2 GT ISZERO PUSH2 0xC26 JUMPI PUSH2 0xC25 PUSH2 0xB00 JUMP JUMPDEST JUMPDEST PUSH2 0xC55 JUMP JUMPDEST PUSH2 0xC38 DUP5 DUP5 DUP5 PUSH1 0x1 PUSH2 0xB39 JUMP JUMPDEST SWAP3 POP SWAP1 POP DUP2 DUP5 DIV DUP2 GT ISZERO PUSH2 0xC4F JUMPI PUSH2 0xC4E PUSH2 0xB00 JUMP JUMPDEST JUMPDEST DUP2 DUP2 MUL SWAP1 POP JUMPDEST SWAP4 SWAP3 POP POP POP JUMP JUMPDEST PUSH0 PUSH1 0xFF DUP3 AND SWAP1 POP SWAP2 SWAP1 POP JUMP JUMPDEST PUSH0 PUSH2 0xC72 DUP3 PUSH2 0x8AE JUMP JUMPDEST SWAP2 POP PUSH2 0xC7D DUP4 PUSH2 0xC5C JUMP JUMPDEST SWAP3 POP PUSH2 0xCAA PUSH32 0xFFFFFFFFFFFFFFFFFFFFFFFFFFFFFFFFFFFFFFFFFFFFFFFFFFFFFFFFFFFFFFFF DUP5 DUP5 PUSH2 0xB8B JUMP JUMPDEST SWAP1 POP SWAP3 SWAP2 POP POP JUMP JUMPDEST PUSH0 PUSH2 0xCBC DUP3 PUSH2 0x8AE JUMP JUMPDEST SWAP2 POP PUSH2 0xCC7 DUP4 PUSH2 0x8AE JUMP JUMPDEST SWAP3 POP DUP3 DUP3 MUL PUSH2 0xCD5 DUP2 PUSH2 0x8AE JUMP JUMPDEST SWAP2 POP DUP3 DUP3 DIV DUP5 EQ DUP4 ISZERO OR PUSH2 0xCEC JUMPI PUSH2 0xCEB PUSH2 0xB00 JUMP JUMPDEST JUMPDEST POP SWAP3 SWAP2 POP POP JUMP JUMPDEST PUSH0 DUP2 SWAP1 POP SWAP2 SWAP1 POP JUMP JUMPDEST PUSH2 0xD05 DUP2 PUSH2 0xCF3 JUMP JUMPDEST DUP3 MSTORE POP POP JUMP JUMPDEST PUSH2 0xD14 DUP2 PUSH2 0x8AE JUMP JUMPDEST DUP3 MSTORE POP POP JUMP JUMPDEST PUSH0 PUSH1 0xA0 DUP3 ADD SWAP1 POP PUSH2 0xD2D PUSH0 DUP4 ADD DUP9 PUSH2 0xCFC JUMP JUMPDEST PUSH2 0xD3A PUSH1 0x20 DUP4 ADD DUP8 PUSH2 0xCFC JUMP JUMPDEST PUSH2 0xD47 PUSH1 0x40 DUP4 ADD DUP7 PUSH2 0xCFC JUMP JUMPDEST PUSH2 0xD54 PUSH1 0x60 DUP4 ADD DUP6 PUSH2 0xD0B JUMP JUMPDEST PUSH2 0xD61 PUSH1 0x80 DUP4 ADD DUP5 PUSH2 0xAD8 JUMP JUMPDEST SWAP7 SWAP6 POP POP POP POP POP POP JUMP JUMPDEST PUSH0 DUP3 DUP3 MSTORE PUSH1 0x20 DUP3 ADD SWAP1 POP SWAP3 SWAP2 POP POP JUMP JUMPDEST DUP3 DUP2 DUP4 MCOPY PUSH0 DUP4 DUP4 ADD MSTORE POP POP POP JUMP JUMPDEST PUSH0 PUSH1 0x1F NOT PUSH1 0x1F DUP4 ADD AND SWAP1 POP SWAP2 SWAP1 POP JUMP JUMPDEST PUSH0 PUSH2 0xDA3 DUP3 PUSH2 0x79C JUMP JUMPDEST PUSH2 0xDAD DUP2 DUP6 PUSH2 0xD6B JUMP JUMPDEST SWAP4 POP PUSH2 0xDBD DUP2 DUP6 PUSH1 0x20 DUP7 ADD PUSH2 0xD7B JUMP JUMPDEST PUSH2 0xDC6 DUP2 PUSH2 0xD89 JUMP JUMPDEST DUP5 ADD SWAP2 POP POP SWAP3 SWAP2 POP POP JUMP JUMPDEST PUSH0 PUSH1 0x20 DUP3 ADD SWAP1 POP DUP2 DUP2 SUB PUSH0 DUP4 ADD MSTORE PUSH2 0xDE9 DUP2 DUP5 PUSH2 0xD99 JUMP JUMPDEST SWAP1 POP SWAP3 SWAP2 POP POP JUMP JUMPDEST PUSH0 DUP2 MLOAD SWAP1 POP SWAP2 SWAP1 POP JUMP JUMPDEST PUSH0 DUP2 SWAP1 POP PUSH1 0x20 DUP3 ADD SWAP1 POP SWAP2 SWAP1 POP JUMP JUMPDEST PUSH0 PUSH2 0xE15 DUP3 MLOAD PUSH2 0xCF3 JUMP JUMPDEST DUP1 SWAP2 POP POP SWAP2 SWAP1 POP JUMP JUMPDEST PUSH0 PUSH2 0xE28 DUP3 PUSH2 0xDF1 JUMP JUMPDEST DUP3 PUSH2 0xE32 DUP5 PUSH2 0xDFB JUMP JUMPDEST SWAP1 POP PUSH2 0xE3D DUP2 PUSH2 0xE0A JUMP JUMPDEST SWAP3 POP PUSH1 0x20 DUP3 LT ISZERO PUSH2 0xE7D JUMPI PUSH2 0xE78 PUSH32 0xFFFFFFFFFFFFFFFFFFFFFFFFFFFFFFFFFFFFFFFFFFFFFFFFFFFFFFFFFFFFFFFF DUP4 PUSH1 0x20 SUB PUSH1 0x8 MUL PUSH2 0x851 JUMP JUMPDEST DUP4 AND SWAP3 POP JUMPDEST POP POP SWAP2 SWAP1 POP JUMP JUMPDEST PUSH32 0x5061757361626C653A2070617573656400000000000000000000000000000000 PUSH0 DUP3 ADD MSTORE POP JUMP JUMPDEST PUSH0 PUSH2 0xEB8 PUSH1 0x10 DUP4 PUSH2 0xD6B JUMP JUMPDEST SWAP2 POP PUSH2 0xEC3 DUP3 PUSH2 0xE84 JUMP JUMPDEST PUSH1 0x20 DUP3 ADD SWAP1 POP SWAP2 SWAP1 POP JUMP JUMPDEST PUSH0 PUSH1 0x20 DUP3 ADD SWAP1 POP DUP2 DUP2 SUB PUSH0 DUP4 ADD MSTORE PUSH2 0xEE5 DUP2 PUSH2 0xEAC JUMP JUMPDEST SWAP1 POP SWAP2 SWAP1 POP JUMP JUMPDEST PUSH0 PUSH2 0xEF6 DUP3 PUSH2 0x8AE JUMP JUMPDEST SWAP2 POP PUSH2 0xF01 DUP4 PUSH2 0x8AE JUMP JUMPDEST SWAP3 POP DUP3 DUP3 ADD SWAP1 POP DUP1 DUP3 GT ISZERO PUSH2 0xF19 JUMPI PUSH2 0xF18 PUSH2 0xB00 JUMP JUMPDEST JUMPDEST SWAP3 SWAP2 POP POP JUMP JUMPDEST PUSH0 PUSH1 0x60 DUP3 ADD SWAP1 POP PUSH2 0xF32 PUSH0 DUP4 ADD DUP7 PUSH2 0xAD8 JUMP JUMPDEST PUSH2 0xF3F PUSH1 0x20 DUP4 ADD DUP6 PUSH2 0xD0B JUMP JUMPDEST PUSH2 0xF4C PUSH1 0x40 DUP4 ADD DUP5 PUSH2 0xD0B JUMP JUMPDEST SWAP5 SWAP4 POP POP POP POP JUMP JUMPDEST PUSH0 PUSH1 0x20 DUP3 ADD SWAP1 POP PUSH2 0xF67 PUSH0 DUP4 ADD DUP5 PUSH2 0xD0B JUMP JUMPDEST SWAP3 SWAP2 POP POP JUMP JUMPDEST PUSH1 0x80 MLOAD PUSH1 0xA0 MLOAD PUSH1 0xC0 MLOAD PUSH1 0xE0 MLOAD PUSH2 0x100 MLOAD PUSH2 0x120 MLOAD PUSH2 0x140 MLOAD PUSH2 0x260F PUSH2 0xFBE PUSH0 CODECOPY PUSH0 PUSH2 0x1166 ADD MSTORE PUSH0 PUSH2 0x112B ADD MSTORE PUSH0 PUSH2 0x145E ADD MSTORE PUSH0 PUSH2 0x143D ADD MSTORE PUSH0 PUSH2 0xE24 ADD MSTORE PUSH0 PUSH2 0xE7A ADD MSTORE PUSH0 PUSH2 0xEA3 ADD MSTORE PUSH2 0x260F PUSH0 RETURN INVALID PUSH1 0x80 PUSH1 0x40 MSTORE CALLVALUE DUP1 ISZERO PUSH2 0xF JUMPI PUSH0 PUSH0 REVERT JUMPDEST POP PUSH1 0x4 CALLDATASIZE LT PUSH2 0x14B JUMPI PUSH0 CALLDATALOAD PUSH1 0xE0 SHR DUP1 PUSH4 0x70A08231 GT PUSH2 0xC1 JUMPI DUP1 PUSH4 0x8DA5CB5B GT PUSH2 0x7A JUMPI DUP1 PUSH4 0x8DA5CB5B EQ PUSH2 0x357 JUMPI DUP1 PUSH4 0x95D89B41 EQ PUSH2 0x375 JUMPI DUP1 PUSH4 0xA9059CBB EQ PUSH2 0x393 JUMPI DUP1 PUSH4 0xD505ACCF EQ PUSH2 0x3C3 JUMPI DUP1 PUSH4 0xDD62ED3E EQ PUSH2 0x3DF JUMPI DUP1 PUSH4 0xF2FDE38B EQ PUSH2 0x40F JUMPI PUSH2 0x14B JUMP JUMPDEST DUP1 PUSH4 0x70A08231 EQ PUSH2 0x2A3 JUMPI DUP1 PUSH4 0x715018A6 EQ PUSH2 0x2D3 JUMPI DUP1 PUSH4 0x79CC6790 EQ PUSH2 0x2DD JUMPI DUP1 PUSH4 0x7ECEBE00 EQ PUSH2 0x2F9 JUMPI DUP1 PUSH4 0x8456CB59 EQ PUSH2 0x329 JUMPI DUP1 PUSH4 0x84B0196E EQ PUSH2 0x333 JUMPI PUSH2 0x14B JUMP JUMPDEST DUP1 PUSH4 0x313CE567 GT PUSH2 0x113 JUMPI DUP1 PUSH4 0x313CE567 EQ PUSH2 0x207 JUMPI DUP1 PUSH4 0x3644E515 EQ PUSH2 0x225 JUMPI DUP1 PUSH4 0x3F4BA83A EQ PUSH2 0x243 JUMPI DUP1 PUSH4 0x40C10F19 EQ PUSH2 0x24D JUMPI DUP1 PUSH4 0x42966C68 EQ PUSH2 0x269 JUMPI DUP1 PUSH4 0x5C975ABB EQ PUSH2 0x285 JUMPI PUSH2 0x14B JUMP JUMPDEST DUP1 PUSH4 0x6FDDE03 EQ PUSH2 0x14F JUMPI DUP1 PUSH4 0x95EA7B3 EQ PUSH2 0x16D JUMPI DUP1 PUSH4 0x18160DDD EQ PUSH2 0x19D JUMPI DUP1 PUSH4 0x23B872DD EQ PUSH2 0x1BB JUMPI DUP1 PUSH4 0x2A7EA9D2 EQ PUSH2 0x1EB JUMPI JUMPDEST PUSH0 PUSH0 REVERT JUMPDEST PUSH2 0x157 PUSH2 0x42B JUMP JUMPDEST PUSH1 0x40 MLOAD PUSH2 0x164 SWAP2 SWAP1 PUSH2 0x1B76 JUMP JUMPDEST PUSH1 0x40 MLOAD DUP1 SWAP2 SUB SWAP1 RETURN JUMPDEST PUSH2 0x187 PUSH1 0x4 DUP1 CALLDATASIZE SUB DUP2 ADD SWAP1 PUSH2 0x182 SWAP2 SWAP1 PUSH2 0x1C34 JUMP JUMPDEST PUSH2 0x4BB JUMP JUMPDEST PUSH1 0x40 MLOAD PUSH2 0x194 SWAP2 SWAP1 PUSH2 0x1C8C JUMP JUMPDEST PUSH1 0x40 MLOAD DUP1 SWAP2 SUB SWAP1 RETURN JUMPDEST PUSH2 0x1A5 PUSH2 0x4DD JUMP JUMPDEST PUSH1 0x40 MLOAD PUSH2 0x1B2 SWAP2 SWAP1 PUSH2 0x1CB4 JUMP JUMPDEST PUSH1 0x40 MLOAD DUP1 SWAP2 SUB SWAP1 RETURN JUMPDEST PUSH2 0x1D5 PUSH1 0x4 DUP1 CALLDATASIZE SUB DUP2 ADD SWAP1 PUSH2 0x1D0 SWAP2 SWAP1 PUSH2 0x1CCD JUMP JUMPDEST PUSH2 0x4E6 JUMP JUMPDEST PUSH1 0x40 MLOAD PUSH2 0x1E2 SWAP2 SWAP1 PUSH2 0x1C8C JUMP JUMPDEST PUSH1 0x40 MLOAD DUP1 SWAP2 SUB SWAP1 RETURN JUMPDEST PUSH2 0x205 PUSH1 0x4 DUP1 CALLDATASIZE SUB DUP2 ADD SWAP1 PUSH2 0x200 SWAP2 SWAP1 PUSH2 0x1E49 JUMP JUMPDEST PUSH2 0x514 JUMP JUMPDEST STOP JUMPDEST PUSH2 0x20F PUSH2 0x5AA JUMP JUMPDEST PUSH1 0x40 MLOAD PUSH2 0x21C SWAP2 SWAP1 PUSH2 0x1ED0 JUMP JUMPDEST PUSH1 0x40 MLOAD DUP1 SWAP2 SUB SWAP1 RETURN JUMPDEST PUSH2 0x22D PUSH2 0x5B2 JUMP JUMPDEST PUSH1 0x40 MLOAD PUSH2 0x23A SWAP2 SWAP1 PUSH2 0x1F01 JUMP JUMPDEST PUSH1 0x40 MLOAD DUP1 SWAP2 SUB SWAP1 RETURN JUMPDEST PUSH2 0x24B PUSH2 0x5C0 JUMP JUMPDEST STOP JUMPDEST PUSH2 0x267 PUSH1 0x4 DUP1 CALLDATASIZE SUB DUP2 ADD SWAP1 PUSH2 0x262 SWAP2 SWAP1 PUSH2 0x1C34 JUMP JUMPDEST PUSH2 0x5D2 JUMP JUMPDEST STOP JUMPDEST PUSH2 0x283 PUSH1 0x4 DUP1 CALLDATASIZE SUB DUP2 ADD SWAP1 PUSH2 0x27E SWAP2 SWAP1 PUSH2 0x1F1A JUMP JUMPDEST PUSH2 0x64E JUMP JUMPDEST STOP JUMPDEST PUSH2 0x28D PUSH2 0x662 JUMP JUMPDEST PUSH1 0x40 MLOAD PUSH2 0x29A SWAP2 SWAP1 PUSH2 0x1C8C JUMP JUMPDEST PUSH1 0x40 MLOAD DUP1 SWAP2 SUB SWAP1 RETURN JUMPDEST PUSH2 0x2BD PUSH1 0x4 DUP1 CALLDATASIZE SUB DUP2 ADD SWAP1 PUSH2 0x2B8 SWAP2 SWAP1 PUSH2 0x1F45 JUMP JUMPDEST PUSH2 0x677 JUMP JUMPDEST PUSH1 0x40 MLOAD PUSH2 0x2CA SWAP2 SWAP1 PUSH2 0x1CB4 JUMP JUMPDEST PUSH1 0x40 MLOAD DUP1 SWAP2 SUB SWAP1 RETURN JUMPDEST PUSH2 0x2DB PUSH2 0x6BC JUMP JUMPDEST STOP JUMPDEST PUSH2 0x2F7 PUSH1 0x4 DUP1 CALLDATASIZE SUB DUP2 ADD SWAP1 PUSH2 0x2F2 SWAP2 SWAP1 PUSH2 0x1C34 JUMP JUMPDEST PUSH2 0x6CF JUMP JUMPDEST STOP JUMPDEST PUSH2 0x313 PUSH1 0x4 DUP1 CALLDATASIZE SUB DUP2 ADD SWAP1 PUSH2 0x30E SWAP2 SWAP1 PUSH2 0x1F45 JUMP JUMPDEST PUSH2 0x6EF JUMP JUMPDEST PUSH1 0x40 MLOAD PUSH2 0x320 SWAP2 SWAP1 PUSH2 0x1CB4 JUMP JUMPDEST PUSH1 0x40 MLOAD DUP1 SWAP2 SUB SWAP1 RETURN JUMPDEST PUSH2 0x331 PUSH2 0x700 JUMP JUMPDEST STOP JUMPDEST PUSH2 0x33B PUSH2 0x712 JUMP JUMPDEST PUSH1 0x40 MLOAD PUSH2 0x34E SWAP8 SWAP7 SWAP6 SWAP5 SWAP4 SWAP3 SWAP2 SWAP1 PUSH2 0x2070 JUMP JUMPDEST PUSH1 0x40 MLOAD DUP1 SWAP2 SUB SWAP1 RETURN JUMPDEST PUSH2 0x35F PUSH2 0x7B7 JUMP JUMPDEST PUSH1 0x40 MLOAD PUSH2 0x36C SWAP2 SWAP1 PUSH2 0x20F2 JUMP JUMPDEST PUSH1 0x40 MLOAD DUP1 SWAP2 SUB SWAP1 RETURN JUMPDEST PUSH2 0x37D PUSH2 0x7DF JUMP JUMPDEST PUSH1 0x40 MLOAD PUSH2 0x38A SWAP2 SWAP1 PUSH2 0x1B76 JUMP JUMPDEST PUSH1 0x40 MLOAD DUP1 SWAP2 SUB SWAP1 RETURN JUMPDEST PUSH2 0x3AD PUSH1 0x4 DUP1 CALLDATASIZE SUB DUP2 ADD SWAP1 PUSH2 0x3A8 SWAP2 SWAP1 PUSH2 0x1C34 JUMP JUMPDEST PUSH2 0x86F JUMP JUMPDEST PUSH1 0x40 MLOAD PUSH2 0x3BA SWAP2 SWAP1 PUSH2 0x1C8C JUMP JUMPDEST PUSH1 0x40 MLOAD DUP1 SWAP2 SUB SWAP1 RETURN JUMPDEST PUSH2 0x3DD PUSH1 0x4 DUP1 CALLDATASIZE SUB DUP2 ADD SWAP1 PUSH2 0x3D8 SWAP2 SWAP1 PUSH2 0x215F JUMP JUMPDEST PUSH2 0x891 JUMP JUMPDEST STOP JUMPDEST PUSH2 0x3F9 PUSH1 0x4 DUP1 CALLDATASIZE SUB DUP2 ADD SWAP1 PUSH2 0x3F4 SWAP2 SWAP1 PUSH2 0x21FC JUMP JUMPDEST PUSH2 0x9D6 JUMP JUMPDEST PUSH1 0x40 MLOAD PUSH2 0x406 SWAP2 SWAP1 PUSH2 0x1CB4 JUMP JUMPDEST PUSH1 0x40 MLOAD DUP1 SWAP2 SUB SWAP1 RETURN JUMPDEST PUSH2 0x429 PUSH1 0x4 DUP1 CALLDATASIZE SUB DUP2 ADD SWAP1 PUSH2 0x424 SWAP2 SWAP1 PUSH2 0x1F45 JUMP JUMPDEST PUSH2 0xA58 JUMP JUMPDEST STOP JUMPDEST PUSH1 0x60 PUSH1 0x3 DUP1 SLOAD PUSH2 0x43A SWAP1 PUSH2 0x2267 JUMP JUMPDEST DUP1 PUSH1 0x1F ADD PUSH1 0x20 DUP1 SWAP2 DIV MUL PUSH1 0x20 ADD PUSH1 0x40 MLOAD SWAP1 DUP2 ADD PUSH1 0x40 MSTORE DUP1 SWAP3 SWAP2 SWAP1 DUP2 DUP2 MSTORE PUSH1 0x20 ADD DUP3 DUP1 SLOAD PUSH2 0x466 SWAP1 PUSH2 0x2267 JUMP JUMPDEST DUP1 ISZERO PUSH2 0x4B1 JUMPI DUP1 PUSH1 0x1F LT PUSH2 0x488 JUMPI PUSH2 0x100 DUP1 DUP4 SLOAD DIV MUL DUP4 MSTORE SWAP2 PUSH1 0x20 ADD SWAP2 PUSH2 0x4B1 JUMP JUMPDEST DUP3 ADD SWAP2 SWAP1 PUSH0 MSTORE PUSH1 0x20 PUSH0 KECCAK256 SWAP1 JUMPDEST DUP2 SLOAD DUP2 MSTORE SWAP1 PUSH1 0x1 ADD SWAP1 PUSH1 0x20 ADD DUP1 DUP4 GT PUSH2 0x494 JUMPI DUP3 SWAP1 SUB PUSH1 0x1F AND DUP3 ADD SWAP2 JUMPDEST POP POP POP POP POP SWAP1 POP SWAP1 JUMP JUMPDEST PUSH0 PUSH0 PUSH2 0x4C5 PUSH2 0xADC JUMP JUMPDEST SWAP1 POP PUSH2 0x4D2 DUP2 DUP6 DUP6 PUSH2 0xAE3 JUMP JUMPDEST PUSH1 0x1 SWAP2 POP POP SWAP3 SWAP2 POP POP JUMP JUMPDEST PUSH0 PUSH1 0x2 SLOAD SWAP1 POP SWAP1 JUMP JUMPDEST PUSH0 PUSH0 PUSH2 0x4F0 PUSH2 0xADC JUMP JUMPDEST SWAP1 POP PUSH2 0x4FD DUP6 DUP3 DUP6 PUSH2 0xAF5 JUMP JUMPDEST PUSH2 0x508 DUP6 DUP6 DUP6 PUSH2 0xB88 JUMP JUMPDEST PUSH1 0x1 SWAP2 POP POP SWAP4 SWAP3 POP POP POP JUMP JUMPDEST PUSH2 0x51C PUSH2 0xC78 JUMP JUMPDEST PUSH2 0x524 PUSH2 0xCFF JUMP JUMPDEST PUSH2 0x52C PUSH2 0xD4E JUMP JUMPDEST PUSH2 0x536 DUP4 DUP4 PUSH2 0xD98 JUMP JUMPDEST DUP3 PUSH20 0xFFFFFFFFFFFFFFFFFFFFFFFFFFFFFFFFFFFFFFFF AND CALLER PUSH20 0xFFFFFFFFFFFFFFFFFFFFFFFFFFFFFFFFFFFFFFFF AND PUSH32 0xB4774608E506AC05432202A7A40787B78EC834C983D1A53BE5D34E96F07AECE DUP5 DUP5 PUSH1 0x40 MLOAD PUSH2 0x595 SWAP3 SWAP2 SWAP1 PUSH2 0x2297 JUMP JUMPDEST PUSH1 0x40 MLOAD DUP1 SWAP2 SUB SWAP1 LOG3 PUSH2 0x5A5 PUSH2 0xE17 JUMP JUMPDEST POP POP POP JUMP JUMPDEST PUSH0 PUSH1 0x12 SWAP1 POP SWAP1 JUMP JUMPDEST PUSH0 PUSH2 0x5BB PUSH2 0xE21 JUMP JUMPDEST SWAP1 POP SWAP1 JUMP JUMPDEST PUSH2 0x5C8 PUSH2 0xC78 JUMP JUMPDEST PUSH2 0x5D0 PUSH2 0xED7 JUMP JUMPDEST JUMP JUMPDEST PUSH2 0x5DA PUSH2 0xC78 JUMP JUMPDEST PUSH2 0x5E2 PUSH2 0xCFF JUMP JUMPDEST PUSH2 0x5EA PUSH2 0xD4E JUMP JUMPDEST PUSH2 0x5F4 DUP3 DUP3 PUSH2 0xD98 JUMP JUMPDEST DUP2 PUSH20 0xFFFFFFFFFFFFFFFFFFFFFFFFFFFFFFFFFFFFFFFF AND PUSH32 0x3F2C9D57C068687834F0DE942A9BABB9E5ACAB57D516D3480A3C16EE165A4273 DUP3 PUSH1 0x40 MLOAD PUSH2 0x63A SWAP2 SWAP1 PUSH2 0x1CB4 JUMP JUMPDEST PUSH1 0x40 MLOAD DUP1 SWAP2 SUB SWAP1 LOG2 PUSH2 0x64A PUSH2 0xE17 JUMP JUMPDEST POP POP JUMP JUMPDEST PUSH2 0x65F PUSH2 0x659 PUSH2 0xADC JUMP JUMPDEST DUP3 PUSH2 0xF38 JUMP JUMPDEST POP JUMP JUMPDEST PUSH0 PUSH1 0xA PUSH0 SWAP1 SLOAD SWAP1 PUSH2 0x100 EXP SWAP1 DIV PUSH1 0xFF AND SWAP1 POP SWAP1 JUMP JUMPDEST PUSH0 PUSH0 PUSH0 DUP4 PUSH20 0xFFFFFFFFFFFFFFFFFFFFFFFFFFFFFFFFFFFFFFFF AND PUSH20 0xFFFFFFFFFFFFFFFFFFFFFFFFFFFFFFFFFFFFFFFF AND DUP2 MSTORE PUSH1 0x20 ADD SWAP1 DUP2 MSTORE PUSH1 0x20 ADD PUSH0 KECCAK256 SLOAD SWAP1 POP SWAP2 SWAP1 POP JUMP JUMPDEST PUSH2 0x6C4 PUSH2 0xC78 JUMP JUMPDEST PUSH2 0x6CD PUSH0 PUSH2 0xFB7 JUMP JUMPDEST JUMP JUMPDEST PUSH2 0x6E1 DUP3 PUSH2 0x6DB PUSH2 0xADC JUMP JUMPDEST DUP4 PUSH2 0xAF5 JUMP JUMPDEST PUSH2 0x6EB DUP3 DUP3 PUSH2 0xF38 JUMP JUMPDEST POP POP JUMP JUMPDEST PUSH0 PUSH2 0x6F9 DUP3 PUSH2 0x107A JUMP JUMPDEST SWAP1 POP SWAP2 SWAP1 POP JUMP JUMPDEST PUSH2 0x708 PUSH2 0xC78 JUMP JUMPDEST PUSH2 0x710 PUSH2 0x10C0 JUMP JUMPDEST JUMP JUMPDEST PUSH0 PUSH1 0x60 DUP1 PUSH0 PUSH0 PUSH0 PUSH1 0x60 PUSH2 0x723 PUSH2 0x1122 JUMP JUMPDEST PUSH2 0x72B PUSH2 0x115D JUMP JUMPDEST CHAINID ADDRESS PUSH0 PUSH0 SHL PUSH0 PUSH8 0xFFFFFFFFFFFFFFFF DUP2 GT ISZERO PUSH2 0x74A JUMPI PUSH2 0x749 PUSH2 0x1D25 JUMP JUMPDEST JUMPDEST PUSH1 0x40 MLOAD SWAP1 DUP1 DUP3 MSTORE DUP1 PUSH1 0x20 MUL PUSH1 0x20 ADD DUP3 ADD PUSH1 0x40 MSTORE DUP1 ISZERO PUSH2 0x778 JUMPI DUP2 PUSH1 0x20 ADD PUSH1 0x20 DUP3 MUL DUP1 CALLDATASIZE DUP4 CALLDATACOPY DUP1 DUP3 ADD SWAP2 POP POP SWAP1 POP JUMPDEST POP PUSH32 0xF00000000000000000000000000000000000000000000000000000000000000 SWAP6 SWAP5 SWAP4 SWAP3 SWAP2 SWAP1 SWAP7 POP SWAP7 POP SWAP7 POP SWAP7 POP SWAP7 POP SWAP7 POP SWAP7 POP SWAP1 SWAP2 SWAP3 SWAP4 SWAP5 SWAP6 SWAP7 JUMP JUMPDEST PUSH0 PUSH1 0x8 PUSH0 SWAP1 SLOAD SWAP1 PUSH2 0x100 EXP SWAP1 DIV PUSH20 0xFFFFFFFFFFFFFFFFFFFFFFFFFFFFFFFFFFFFFFFF AND SWAP1 POP SWAP1 JUMP JUMPDEST PUSH1 0x60 PUSH1 0x4 DUP1 SLOAD PUSH2 0x7EE SWAP1 PUSH2 0x2267 JUMP JUMPDEST DUP1 PUSH1 0x1F ADD PUSH1 0x20 DUP1 SWAP2 DIV MUL PUSH1 0x20 ADD PUSH1 0x40 MLOAD SWAP1 DUP2 ADD PUSH1 0x40 MSTORE DUP1 SWAP3 SWAP2 SWAP1 DUP2 DUP2 MSTORE PUSH1 0x20 ADD DUP3 DUP1 SLOAD PUSH2 0x81A SWAP1 PUSH2 0x2267 JUMP JUMPDEST DUP1 ISZERO PUSH2 0x865 JUMPI DUP1 PUSH1 0x1F LT PUSH2 0x83C JUMPI PUSH2 0x100 DUP1 DUP4 SLOAD DIV MUL DUP4 MSTORE SWAP2 PUSH1 0x20 ADD SWAP2 PUSH2 0x865 JUMP JUMPDEST DUP3 ADD SWAP2 SWAP1 PUSH0 MSTORE PUSH1 0x20 PUSH0 KECCAK256 SWAP1 JUMPDEST DUP2 SLOAD DUP2 MSTORE SWAP1 PUSH1 0x1 ADD SWAP1 PUSH1 0x20 ADD DUP1 DUP4 GT PUSH2 0x848 JUMPI DUP3 SWAP1 SUB PUSH1 0x1F AND DUP3 ADD SWAP2 JUMPDEST POP POP POP POP POP SWAP1 POP SWAP1 JUMP JUMPDEST PUSH0 PUSH0 PUSH2 0x879 PUSH2 0xADC JUMP JUMPDEST SWAP1 POP PUSH2 0x886 DUP2 DUP6 DUP6 PUSH2 0xB88 JUMP JUMPDEST PUSH1 0x1 SWAP2 POP POP SWAP3 SWAP2 POP POP JUMP JUMPDEST DUP4 TIMESTAMP GT ISZERO PUSH2 0x8D6 JUMPI DUP4 PUSH1 0x40 MLOAD PUSH32 0x6279130200000000000000000000000000000000000000000000000000000000 DUP2 MSTORE PUSH1 0x4 ADD PUSH2 0x8CD SWAP2 SWAP1 PUSH2 0x1CB4 JUMP JUMPDEST PUSH1 0x40 MLOAD DUP1 SWAP2 SUB SWAP1 REVERT JUMPDEST PUSH0 PUSH32 0x6E71EDAE12B1B97F4D1F60370FEF10105FA2FAAE0126114A169C64845D6126C9 DUP9 DUP9 DUP9 PUSH2 0x904 DUP13 PUSH2 0x1198 JUMP JUMPDEST DUP10 PUSH1 0x40 MLOAD PUSH1 0x20 ADD PUSH2 0x91A SWAP7 SWAP6 SWAP5 SWAP4 SWAP3 SWAP2 SWAP1 PUSH2 0x22C5 JUMP JUMPDEST PUSH1 0x40 MLOAD PUSH1 0x20 DUP2 DUP4 SUB SUB DUP2 MSTORE SWAP1 PUSH1 0x40 MSTORE DUP1 MLOAD SWAP1 PUSH1 0x20 ADD KECCAK256 SWAP1 POP PUSH0 PUSH2 0x93C DUP3 PUSH2 0x11EB JUMP JUMPDEST SWAP1 POP PUSH0 PUSH2 0x94B DUP3 DUP8 DUP8 DUP8 PUSH2 0x1204 JUMP JUMPDEST SWAP1 POP DUP10 PUSH20 0xFFFFFFFFFFFFFFFFFFFFFFFFFFFFFFFFFFFFFFFF AND DUP2 PUSH20 0xFFFFFFFFFFFFFFFFFFFFFFFFFFFFFFFFFFFFFFFF AND EQ PUSH2 0x9BF JUMPI DUP1 DUP11 PUSH1 0x40 MLOAD PUSH32 0x4B800E4600000000000000000000000000000000000000000000000000000000 DUP2 MSTORE PUSH1 0x4 ADD PUSH2 0x9B6 SWAP3 SWAP2 SWAP1 PUSH2 0x2324 JUMP JUMPDEST PUSH1 0x40 MLOAD DUP1 SWAP2 SUB SWAP1 REVERT JUMPDEST PUSH2 0x9CA DUP11 DUP11 DUP11 PUSH2 0xAE3 JUMP JUMPDEST POP POP POP POP POP POP POP POP POP POP JUMP JUMPDEST PUSH0 PUSH1 0x1 PUSH0 DUP5 PUSH20 0xFFFFFFFFFFFFFFFFFFFFFFFFFFFFFFFFFFFFFFFF AND PUSH20 0xFFFFFFFFFFFFFFFFFFFFFFFFFFFFFFFFFFFFFFFF AND DUP2 MSTORE PUSH1 0x20 ADD SWAP1 DUP2 MSTORE PUSH1 0x20 ADD PUSH0 KECCAK256 PUSH0 DUP4 PUSH20 0xFFFFFFFFFFFFFFFFFFFFFFFFFFFFFFFFFFFFFFFF AND PUSH20 0xFFFFFFFFFFFFFFFFFFFFFFFFFFFFFFFFFFFFFFFF AND DUP2 MSTORE PUSH1 0x20 ADD SWAP1 DUP2 MSTORE PUSH1 0x20 ADD PUSH0 KECCAK256 SLOAD SWAP1 POP SWAP3 SWAP2 POP POP JUMP JUMPDEST PUSH2 0xA60 PUSH2 0xC78 JUMP JUMPDEST PUSH0 PUSH20 0xFFFFFFFFFFFFFFFFFFFFFFFFFFFFFFFFFFFFFFFF AND DUP2 PUSH20 0xFFFFFFFFFFFFFFFFFFFFFFFFFFFFFFFFFFFFFFFF AND SUB PUSH2 0xAD0 JUMPI PUSH0 PUSH1 0x40 MLOAD PUSH32 0x1E4FBDF700000000000000000000000000000000000000000000000000000000 DUP2 MSTORE PUSH1 0x4 ADD PUSH2 0xAC7 SWAP2 SWAP1 PUSH2 0x20F2 JUMP JUMPDEST PUSH1 0x40 MLOAD DUP1 SWAP2 SUB SWAP1 REVERT JUMPDEST PUSH2 0xAD9 DUP2 PUSH2 0xFB7 JUMP JUMPDEST POP JUMP JUMPDEST PUSH0 CALLER SWAP1 POP SWAP1 JUMP JUMPDEST PUSH2 0xAF0 DUP4 DUP4 DUP4 PUSH1 0x1 PUSH2 0x1232 JUMP JUMPDEST POP POP POP JUMP JUMPDEST PUSH0 PUSH2 0xB00 DUP5 DUP5 PUSH2 0x9D6 JUMP JUMPDEST SWAP1 POP PUSH32 0xFFFFFFFFFFFFFFFFFFFFFFFFFFFFFFFFFFFFFFFFFFFFFFFFFFFFFFFFFFFFFFFF DUP2 LT ISZERO PUSH2 0xB82 JUMPI DUP2 DUP2 LT ISZERO PUSH2 0xB73 JUMPI DUP3 DUP2 DUP4 PUSH1 0x40 MLOAD PUSH32 0xFB8F41B200000000000000000000000000000000000000000000000000000000 DUP2 MSTORE PUSH1 0x4 ADD PUSH2 0xB6A SWAP4 SWAP3 SWAP2 SWAP1 PUSH2 0x234B JUMP JUMPDEST PUSH1 0x40 MLOAD DUP1 SWAP2 SUB SWAP1 REVERT JUMPDEST PUSH2 0xB81 DUP5 DUP5 DUP5 DUP5 SUB PUSH0 PUSH2 0x1232 JUMP JUMPDEST JUMPDEST POP POP POP POP JUMP JUMPDEST PUSH0 PUSH20 0xFFFFFFFFFFFFFFFFFFFFFFFFFFFFFFFFFFFFFFFF AND DUP4 PUSH20 0xFFFFFFFFFFFFFFFFFFFFFFFFFFFFFFFFFFFFFFFF AND SUB PUSH2 0xBF8 JUMPI PUSH0 PUSH1 0x40 MLOAD PUSH32 0x96C6FD1E00000000000000000000000000000000000000000000000000000000 DUP2 MSTORE PUSH1 0x4 ADD PUSH2 0xBEF SWAP2 SWAP1 PUSH2 0x20F2 JUMP JUMPDEST PUSH1 0x40 MLOAD DUP1 SWAP2 SUB SWAP1 REVERT JUMPDEST PUSH0 PUSH20 0xFFFFFFFFFFFFFFFFFFFFFFFFFFFFFFFFFFFFFFFF AND DUP3 PUSH20 0xFFFFFFFFFFFFFFFFFFFFFFFFFFFFFFFFFFFFFFFF AND SUB PUSH2 0xC68 JUMPI PUSH0 PUSH1 0x40 MLOAD PUSH32 0xEC442F0500000000000000000000000000000000000000000000000000000000 DUP2 MSTORE PUSH1 0x4 ADD PUSH2 0xC5F SWAP2 SWAP1 PUSH2 0x20F2 JUMP JUMPDEST PUSH1 0x40 MLOAD DUP1 SWAP2 SUB SWAP1 REVERT JUMPDEST PUSH2 0xC73 DUP4 DUP4 DUP4 PUSH2 0x1401 JUMP JUMPDEST POP POP POP JUMP JUMPDEST PUSH2 0xC80 PUSH2 0xADC JUMP JUMPDEST PUSH20 0xFFFFFFFFFFFFFFFFFFFFFFFFFFFFFFFFFFFFFFFF AND PUSH2 0xC9E PUSH2 0x7B7 JUMP JUMPDEST PUSH20 0xFFFFFFFFFFFFFFFFFFFFFFFFFFFFFFFFFFFFFFFF AND EQ PUSH2 0xCFD JUMPI PUSH2 0xCC1 PUSH2 0xADC JUMP JUMPDEST PUSH1 0x40 MLOAD PUSH32 0x118CDAA700000000000000000000000000000000000000000000000000000000 DUP2 MSTORE PUSH1 0x4 ADD PUSH2 0xCF4 SWAP2 SWAP1 PUSH2 0x20F2 JUMP JUMPDEST PUSH1 0x40 MLOAD DUP1 SWAP2 SUB SWAP1 REVERT JUMPDEST JUMP JUMPDEST PUSH1 0x2 PUSH1 0x9 SLOAD SUB PUSH2 0xD44 JUMPI PUSH1 0x40 MLOAD PUSH32 0x8C379A000000000000000000000000000000000000000000000000000000000 DUP2 MSTORE PUSH1 0x4 ADD PUSH2 0xD3B SWAP1 PUSH2 0x23CA JUMP JUMPDEST PUSH1 0x40 MLOAD DUP1 SWAP2 SUB SWAP1 REVERT JUMPDEST PUSH1 0x2 PUSH1 0x9 DUP2 SWAP1 SSTORE POP JUMP JUMPDEST PUSH2 0xD56 PUSH2 0x662 JUMP JUMPDEST ISZERO PUSH2 0xD96 JUMPI PUSH1 0x40 MLOAD PUSH32 0x8C379A000000000000000000000000000000000000000000000000000000000 DUP2 MSTORE PUSH1 0x4 ADD PUSH2 0xD8D SWAP1 PUSH2 0x2432 JUMP JUMPDEST PUSH1 0x40 MLOAD DUP1 SWAP2 SUB SWAP1 REVERT JUMPDEST JUMP JUMPDEST PUSH0 PUSH20 0xFFFFFFFFFFFFFFFFFFFFFFFFFFFFFFFFFFFFFFFF AND DUP3 PUSH20 0xFFFFFFFFFFFFFFFFFFFFFFFFFFFFFFFFFFFFFFFF AND SUB PUSH2 0xE08 JUMPI PUSH0 PUSH1 0x40 MLOAD PUSH32 0xEC442F0500000000000000000000000000000000000000000000000000000000 DUP2 MSTORE PUSH1 0x4 ADD PUSH2 0xDFF SWAP2 SWAP1 PUSH2 0x20F2 JUMP JUMPDEST PUSH1 0x40 MLOAD DUP1 SWAP2 SUB SWAP1 REVERT JUMPDEST PUSH2 0xE13 PUSH0 DUP4 DUP4 PUSH2 0x1401 JUMP JUMPDEST POP POP JUMP JUMPDEST PUSH1 0x1 PUSH1 0x9 DUP2 SWAP1 SSTORE POP JUMP JUMPDEST PUSH0 PUSH32 0x0 PUSH20 0xFFFFFFFFFFFFFFFFFFFFFFFFFFFFFFFFFFFFFFFF AND ADDRESS PUSH20 0xFFFFFFFFFFFFFFFFFFFFFFFFFFFFFFFFFFFFFFFF AND EQ DUP1 ISZERO PUSH2 0xE9C JUMPI POP PUSH32 0x0 CHAINID EQ JUMPDEST ISZERO PUSH2 0xEC9 JUMPI PUSH32 0x0 SWAP1 POP PUSH2 0xED4 JUMP JUMPDEST PUSH2 0xED1 PUSH2 0x1419 JUMP JUMPDEST SWAP1 POP JUMPDEST SWAP1 JUMP JUMPDEST PUSH2 0xEDF PUSH2 0x14AE JUMP JUMPDEST PUSH0 PUSH1 0xA PUSH0 PUSH2 0x100 EXP DUP2 SLOAD DUP2 PUSH1 0xFF MUL NOT AND SWAP1 DUP4 ISZERO ISZERO MUL OR SWAP1 SSTORE POP PUSH32 0x5DB9EE0A495BF2E6FF9C91A7834C1BA4FDD244A5E8AA4E537BD38AEAE4B073AA PUSH2 0xF21 PUSH2 0xADC JUMP JUMPDEST PUSH1 0x40 MLOAD PUSH2 0xF2E SWAP2 SWAP1 PUSH2 0x20F2 JUMP JUMPDEST PUSH1 0x40 MLOAD DUP1 SWAP2 SUB SWAP1 LOG1 JUMP JUMPDEST PUSH0 PUSH20 0xFFFFFFFFFFFFFFFFFFFFFFFFFFFFFFFFFFFFFFFF AND DUP3 PUSH20 0xFFFFFFFFFFFFFFFFFFFFFFFFFFFFFFFFFFFFFFFF AND SUB PUSH2 0xFA8 JUMPI PUSH0 PUSH1 0x40 MLOAD PUSH32 0x96C6FD1E00000000000000000000000000000000000000000000000000000000 DUP2 MSTORE PUSH1 0x4 ADD PUSH2 0xF9F SWAP2 SWAP1 PUSH2 0x20F2 JUMP JUMPDEST PUSH1 0x40 MLOAD DUP1 SWAP2 SUB SWAP1 REVERT JUMPDEST PUSH2 0xFB3 DUP3 PUSH0 DUP4 PUSH2 0x1401 JUMP JUMPDEST POP POP JUMP JUMPDEST PUSH0 PUSH1 0x8 PUSH0 SWAP1 SLOAD SWAP1 PUSH2 0x100 EXP SWAP1 DIV PUSH20 0xFFFFFFFFFFFFFFFFFFFFFFFFFFFFFFFFFFFFFFFF AND SWAP1 POP DUP2 PUSH1 0x8 PUSH0 PUSH2 0x100 EXP DUP2 SLOAD DUP2 PUSH20 0xFFFFFFFFFFFFFFFFFFFFFFFFFFFFFFFFFFFFFFFF MUL NOT AND SWAP1 DUP4 PUSH20 0xFFFFFFFFFFFFFFFFFFFFFFFFFFFFFFFFFFFFFFFF AND MUL OR SWAP1 SSTORE POP DUP2 PUSH20 0xFFFFFFFFFFFFFFFFFFFFFFFFFFFFFFFFFFFFFFFF AND DUP2 PUSH20 0xFFFFFFFFFFFFFFFFFFFFFFFFFFFFFFFFFFFFFFFF AND PUSH32 0x8BE0079C531659141344CD1FD0A4F28419497F9722A3DAAFE3B4186F6B6457E0 PUSH1 0x40 MLOAD PUSH1 0x40 MLOAD DUP1 SWAP2 SUB SWAP1 LOG3 POP POP JUMP JUMPDEST PUSH0 PUSH1 0x7 PUSH0 DUP4 PUSH20 0xFFFFFFFFFFFFFFFFFFFFFFFFFFFFFFFFFFFFFFFF AND PUSH20 0xFFFFFFFFFFFFFFFFFFFFFFFFFFFFFFFFFFFFFFFF AND DUP2 MSTORE PUSH1 0x20 ADD SWAP1 DUP2 MSTORE PUSH1 0x20 ADD PUSH0 KECCAK256 SLOAD SWAP1 POP SWAP2 SWAP1 POP JUMP JUMPDEST PUSH2 0x10C8 PUSH2 0xD4E JUMP JUMPDEST PUSH1 0x1 PUSH1 0xA PUSH0 PUSH2 0x100 EXP DUP2 SLOAD DUP2 PUSH1 0xFF MUL NOT AND SWAP1 DUP4 ISZERO ISZERO MUL OR SWAP1 SSTORE POP PUSH32 0x62E78CEA01BEE320CD4E420270B5EA74000D11B0C9F74754EBDBFC544B05A258 PUSH2 0x110B PUSH2 0xADC JUMP JUMPDEST PUSH1 0x40 MLOAD PUSH2 0x1118 SWAP2 SWAP1 PUSH2 0x20F2 JUMP JUMPDEST PUSH1 0x40 MLOAD DUP1 SWAP2 SUB SWAP1 LOG1 JUMP JUMPDEST PUSH1 0x60 PUSH2 0x1158 PUSH1 0x5 PUSH32 0x0 PUSH2 0x14F7 SWAP1 SWAP2 SWAP1 PUSH4 0xFFFFFFFF AND JUMP JUMPDEST SWAP1 POP SWAP1 JUMP JUMPDEST PUSH1 0x60 PUSH2 0x1193 PUSH1 0x6 PUSH32 0x0 PUSH2 0x14F7 SWAP1 SWAP2 SWAP1 PUSH4 0xFFFFFFFF AND JUMP JUMPDEST SWAP1 POP SWAP1 JUMP JUMPDEST PUSH0 PUSH1 0x7 PUSH0 DUP4 PUSH20 0xFFFFFFFFFFFFFFFFFFFFFFFFFFFFFFFFFFFFFFFF AND PUSH20 0xFFFFFFFFFFFFFFFFFFFFFFFFFFFFFFFFFFFFFFFF AND DUP2 MSTORE PUSH1 0x20 ADD SWAP1 DUP2 MSTORE PUSH1 0x20 ADD PUSH0 KECCAK256 PUSH0 DUP2 SLOAD DUP1 SWAP3 SWAP2 SWAP1 PUSH1 0x1 ADD SWAP2 SWAP1 POP SSTORE SWAP1 POP SWAP2 SWAP1 POP JUMP JUMPDEST PUSH0 PUSH2 0x11FD PUSH2 0x11F7 PUSH2 0xE21 JUMP JUMPDEST DUP4 PUSH2 0x15A4 JUMP JUMPDEST SWAP1 POP SWAP2 SWAP1 POP JUMP JUMPDEST PUSH0 PUSH0 PUSH0 PUSH0 PUSH2 0x1214 DUP9 DUP9 DUP9 DUP9 PUSH2 0x15E4 JUMP JUMPDEST SWAP3 POP SWAP3 POP SWAP3 POP PUSH2 0x1224 DUP3 DUP3 PUSH2 0x16CB JUMP JUMPDEST DUP3 SWAP4 POP POP POP POP SWAP5 SWAP4 POP POP POP POP JUMP JUMPDEST PUSH0 PUSH20 0xFFFFFFFFFFFFFFFFFFFFFFFFFFFFFFFFFFFFFFFF AND DUP5 PUSH20 0xFFFFFFFFFFFFFFFFFFFFFFFFFFFFFFFFFFFFFFFF AND SUB PUSH2 0x12A2 JUMPI PUSH0 PUSH1 0x40 MLOAD PUSH32 0xE602DF0500000000000000000000000000000000000000000000000000000000 DUP2 MSTORE PUSH1 0x4 ADD PUSH2 0x1299 SWAP2 SWAP1 PUSH2 0x20F2 JUMP JUMPDEST PUSH1 0x40 MLOAD DUP1 SWAP2 SUB SWAP1 REVERT JUMPDEST PUSH0 PUSH20 0xFFFFFFFFFFFFFFFFFFFFFFFFFFFFFFFFFFFFFFFF AND DUP4 PUSH20 0xFFFFFFFFFFFFFFFFFFFFFFFFFFFFFFFFFFFFFFFF AND SUB PUSH2 0x1312 JUMPI PUSH0 PUSH1 0x40 MLOAD PUSH32 0x94280D6200000000000000000000000000000000000000000000000000000000 DUP2 MSTORE PUSH1 0x4 ADD PUSH2 0x1309 SWAP2 SWAP1 PUSH2 0x20F2 JUMP JUMPDEST PUSH1 0x40 MLOAD DUP1 SWAP2 SUB SWAP1 REVERT JUMPDEST DUP2 PUSH1 0x1 PUSH0 DUP7 PUSH20 0xFFFFFFFFFFFFFFFFFFFFFFFFFFFFFFFFFFFFFFFF AND PUSH20 0xFFFFFFFFFFFFFFFFFFFFFFFFFFFFFFFFFFFFFFFF AND DUP2 MSTORE PUSH1 0x20 ADD SWAP1 DUP2 MSTORE PUSH1 0x20 ADD PUSH0 KECCAK256 PUSH0 DUP6 PUSH20 0xFFFFFFFFFFFFFFFFFFFFFFFFFFFFFFFFFFFFFFFF AND PUSH20 0xFFFFFFFFFFFFFFFFFFFFFFFFFFFFFFFFFFFFFFFF AND DUP2 MSTORE PUSH1 0x20 ADD SWAP1 DUP2 MSTORE PUSH1 0x20 ADD PUSH0 KECCAK256 DUP2 SWAP1 SSTORE POP DUP1 ISZERO PUSH2 0x13FB JUMPI DUP3 PUSH20 0xFFFFFFFFFFFFFFFFFFFFFFFFFFFFFFFFFFFFFFFF AND DUP5 PUSH20 0xFFFFFFFFFFFFFFFFFFFFFFFFFFFFFFFFFFFFFFFF AND PUSH32 0x8C5BE1E5EBEC7D5BD14F71427D1E84F3DD0314C0F7B2291E5B200AC8C7C3B925 DUP5 PUSH1 0x40 MLOAD PUSH2 0x13F2 SWAP2 SWAP1 PUSH2 0x1CB4 JUMP JUMPDEST PUSH1 0x40 MLOAD DUP1 SWAP2 SUB SWAP1 LOG3 JUMPDEST POP POP POP POP JUMP JUMPDEST PUSH2 0x1409 PUSH2 0xD4E JUMP JUMPDEST PUSH2 0x1414 DUP4 DUP4 DUP4 PUSH2 0x182D JUMP JUMPDEST POP POP POP JUMP JUMPDEST PUSH0 PUSH32 0x8B73C3C69BB8FE3D512ECC4CF759CC79239F7B179B0FFACAA9A75D522B39400F PUSH32 0x0 PUSH32 0x0 CHAINID ADDRESS PUSH1 0x40 MLOAD PUSH1 0x20 ADD PUSH2 0x1493 SWAP6 SWAP5 SWAP4 SWAP3 SWAP2 SWAP1 PUSH2 0x2450 JUMP JUMPDEST PUSH1 0x40 MLOAD PUSH1 0x20 DUP2 DUP4 SUB SUB DUP2 MSTORE SWAP1 PUSH1 0x40 MSTORE DUP1 MLOAD SWAP1 PUSH1 0x20 ADD KECCAK256 SWAP1 POP SWAP1 JUMP JUMPDEST PUSH2 0x14B6 PUSH2 0x662 JUMP JUMPDEST PUSH2 0x14F5 JUMPI PUSH1 0x40 MLOAD PUSH32 0x8C379A000000000000000000000000000000000000000000000000000000000 DUP2 MSTORE PUSH1 0x4 ADD PUSH2 0x14EC SWAP1 PUSH2 0x24EB JUMP JUMPDEST PUSH1 0x40 MLOAD DUP1 SWAP2 SUB SWAP1 REVERT JUMPDEST JUMP JUMPDEST PUSH1 0x60 PUSH1 0xFF PUSH0 SHL DUP4 EQ PUSH2 0x1513 JUMPI PUSH2 0x150C DUP4 PUSH2 0x1A46 JUMP JUMPDEST SWAP1 POP PUSH2 0x159E JUMP JUMPDEST DUP2 DUP1 SLOAD PUSH2 0x151F SWAP1 PUSH2 0x2267 JUMP JUMPDEST DUP1 PUSH1 0x1F ADD PUSH1 0x20 DUP1 SWAP2 DIV MUL PUSH1 0x20 ADD PUSH1 0x40 MLOAD SWAP1 DUP2 ADD PUSH1 0x40 MSTORE DUP1 SWAP3 SWAP2 SWAP1 DUP2 DUP2 MSTORE PUSH1 0x20 ADD DUP3 DUP1 SLOAD PUSH2 0x154B SWAP1 PUSH2 0x2267 JUMP JUMPDEST DUP1 ISZERO PUSH2 0x1596 JUMPI DUP1 PUSH1 0x1F LT PUSH2 0x156D JUMPI PUSH2 0x100 DUP1 DUP4 SLOAD DIV MUL DUP4 MSTORE SWAP2 PUSH1 0x20 ADD SWAP2 PUSH2 0x1596 JUMP JUMPDEST DUP3 ADD SWAP2 SWAP1 PUSH0 MSTORE PUSH1 0x20 PUSH0 KECCAK256 SWAP1 JUMPDEST DUP2 SLOAD DUP2 MSTORE SWAP1 PUSH1 0x1 ADD SWAP1 PUSH1 0x20 ADD DUP1 DUP4 GT PUSH2 0x1579 JUMPI DUP3 SWAP1 SUB PUSH1 0x1F AND DUP3 ADD SWAP2 JUMPDEST POP POP POP POP POP SWAP1 POP JUMPDEST SWAP3 SWAP2 POP POP JUMP JUMPDEST PUSH0 PUSH1 0x40 MLOAD PUSH32 0x1901000000000000000000000000000000000000000000000000000000000000 DUP2 MSTORE DUP4 PUSH1 0x2 DUP3 ADD MSTORE DUP3 PUSH1 0x22 DUP3 ADD MSTORE PUSH1 0x42 DUP2 KECCAK256 SWAP2 POP POP SWAP3 SWAP2 POP POP JUMP JUMPDEST PUSH0 PUSH0 PUSH0 PUSH32 0x7FFFFFFFFFFFFFFFFFFFFFFFFFFFFFFF5D576E7357A4501DDFE92F46681B20A0 DUP5 PUSH0 SHR GT ISZERO PUSH2 0x1620 JUMPI PUSH0 PUSH1 0x3 DUP6 SWAP3 POP SWAP3 POP SWAP3 POP PUSH2 0x16C1 JUMP JUMPDEST PUSH0 PUSH1 0x1 DUP9 DUP9 DUP9 DUP9 PUSH1 0x40 MLOAD PUSH0 DUP2 MSTORE PUSH1 0x20 ADD PUSH1 0x40 MSTORE PUSH1 0x40 MLOAD PUSH2 0x1643 SWAP5 SWAP4 SWAP3 SWAP2 SWAP1 PUSH2 0x2509 JUMP JUMPDEST PUSH1 0x20 PUSH1 0x40 MLOAD PUSH1 0x20 DUP2 SUB SWAP1 DUP1 DUP5 SUB SWAP1 DUP6 GAS STATICCALL ISZERO DUP1 ISZERO PUSH2 0x1663 JUMPI RETURNDATASIZE PUSH0 PUSH0 RETURNDATACOPY RETURNDATASIZE PUSH0 REVERT JUMPDEST POP POP POP PUSH1 0x20 PUSH1 0x40 MLOAD SUB MLOAD SWAP1 POP PUSH0 PUSH20 0xFFFFFFFFFFFFFFFFFFFFFFFFFFFFFFFFFFFFFFFF AND DUP2 PUSH20 0xFFFFFFFFFFFFFFFFFFFFFFFFFFFFFFFFFFFFFFFF AND SUB PUSH2 0x16B4 JUMPI PUSH0 PUSH1 0x1 PUSH0 PUSH0 SHL SWAP4 POP SWAP4 POP SWAP4 POP POP PUSH2 0x16C1 JUMP JUMPDEST DUP1 PUSH0 PUSH0 PUSH0 SHL SWAP4 POP SWAP4 POP SWAP4 POP POP JUMPDEST SWAP5 POP SWAP5 POP SWAP5 SWAP2 POP POP JUMP JUMPDEST PUSH0 PUSH1 0x3 DUP2 GT ISZERO PUSH2 0x16DE JUMPI PUSH2 0x16DD PUSH2 0x254C JUMP JUMPDEST JUMPDEST DUP3 PUSH1 0x3 DUP2 GT ISZERO PUSH2 0x16F1 JUMPI PUSH2 0x16F0 PUSH2 0x254C JUMP JUMPDEST JUMPDEST SUB ISZERO PUSH2 0x1829 JUMPI PUSH1 0x1 PUSH1 0x3 DUP2 GT ISZERO PUSH2 0x170B JUMPI PUSH2 0x170A PUSH2 0x254C JUMP JUMPDEST JUMPDEST DUP3 PUSH1 0x3 DUP2 GT ISZERO PUSH2 0x171E JUMPI PUSH2 0x171D PUSH2 0x254C JUMP JUMPDEST JUMPDEST SUB PUSH2 0x1755 JUMPI PUSH1 0x40 MLOAD PUSH32 0xF645EEDF00000000000000000000000000000000000000000000000000000000 DUP2 MSTORE PUSH1 0x4 ADD PUSH1 0x40 MLOAD DUP1 SWAP2 SUB SWAP1 REVERT JUMPDEST PUSH1 0x2 PUSH1 0x3 DUP2 GT ISZERO PUSH2 0x1769 JUMPI PUSH2 0x1768 PUSH2 0x254C JUMP JUMPDEST JUMPDEST DUP3 PUSH1 0x3 DUP2 GT ISZERO PUSH2 0x177C JUMPI PUSH2 0x177B PUSH2 0x254C JUMP JUMPDEST JUMPDEST SUB PUSH2 0x17C0 JUMPI DUP1 PUSH0 SHR PUSH1 0x40 MLOAD PUSH32 0xFCE698F700000000000000000000000000000000000000000000000000000000 DUP2 MSTORE PUSH1 0x4 ADD PUSH2 0x17B7 SWAP2 SWAP1 PUSH2 0x1CB4 JUMP JUMPDEST PUSH1 0x40 MLOAD DUP1 SWAP2 SUB SWAP1 REVERT JUMPDEST PUSH1 0x3 DUP1 DUP2 GT ISZERO PUSH2 0x17D3 JUMPI PUSH2 0x17D2 PUSH2 0x254C JUMP JUMPDEST JUMPDEST DUP3 PUSH1 0x3 DUP2 GT ISZERO PUSH2 0x17E6 JUMPI PUSH2 0x17E5 PUSH2 0x254C JUMP JUMPDEST JUMPDEST SUB PUSH2 0x1828 JUMPI DUP1 PUSH1 0x40 MLOAD PUSH32 0xD78BCE0C00000000000000000000000000000000000000000000000000000000 DUP2 MSTORE PUSH1 0x4 ADD PUSH2 0x181F SWAP2 SWAP1 PUSH2 0x1F01 JUMP JUMPDEST PUSH1 0x40 MLOAD DUP1 SWAP2 SUB SWAP1 REVERT JUMPDEST JUMPDEST POP POP JUMP JUMPDEST PUSH0 PUSH20 0xFFFFFFFFFFFFFFFFFFFFFFFFFFFFFFFFFFFFFFFF AND DUP4 PUSH20 0xFFFFFFFFFFFFFFFFFFFFFFFFFFFFFFFFFFFFFFFF AND SUB PUSH2 0x187D JUMPI DUP1 PUSH1 0x2 PUSH0 DUP3 DUP3 SLOAD PUSH2 0x1871 SWAP2 SWAP1 PUSH2 0x25A6 JUMP JUMPDEST SWAP3 POP POP DUP2 SWAP1 SSTORE POP PUSH2 0x194B JUMP JUMPDEST PUSH0 PUSH0 PUSH0 DUP6 PUSH20 0xFFFFFFFFFFFFFFFFFFFFFFFFFFFFFFFFFFFFFFFF AND PUSH20 0xFFFFFFFFFFFFFFFFFFFFFFFFFFFFFFFFFFFFFFFF AND DUP2 MSTORE PUSH1 0x20 ADD SWAP1 DUP2 MSTORE PUSH1 0x20 ADD PUSH0 KECCAK256 SLOAD SWAP1 POP DUP2 DUP2 LT ISZERO PUSH2 0x1906 JUMPI DUP4 DUP2 DUP4 PUSH1 0x40 MLOAD PUSH32 0xE450D38C00000000000000000000000000000000000000000000000000000000 DUP2 MSTORE PUSH1 0x4 ADD PUSH2 0x18FD SWAP4 SWAP3 SWAP2 SWAP1 PUSH2 0x234B JUMP JUMPDEST PUSH1 0x40 MLOAD DUP1 SWAP2 SUB SWAP1 REVERT JUMPDEST DUP2 DUP2 SUB PUSH0 PUSH0 DUP7 PUSH20 0xFFFFFFFFFFFFFFFFFFFFFFFFFFFFFFFFFFFFFFFF AND PUSH20 0xFFFFFFFFFFFFFFFFFFFFFFFFFFFFFFFFFFFFFFFF AND DUP2 MSTORE PUSH1 0x20 ADD SWAP1 DUP2 MSTORE PUSH1 0x20 ADD PUSH0 KECCAK256 DUP2 SWAP1 SSTORE POP POP JUMPDEST PUSH0 PUSH20 0xFFFFFFFFFFFFFFFFFFFFFFFFFFFFFFFFFFFFFFFF AND DUP3 PUSH20 0xFFFFFFFFFFFFFFFFFFFFFFFFFFFFFFFFFFFFFFFF AND SUB PUSH2 0x1992 JUMPI DUP1 PUSH1 0x2 PUSH0 DUP3 DUP3 SLOAD SUB SWAP3 POP POP DUP2 SWAP1 SSTORE POP PUSH2 0x19DC JUMP JUMPDEST DUP1 PUSH0 PUSH0 DUP5 PUSH20 0xFFFFFFFFFFFFFFFFFFFFFFFFFFFFFFFFFFFFFFFF AND PUSH20 0xFFFFFFFFFFFFFFFFFFFFFFFFFFFFFFFFFFFFFFFF AND DUP2 MSTORE PUSH1 0x20 ADD SWAP1 DUP2 MSTORE PUSH1 0x20 ADD PUSH0 KECCAK256 PUSH0 DUP3 DUP3 SLOAD ADD SWAP3 POP POP DUP2 SWAP1 SSTORE POP JUMPDEST DUP2 PUSH20 0xFFFFFFFFFFFFFFFFFFFFFFFFFFFFFFFFFFFFFFFF AND DUP4 PUSH20 0xFFFFFFFFFFFFFFFFFFFFFFFFFFFFFFFFFFFFFFFF AND PUSH32 0xDDF252AD1BE2C89B69C2B068FC378DAA952BA7F163C4A11628F55A4DF523B3EF DUP4 PUSH1 0x40 MLOAD PUSH2 0x1A39 SWAP2 SWAP1 PUSH2 0x1CB4 JUMP JUMPDEST PUSH1 0x40 MLOAD DUP1 SWAP2 SUB SWAP1 LOG3 POP POP POP JUMP JUMPDEST PUSH1 0x60 PUSH0 PUSH2 0x1A52 DUP4 PUSH2 0x1AB8 JUMP JUMPDEST SWAP1 POP PUSH0 PUSH1 0x20 PUSH8 0xFFFFFFFFFFFFFFFF DUP2 GT ISZERO PUSH2 0x1A70 JUMPI PUSH2 0x1A6F PUSH2 0x1D25 JUMP JUMPDEST JUMPDEST PUSH1 0x40 MLOAD SWAP1 DUP1 DUP3 MSTORE DUP1 PUSH1 0x1F ADD PUSH1 0x1F NOT AND PUSH1 0x20 ADD DUP3 ADD PUSH1 0x40 MSTORE DUP1 ISZERO PUSH2 0x1AA2 JUMPI DUP2 PUSH1 0x20 ADD PUSH1 0x1 DUP3 MUL DUP1 CALLDATASIZE DUP4 CALLDATACOPY DUP1 DUP3 ADD SWAP2 POP POP SWAP1 POP JUMPDEST POP SWAP1 POP DUP2 DUP2 MSTORE DUP4 PUSH1 0x20 DUP3 ADD MSTORE DUP1 SWAP3 POP POP POP SWAP2 SWAP1 POP JUMP JUMPDEST PUSH0 PUSH0 PUSH1 0xFF DUP4 PUSH0 SHR AND SWAP1 POP PUSH1 0x1F DUP2 GT ISZERO PUSH2 0x1AFD JUMPI PUSH1 0x40 MLOAD PUSH32 0xB3512B0C00000000000000000000000000000000000000000000000000000000 DUP2 MSTORE PUSH1 0x4 ADD PUSH1 0x40 MLOAD DUP1 SWAP2 SUB SWAP1 REVERT JUMPDEST DUP1 SWAP2 POP POP SWAP2 SWAP1 POP JUMP JUMPDEST PUSH0 DUP2 MLOAD SWAP1 POP SWAP2 SWAP1 POP JUMP JUMPDEST PUSH0 DUP3 DUP3 MSTORE PUSH1 0x20 DUP3 ADD SWAP1 POP SWAP3 SWAP2 POP POP JUMP JUMPDEST DUP3 DUP2 DUP4 MCOPY PUSH0 DUP4 DUP4 ADD MSTORE POP POP POP JUMP JUMPDEST PUSH0 PUSH1 0x1F NOT PUSH1 0x1F DUP4 ADD AND SWAP1 POP SWAP2 SWAP1 POP JUMP JUMPDEST PUSH0 PUSH2 0x1B48 DUP3 PUSH2 0x1B06 JUMP JUMPDEST PUSH2 0x1B52 DUP2 DUP6 PUSH2 0x1B10 JUMP JUMPDEST SWAP4 POP PUSH2 0x1B62 DUP2 DUP6 PUSH1 0x20 DUP7 ADD PUSH2 0x1B20 JUMP JUMPDEST PUSH2 0x1B6B DUP2 PUSH2 0x1B2E JUMP JUMPDEST DUP5 ADD SWAP2 POP POP SWAP3 SWAP2 POP POP JUMP JUMPDEST PUSH0 PUSH1 0x20 DUP3 ADD SWAP1 POP DUP2 DUP2 SUB PUSH0 DUP4 ADD MSTORE PUSH2 0x1B8E DUP2 DUP5 PUSH2 0x1B3E JUMP JUMPDEST SWAP1 POP SWAP3 SWAP2 POP POP JUMP JUMPDEST PUSH0 PUSH1 0x40 MLOAD SWAP1 POP SWAP1 JUMP JUMPDEST PUSH0 PUSH0 REVERT JUMPDEST PUSH0 PUSH0 REVERT JUMPDEST PUSH0 PUSH20 0xFFFFFFFFFFFFFFFFFFFFFFFFFFFFFFFFFFFFFFFF DUP3 AND SWAP1 POP SWAP2 SWAP1 POP JUMP JUMPDEST PUSH0 PUSH2 0x1BD0 DUP3 PUSH2 0x1BA7 JUMP JUMPDEST SWAP1 POP SWAP2 SWAP1 POP JUMP JUMPDEST PUSH2 0x1BE0 DUP2 PUSH2 0x1BC6 JUMP JUMPDEST DUP2 EQ PUSH2 0x1BEA JUMPI PUSH0 PUSH0 REVERT JUMPDEST POP JUMP JUMPDEST PUSH0 DUP2 CALLDATALOAD SWAP1 POP PUSH2 0x1BFB DUP2 PUSH2 0x1BD7 JUMP JUMPDEST SWAP3 SWAP2 POP POP JUMP JUMPDEST PUSH0 DUP2 SWAP1 POP SWAP2 SWAP1 POP JUMP JUMPDEST PUSH2 0x1C13 DUP2 PUSH2 0x1C01 JUMP JUMPDEST DUP2 EQ PUSH2 0x1C1D JUMPI PUSH0 PUSH0 REVERT JUMPDEST POP JUMP JUMPDEST PUSH0 DUP2 CALLDATALOAD SWAP1 POP PUSH2 0x1C2E DUP2 PUSH2 0x1C0A JUMP JUMPDEST SWAP3 SWAP2 POP POP JUMP JUMPDEST PUSH0 PUSH0 PUSH1 0x40 DUP4 DUP6 SUB SLT ISZERO PUSH2 0x1C4A JUMPI PUSH2 0x1C49 PUSH2 0x1B9F JUMP JUMPDEST JUMPDEST PUSH0 PUSH2 0x1C57 DUP6 DUP3 DUP7 ADD PUSH2 0x1BED JUMP JUMPDEST SWAP3 POP POP PUSH1 0x20 PUSH2 0x1C68 DUP6 DUP3 DUP7 ADD PUSH2 0x1C20 JUMP JUMPDEST SWAP2 POP POP SWAP3 POP SWAP3 SWAP1 POP JUMP JUMPDEST PUSH0 DUP2 ISZERO ISZERO SWAP1 POP SWAP2 SWAP1 POP JUMP JUMPDEST PUSH2 0x1C86 DUP2 PUSH2 0x1C72 JUMP JUMPDEST DUP3 MSTORE POP POP JUMP JUMPDEST PUSH0 PUSH1 0x20 DUP3 ADD SWAP1 POP PUSH2 0x1C9F PUSH0 DUP4 ADD DUP5 PUSH2 0x1C7D JUMP JUMPDEST SWAP3 SWAP2 POP POP JUMP JUMPDEST PUSH2 0x1CAE DUP2 PUSH2 0x1C01 JUMP JUMPDEST DUP3 MSTORE POP POP JUMP JUMPDEST PUSH0 PUSH1 0x20 DUP3 ADD SWAP1 POP PUSH2 0x1CC7 PUSH0 DUP4 ADD DUP5 PUSH2 0x1CA5 JUMP JUMPDEST SWAP3 SWAP2 POP POP JUMP JUMPDEST PUSH0 PUSH0 PUSH0 PUSH1 0x60 DUP5 DUP7 SUB SLT ISZERO PUSH2 0x1CE4 JUMPI PUSH2 0x1CE3 PUSH2 0x1B9F JUMP JUMPDEST JUMPDEST PUSH0 PUSH2 0x1CF1 DUP7 DUP3 DUP8 ADD PUSH2 0x1BED JUMP JUMPDEST SWAP4 POP POP PUSH1 0x20 PUSH2 0x1D02 DUP7 DUP3 DUP8 ADD PUSH2 0x1BED JUMP JUMPDEST SWAP3 POP POP PUSH1 0x40 PUSH2 0x1D13 DUP7 DUP3 DUP8 ADD PUSH2 0x1C20 JUMP JUMPDEST SWAP2 POP POP SWAP3 POP SWAP3 POP SWAP3 JUMP JUMPDEST PUSH0 PUSH0 REVERT JUMPDEST PUSH0 PUSH0 REVERT JUMPDEST PUSH32 0x4E487B7100000000000000000000000000000000000000000000000000000000 PUSH0 MSTORE PUSH1 0x41 PUSH1 0x4 MSTORE PUSH1 0x24 PUSH0 REVERT JUMPDEST PUSH2 0x1D5B DUP3 PUSH2 0x1B2E JUMP JUMPDEST DUP2 ADD DUP2 DUP2 LT PUSH8 0xFFFFFFFFFFFFFFFF DUP3 GT OR ISZERO PUSH2 0x1D7A JUMPI PUSH2 0x1D79 PUSH2 0x1D25 JUMP JUMPDEST JUMPDEST DUP1 PUSH1 0x40 MSTORE POP POP POP JUMP JUMPDEST PUSH0 PUSH2 0x1D8C PUSH2 0x1B96 JUMP JUMPDEST SWAP1 POP PUSH2 0x1D98 DUP3 DUP3 PUSH2 0x1D52 JUMP JUMPDEST SWAP2 SWAP1 POP JUMP JUMPDEST PUSH0 PUSH8 0xFFFFFFFFFFFFFFFF DUP3 GT ISZERO PUSH2 0x1DB7 JUMPI PUSH2 0x1DB6 PUSH2 0x1D25 JUMP JUMPDEST JUMPDEST PUSH2 0x1DC0 DUP3 PUSH2 0x1B2E JUMP JUMPDEST SWAP1 POP PUSH1 0x20 DUP2 ADD SWAP1 POP SWAP2 SWAP1 POP JUMP JUMPDEST DUP3 DUP2 DUP4 CALLDATACOPY PUSH0 DUP4 DUP4 ADD MSTORE POP POP POP JUMP JUMPDEST PUSH0 PUSH2 0x1DED PUSH2 0x1DE8 DUP5 PUSH2 0x1D9D JUMP JUMPDEST PUSH2 0x1D83 JUMP JUMPDEST SWAP1 POP DUP3 DUP2 MSTORE PUSH1 0x20 DUP2 ADD DUP5 DUP5 DUP5 ADD GT ISZERO PUSH2 0x1E09 JUMPI PUSH2 0x1E08 PUSH2 0x1D21 JUMP JUMPDEST JUMPDEST PUSH2 0x1E14 DUP5 DUP3 DUP6 PUSH2 0x1DCD JUMP JUMPDEST POP SWAP4 SWAP3 POP POP POP JUMP JUMPDEST PUSH0 DUP3 PUSH1 0x1F DUP4 ADD SLT PUSH2 0x1E30 JUMPI PUSH2 0x1E2F PUSH2 0x1D1D JUMP JUMPDEST JUMPDEST DUP2 CALLDATALOAD PUSH2 0x1E40 DUP5 DUP3 PUSH1 0x20 DUP7 ADD PUSH2 0x1DDB JUMP JUMPDEST SWAP2 POP POP SWAP3 SWAP2 POP POP JUMP JUMPDEST PUSH0 PUSH0 PUSH0 PUSH1 0x60 DUP5 DUP7 SUB SLT ISZERO PUSH2 0x1E60 JUMPI PUSH2 0x1E5F PUSH2 0x1B9F JUMP JUMPDEST JUMPDEST PUSH0 PUSH2 0x1E6D DUP7 DUP3 DUP8 ADD PUSH2 0x1BED JUMP JUMPDEST SWAP4 POP POP PUSH1 0x20 PUSH2 0x1E7E DUP7 DUP3 DUP8 ADD PUSH2 0x1C20 JUMP JUMPDEST SWAP3 POP POP PUSH1 0x40 DUP5 ADD CALLDATALOAD PUSH8 0xFFFFFFFFFFFFFFFF DUP2 GT ISZERO PUSH2 0x1E9F JUMPI PUSH2 0x1E9E PUSH2 0x1BA3 JUMP JUMPDEST JUMPDEST PUSH2 0x1EAB DUP7 DUP3 DUP8 ADD PUSH2 0x1E1C JUMP JUMPDEST SWAP2 POP POP SWAP3 POP SWAP3 POP SWAP3 JUMP JUMPDEST PUSH0 PUSH1 0xFF DUP3 AND SWAP1 POP SWAP2 SWAP1 POP JUMP JUMPDEST PUSH2 0x1ECA DUP2 PUSH2 0x1EB5 JUMP JUMPDEST DUP3 MSTORE POP POP JUMP JUMPDEST PUSH0 PUSH1 0x20 DUP3 ADD SWAP1 POP PUSH2 0x1EE3 PUSH0 DUP4 ADD DUP5 PUSH2 0x1EC1 JUMP JUMPDEST SWAP3 SWAP2 POP POP JUMP JUMPDEST PUSH0 DUP2 SWAP1 POP SWAP2 SWAP1 POP JUMP JUMPDEST PUSH2 0x1EFB DUP2 PUSH2 0x1EE9 JUMP JUMPDEST DUP3 MSTORE POP POP JUMP JUMPDEST PUSH0 PUSH1 0x20 DUP3 ADD SWAP1 POP PUSH2 0x1F14 PUSH0 DUP4 ADD DUP5 PUSH2 0x1EF2 JUMP JUMPDEST SWAP3 SWAP2 POP POP JUMP JUMPDEST PUSH0 PUSH1 0x20 DUP3 DUP5 SUB SLT ISZERO PUSH2 0x1F2F JUMPI PUSH2 0x1F2E PUSH2 0x1B9F JUMP JUMPDEST JUMPDEST PUSH0 PUSH2 0x1F3C DUP5 DUP3 DUP6 ADD PUSH2 0x1C20 JUMP JUMPDEST SWAP2 POP POP SWAP3 SWAP2 POP POP JUMP JUMPDEST PUSH0 PUSH1 0x20 DUP3 DUP5 SUB SLT ISZERO PUSH2 0x1F5A JUMPI PUSH2 0x1F59 PUSH2 0x1B9F JUMP JUMPDEST JUMPDEST PUSH0 PUSH2 0x1F67 DUP5 DUP3 DUP6 ADD PUSH2 0x1BED JUMP JUMPDEST SWAP2 POP POP SWAP3 SWAP2 POP POP JUMP JUMPDEST PUSH0 PUSH32 0xFF00000000000000000000000000000000000000000000000000000000000000 DUP3 AND SWAP1 POP SWAP2 SWAP1 POP JUMP JUMPDEST PUSH2 0x1FA4 DUP2 PUSH2 0x1F70 JUMP JUMPDEST DUP3 MSTORE POP POP JUMP JUMPDEST PUSH2 0x1FB3 DUP2 PUSH2 0x1BC6 JUMP JUMPDEST DUP3 MSTORE POP POP JUMP JUMPDEST PUSH0 DUP2 MLOAD SWAP1 POP SWAP2 SWAP1 POP JUMP JUMPDEST PUSH0 DUP3 DUP3 MSTORE PUSH1 0x20 DUP3 ADD SWAP1 POP SWAP3 SWAP2 POP POP JUMP JUMPDEST PUSH0 DUP2 SWAP1 POP PUSH1 0x20 DUP3 ADD SWAP1 POP SWAP2 SWAP1 POP JUMP JUMPDEST PUSH2 0x1FEB DUP2 PUSH2 0x1C01 JUMP JUMPDEST DUP3 MSTORE POP POP JUMP JUMPDEST PUSH0 PUSH2 0x1FFC DUP4 DUP4 PUSH2 0x1FE2 JUMP JUMPDEST PUSH1 0x20 DUP4 ADD SWAP1 POP SWAP3 SWAP2 POP POP JUMP JUMPDEST PUSH0 PUSH1 0x20 DUP3 ADD SWAP1 POP SWAP2 SWAP1 POP JUMP JUMPDEST PUSH0 PUSH2 0x201E DUP3 PUSH2 0x1FB9 JUMP JUMPDEST PUSH2 0x2028 DUP2 DUP6 PUSH2 0x1FC3 JUMP JUMPDEST SWAP4 POP PUSH2 0x2033 DUP4 PUSH2 0x1FD3 JUMP JUMPDEST DUP1 PUSH0 JUMPDEST DUP4 DUP2 LT ISZERO PUSH2 0x2063 JUMPI DUP2 MLOAD PUSH2 0x204A DUP9 DUP3 PUSH2 0x1FF1 JUMP JUMPDEST SWAP8 POP PUSH2 0x2055 DUP4 PUSH2 0x2008 JUMP JUMPDEST SWAP3 POP POP PUSH1 0x1 DUP2 ADD SWAP1 POP PUSH2 0x2036 JUMP JUMPDEST POP DUP6 SWAP4 POP POP POP POP SWAP3 SWAP2 POP POP JUMP JUMPDEST PUSH0 PUSH1 0xE0 DUP3 ADD SWAP1 POP PUSH2 0x2083 PUSH0 DUP4 ADD DUP11 PUSH2 0x1F9B JUMP JUMPDEST DUP2 DUP2 SUB PUSH1 0x20 DUP4 ADD MSTORE PUSH2 0x2095 DUP2 DUP10 PUSH2 0x1B3E JUMP JUMPDEST SWAP1 POP DUP2 DUP2 SUB PUSH1 0x40 DUP4 ADD MSTORE PUSH2 0x20A9 DUP2 DUP9 PUSH2 0x1B3E JUMP JUMPDEST SWAP1 POP PUSH2 0x20B8 PUSH1 0x60 DUP4 ADD DUP8 PUSH2 0x1CA5 JUMP JUMPDEST PUSH2 0x20C5 PUSH1 0x80 DUP4 ADD DUP7 PUSH2 0x1FAA JUMP JUMPDEST PUSH2 0x20D2 PUSH1 0xA0 DUP4 ADD DUP6 PUSH2 0x1EF2 JUMP JUMPDEST DUP2 DUP2 SUB PUSH1 0xC0 DUP4 ADD MSTORE PUSH2 0x20E4 DUP2 DUP5 PUSH2 0x2014 JUMP JUMPDEST SWAP1 POP SWAP9 SWAP8 POP POP POP POP POP POP POP POP JUMP JUMPDEST PUSH0 PUSH1 0x20 DUP3 ADD SWAP1 POP PUSH2 0x2105 PUSH0 DUP4 ADD DUP5 PUSH2 0x1FAA JUMP JUMPDEST SWAP3 SWAP2 POP POP JUMP JUMPDEST PUSH2 0x2114 DUP2 PUSH2 0x1EB5 JUMP JUMPDEST DUP2 EQ PUSH2 0x211E JUMPI PUSH0 PUSH0 REVERT JUMPDEST POP JUMP JUMPDEST PUSH0 DUP2 CALLDATALOAD SWAP1 POP PUSH2 0x212F DUP2 PUSH2 0x210B JUMP JUMPDEST SWAP3 SWAP2 POP POP JUMP JUMPDEST PUSH2 0x213E DUP2 PUSH2 0x1EE9 JUMP JUMPDEST DUP2 EQ PUSH2 0x2148 JUMPI PUSH0 PUSH0 REVERT JUMPDEST POP JUMP JUMPDEST PUSH0 DUP2 CALLDATALOAD SWAP1 POP PUSH2 0x2159 DUP2 PUSH2 0x2135 JUMP JUMPDEST SWAP3 SWAP2 POP POP JUMP JUMPDEST PUSH0 PUSH0 PUSH0 PUSH0 PUSH0 PUSH0 PUSH0 PUSH1 0xE0 DUP9 DUP11 SUB SLT ISZERO PUSH2 0x217A JUMPI PUSH2 0x2179 PUSH2 0x1B9F JUMP JUMPDEST JUMPDEST PUSH0 PUSH2 0x2187 DUP11 DUP3 DUP12 ADD PUSH2 0x1BED JUMP JUMPDEST SWAP8 POP POP PUSH1 0x20 PUSH2 0x2198 DUP11 DUP3 DUP12 ADD PUSH2 0x1BED JUMP JUMPDEST SWAP7 POP POP PUSH1 0x40 PUSH2 0x21A9 DUP11 DUP3 DUP12 ADD PUSH2 0x1C20 JUMP JUMPDEST SWAP6 POP POP PUSH1 0x60 PUSH2 0x21BA DUP11 DUP3 DUP12 ADD PUSH2 0x1C20 JUMP JUMPDEST SWAP5 POP POP PUSH1 0x80 PUSH2 0x21CB DUP11 DUP3 DUP12 ADD PUSH2 0x2121 JUMP JUMPDEST SWAP4 POP POP PUSH1 0xA0 PUSH2 0x21DC DUP11 DUP3 DUP12 ADD PUSH2 0x214B JUMP JUMPDEST SWAP3 POP POP PUSH1 0xC0 PUSH2 0x21ED DUP11 DUP3 DUP12 ADD PUSH2 0x214B JUMP JUMPDEST SWAP2 POP POP SWAP3 SWAP6 SWAP9 SWAP2 SWAP5 SWAP8 POP SWAP3 SWAP6 POP JUMP JUMPDEST PUSH0 PUSH0 PUSH1 0x40 DUP4 DUP6 SUB SLT ISZERO PUSH2 0x2212 JUMPI PUSH2 0x2211 PUSH2 0x1B9F JUMP JUMPDEST JUMPDEST PUSH0 PUSH2 0x221F DUP6 DUP3 DUP7 ADD PUSH2 0x1BED JUMP JUMPDEST SWAP3 POP POP PUSH1 0x20 PUSH2 0x2230 DUP6 DUP3 DUP7 ADD PUSH2 0x1BED JUMP JUMPDEST SWAP2 POP POP SWAP3 POP SWAP3 SWAP1 POP JUMP JUMPDEST PUSH32 0x4E487B7100000000000000000000000000000000000000000000000000000000 PUSH0 MSTORE PUSH1 0x22 PUSH1 0x4 MSTORE PUSH1 0x24 PUSH0 REVERT JUMPDEST PUSH0 PUSH1 0x2 DUP3 DIV SWAP1 POP PUSH1 0x1 DUP3 AND DUP1 PUSH2 0x227E JUMPI PUSH1 0x7F DUP3 AND SWAP2 POP JUMPDEST PUSH1 0x20 DUP3 LT DUP2 SUB PUSH2 0x2291 JUMPI PUSH2 0x2290 PUSH2 0x223A JUMP JUMPDEST JUMPDEST POP SWAP2 SWAP1 POP JUMP JUMPDEST PUSH0 PUSH1 0x40 DUP3 ADD SWAP1 POP PUSH2 0x22AA PUSH0 DUP4 ADD DUP6 PUSH2 0x1CA5 JUMP JUMPDEST DUP2 DUP2 SUB PUSH1 0x20 DUP4 ADD MSTORE PUSH2 0x22BC DUP2 DUP5 PUSH2 0x1B3E JUMP JUMPDEST SWAP1 POP SWAP4 SWAP3 POP POP POP JUMP JUMPDEST PUSH0 PUSH1 0xC0 DUP3 ADD SWAP1 POP PUSH2 0x22D8 PUSH0 DUP4 ADD DUP10 PUSH2 0x1EF2 JUMP JUMPDEST PUSH2 0x22E5 PUSH1 0x20 DUP4 ADD DUP9 PUSH2 0x1FAA JUMP JUMPDEST PUSH2 0x22F2 PUSH1 0x40 DUP4 ADD DUP8 PUSH2 0x1FAA JUMP JUMPDEST PUSH2 0x22FF PUSH1 0x60 DUP4 ADD DUP7 PUSH2 0x1CA5 JUMP JUMPDEST PUSH2 0x230C PUSH1 0x80 DUP4 ADD DUP6 PUSH2 0x1CA5 JUMP JUMPDEST PUSH2 0x2319 PUSH1 0xA0 DUP4 ADD DUP5 PUSH2 0x1CA5 JUMP JUMPDEST SWAP8 SWAP7 POP POP POP POP POP POP POP JUMP JUMPDEST PUSH0 PUSH1 0x40 DUP3 ADD SWAP1 POP PUSH2 0x2337 PUSH0 DUP4 ADD DUP6 PUSH2 0x1FAA JUMP JUMPDEST PUSH2 0x2344 PUSH1 0x20 DUP4 ADD DUP5 PUSH2 0x1FAA JUMP JUMPDEST SWAP4 SWAP3 POP POP POP JUMP JUMPDEST PUSH0 PUSH1 0x60 DUP3 ADD SWAP1 POP PUSH2 0x235E PUSH0 DUP4 ADD DUP7 PUSH2 0x1FAA JUMP JUMPDEST PUSH2 0x236B PUSH1 0x20 DUP4 ADD DUP6 PUSH2 0x1CA5 JUMP JUMPDEST PUSH2 0x2378 PUSH1 0x40 DUP4 ADD DUP5 PUSH2 0x1CA5 JUMP JUMPDEST SWAP5 SWAP4 POP POP POP POP JUMP JUMPDEST PUSH32 0x5265656E7472616E637947756172643A207265656E7472616E742063616C6C00 PUSH0 DUP3 ADD MSTORE POP JUMP JUMPDEST PUSH0 PUSH2 0x23B4 PUSH1 0x1F DUP4 PUSH2 0x1B10 JUMP JUMPDEST SWAP2 POP PUSH2 0x23BF DUP3 PUSH2 0x2380 JUMP JUMPDEST PUSH1 0x20 DUP3 ADD SWAP1 POP SWAP2 SWAP1 POP JUMP JUMPDEST PUSH0 PUSH1 0x20 DUP3 ADD SWAP1 POP DUP2 DUP2 SUB PUSH0 DUP4 ADD MSTORE PUSH2 0x23E1 DUP2 PUSH2 0x23A8 JUMP JUMPDEST SWAP1 POP SWAP2 SWAP1 POP JUMP JUMPDEST PUSH32 0x5061757361626C653A2070617573656400000000000000000000000000000000 PUSH0 DUP3 ADD MSTORE POP JUMP JUMPDEST PUSH0 PUSH2 0x241C PUSH1 0x10 DUP4 PUSH2 0x1B10 JUMP JUMPDEST SWAP2 POP PUSH2 0x2427 DUP3 PUSH2 0x23E8 JUMP JUMPDEST PUSH1 0x20 DUP3 ADD SWAP1 POP SWAP2 SWAP1 POP JUMP JUMPDEST PUSH0 PUSH1 0x20 DUP3 ADD SWAP1 POP DUP2 DUP2 SUB PUSH0 DUP4 ADD MSTORE PUSH2 0x2449 DUP2 PUSH2 0x2410 JUMP JUMPDEST SWAP1 POP SWAP2 SWAP1 POP JUMP JUMPDEST PUSH0 PUSH1 0xA0 DUP3 ADD SWAP1 POP PUSH2 0x2463 PUSH0 DUP4 ADD DUP9 PUSH2 0x1EF2 JUMP JUMPDEST PUSH2 0x2470 PUSH1 0x20 DUP4 ADD DUP8 PUSH2 0x1EF2 JUMP JUMPDEST PUSH2 0x247D PUSH1 0x40 DUP4 ADD DUP7 PUSH2 0x1EF2 JUMP JUMPDEST PUSH2 0x248A PUSH1 0x60 DUP4 ADD DUP6 PUSH2 0x1CA5 JUMP JUMPDEST PUSH2 0x2497 PUSH1 0x80 DUP4 ADD DUP5 PUSH2 0x1FAA JUMP JUMPDEST SWAP7 SWAP6 POP POP POP POP POP POP JUMP JUMPDEST PUSH32 0x5061757361626C653A206E6F7420706175736564000000000000000000000000 PUSH0 DUP3 ADD MSTORE POP JUMP JUMPDEST PUSH0 PUSH2 0x24D5 PUSH1 0x14 DUP4 PUSH2 0x1B10 JUMP JUMPDEST SWAP2 POP PUSH2 0x24E0 DUP3 PUSH2 0x24A1 JUMP JUMPDEST PUSH1 0x20 DUP3 ADD SWAP1 POP SWAP2 SWAP1 POP JUMP JUMPDEST PUSH0 PUSH1 0x20 DUP3 ADD SWAP1 POP DUP2 DUP2 SUB PUSH0 DUP4 ADD MSTORE PUSH2 0x2502 DUP2 PUSH2 0x24C9 JUMP JUMPDEST SWAP1 POP SWAP2 SWAP1 POP JUMP JUMPDEST PUSH0 PUSH1 0x80 DUP3 ADD SWAP1 POP PUSH2 0x251C PUSH0 DUP4 ADD DUP8 PUSH2 0x1EF2 JUMP JUMPDEST PUSH2 0x2529 PUSH1 0x20 DUP4 ADD DUP7 PUSH2 0x1EC1 JUMP JUMPDEST PUSH2 0x2536 PUSH1 0x40 DUP4 ADD DUP6 PUSH2 0x1EF2 JUMP JUMPDEST PUSH2 0x2543 PUSH1 0x60 DUP4 ADD DUP5 PUSH2 0x1EF2 JUMP JUMPDEST SWAP6 SWAP5 POP POP POP POP POP JUMP JUMPDEST PUSH32 0x4E487B7100000000000000000000000000000000000000000000000000000000 PUSH0 MSTORE PUSH1 0x21 PUSH1 0x4 MSTORE PUSH1 0x24 PUSH0 REVERT JUMPDEST PUSH32 0x4E487B7100000000000000000000000000000000000000000000000000000000 PUSH0 MSTORE PUSH1 0x11 PUSH1 0x4 MSTORE PUSH1 0x24 PUSH0 REVERT JUMPDEST PUSH0 PUSH2 0x25B0 DUP3 PUSH2 0x1C01 JUMP JUMPDEST SWAP2 POP PUSH2 0x25BB DUP4 PUSH2 0x1C01 JUMP JUMPDEST SWAP3 POP DUP3 DUP3 ADD SWAP1 POP DUP1 DUP3 GT ISZERO PUSH2 0x25D3 JUMPI PUSH2 0x25D2 PUSH2 0x2579 JUMP JUMPDEST JUMPDEST SWAP3 SWAP2 POP POP JUMP INVALID LOG2 PUSH5 0x6970667358 0x22 SLT KECCAK256 GASLIMIT 0x28 EXTCODECOPY 0xD6 0xDD LOG3 CALLF 0xE460 0xF6 PUSH17 0x40B8251E2247F3C5B7F86703B75023237A RJUMPI 0x74F4 0x2A PUSH5 0x736F6C6343 STOP ADDMOD 0x1E STOP CALLER "
		},
		"gasEstimates": {
			"creation": {
				"codeDepositCost": "1948600",
				"executionCost": "infinite",
				"totalCost": "infinite"
			},
			"external": {
				"DOMAIN_SEPARATOR()": "infinite",
				"allowance(address,address)": "infinite",
				"approve(address,uint256)": "infinite",
				"balanceOf(address)": "2851",
				"burn(uint256)": "infinite",
				"burnFrom(address,uint256)": "infinite",
				"decimals()": "361",
				"distributeReward(address,uint256,string)": "infinite",
				"eip712Domain()": "infinite",
				"mint(address,uint256)": "infinite",
				"name()": "infinite",
				"nonces(address)": "2960",
				"owner()": "2537",
				"pause()": "infinite",
				"paused()": "2606",
				"permit(address,address,uint256,uint256,uint8,bytes32,bytes32)": "infinite",
				"renounceOwnership()": "infinite",
				"symbol()": "infinite",
				"totalSupply()": "2500",
				"transfer(address,uint256)": "infinite",
				"transferFrom(address,address,uint256)": "infinite",
				"transferOwnership(address)": "infinite",
				"unpause()": "infinite"
			},
			"internal": {
				"_update(address,address,uint256)": "infinite"
			}
		},
		"methodIdentifiers": {
			"DOMAIN_SEPARATOR()": "3644e515",
			"allowance(address,address)": "dd62ed3e",
			"approve(address,uint256)": "095ea7b3",
			"balanceOf(address)": "70a08231",
			"burn(uint256)": "42966c68",
			"burnFrom(address,uint256)": "79cc6790",
			"decimals()": "313ce567",
			"distributeReward(address,uint256,string)": "2a7ea9d2",
			"eip712Domain()": "84b0196e",
			"mint(address,uint256)": "40c10f19",
			"name()": "06fdde03",
			"nonces(address)": "7ecebe00",
			"owner()": "8da5cb5b",
			"pause()": "8456cb59",
			"paused()": "5c975abb",
			"permit(address,address,uint256,uint256,uint8,bytes32,bytes32)": "d505accf",
			"renounceOwnership()": "715018a6",
			"symbol()": "95d89b41",
			"totalSupply()": "18160ddd",
			"transfer(address,uint256)": "a9059cbb",
			"transferFrom(address,address,uint256)": "23b872dd",
			"transferOwnership(address)": "f2fde38b",
			"unpause()": "3f4ba83a"
		}
	},
	"abi": [
		{
			"inputs": [],
			"stateMutability": "nonpayable",
			"type": "constructor"
		},
		{
			"inputs": [],
			"name": "ECDSAInvalidSignature",
			"type": "error"
		},
		{
			"inputs": [
				{
					"internalType": "uint256",
					"name": "length",
					"type": "uint256"
				}
			],
			"name": "ECDSAInvalidSignatureLength",
			"type": "error"
		},
		{
			"inputs": [
				{
					"internalType": "bytes32",
					"name": "s",
					"type": "bytes32"
				}
			],
			"name": "ECDSAInvalidSignatureS",
			"type": "error"
		},
		{
			"inputs": [
				{
					"internalType": "address",
					"name": "spender",
					"type": "address"
				},
				{
					"internalType": "uint256",
					"name": "allowance",
					"type": "uint256"
				},
				{
					"internalType": "uint256",
					"name": "needed",
					"type": "uint256"
				}
			],
			"name": "ERC20InsufficientAllowance",
			"type": "error"
		},
		{
			"inputs": [
				{
					"internalType": "address",
					"name": "sender",
					"type": "address"
				},
				{
					"internalType": "uint256",
					"name": "balance",
					"type": "uint256"
				},
				{
					"internalType": "uint256",
					"name": "needed",
					"type": "uint256"
				}
			],
			"name": "ERC20InsufficientBalance",
			"type": "error"
		},
		{
			"inputs": [
				{
					"internalType": "address",
					"name": "approver",
					"type": "address"
				}
			],
			"name": "ERC20InvalidApprover",
			"type": "error"
		},
		{
			"inputs": [
				{
					"internalType": "address",
					"name": "receiver",
					"type": "address"
				}
			],
			"name": "ERC20InvalidReceiver",
			"type": "error"
		},
		{
			"inputs": [
				{
					"internalType": "address",
					"name": "sender",
					"type": "address"
				}
			],
			"name": "ERC20InvalidSender",
			"type": "error"
		},
		{
			"inputs": [
				{
					"internalType": "address",
					"name": "spender",
					"type": "address"
				}
			],
			"name": "ERC20InvalidSpender",
			"type": "error"
		},
		{
			"inputs": [
				{
					"internalType": "uint256",
					"name": "deadline",
					"type": "uint256"
				}
			],
			"name": "ERC2612ExpiredSignature",
			"type": "error"
		},
		{
			"inputs": [
				{
					"internalType": "address",
					"name": "signer",
					"type": "address"
				},
				{
					"internalType": "address",
					"name": "owner",
					"type": "address"
				}
			],
			"name": "ERC2612InvalidSigner",
			"type": "error"
		},
		{
			"inputs": [
				{
					"internalType": "address",
					"name": "account",
					"type": "address"
				},
				{
					"internalType": "uint256",
					"name": "currentNonce",
					"type": "uint256"
				}
			],
			"name": "InvalidAccountNonce",
			"type": "error"
		},
		{
			"inputs": [],
			"name": "InvalidShortString",
			"type": "error"
		},
		{
			"inputs": [
				{
					"internalType": "address",
					"name": "owner",
					"type": "address"
				}
			],
			"name": "OwnableInvalidOwner",
			"type": "error"
		},
		{
			"inputs": [
				{
					"internalType": "address",
					"name": "account",
					"type": "address"
				}
			],
			"name": "OwnableUnauthorizedAccount",
			"type": "error"
		},
		{
			"inputs": [
				{
					"internalType": "string",
					"name": "str",
					"type": "string"
				}
			],
			"name": "StringTooLong",
			"type": "error"
		},
		{
			"anonymous": false,
			"inputs": [
				{
					"indexed": true,
					"internalType": "address",
					"name": "owner",
					"type": "address"
				},
				{
					"indexed": true,
					"internalType": "address",
					"name": "spender",
					"type": "address"
				},
				{
					"indexed": false,
					"internalType": "uint256",
					"name": "value",
					"type": "uint256"
				}
			],
			"name": "Approval",
			"type": "event"
		},
		{
			"anonymous": false,
			"inputs": [],
			"name": "EIP712DomainChanged",
			"type": "event"
		},
		{
			"anonymous": false,
			"inputs": [
				{
					"indexed": true,
					"internalType": "address",
					"name": "previousOwner",
					"type": "address"
				},
				{
					"indexed": true,
					"internalType": "address",
					"name": "newOwner",
					"type": "address"
				}
			],
			"name": "OwnershipTransferred",
			"type": "event"
		},
		{
			"anonymous": false,
			"inputs": [
				{
					"indexed": false,
					"internalType": "address",
					"name": "account",
					"type": "address"
				}
			],
			"name": "Paused",
			"type": "event"
		},
		{
			"anonymous": false,
			"inputs": [
				{
					"indexed": true,
					"internalType": "address",
					"name": "from",
					"type": "address"
				},
				{
					"indexed": true,
					"internalType": "address",
					"name": "to",
					"type": "address"
				},
				{
					"indexed": false,
					"internalType": "uint256",
					"name": "amount",
					"type": "uint256"
				},
				{
					"indexed": false,
					"internalType": "string",
					"name": "reason",
					"type": "string"
				}
			],
			"name": "TokensDistributed",
			"type": "event"
		},
		{
			"anonymous": false,
			"inputs": [
				{
					"indexed": true,
					"internalType": "address",
					"name": "to",
					"type": "address"
				},
				{
					"indexed": false,
					"internalType": "uint256",
					"name": "amount",
					"type": "uint256"
				}
			],
			"name": "TokensMinted",
			"type": "event"
		},
		{
			"anonymous": false,
			"inputs": [
				{
					"indexed": true,
					"internalType": "address",
					"name": "from",
					"type": "address"
				},
				{
					"indexed": true,
					"internalType": "address",
					"name": "to",
					"type": "address"
				},
				{
					"indexed": false,
					"internalType": "uint256",
					"name": "value",
					"type": "uint256"
				}
			],
			"name": "Transfer",
			"type": "event"
		},
		{
			"anonymous": false,
			"inputs": [
				{
					"indexed": false,
					"internalType": "address",
					"name": "account",
					"type": "address"
				}
			],
			"name": "Unpaused",
			"type": "event"
		},
		{
			"inputs": [],
			"name": "DOMAIN_SEPARATOR",
			"outputs": [
				{
					"internalType": "bytes32",
					"name": "",
					"type": "bytes32"
				}
			],
			"stateMutability": "view",
			"type": "function"
		},
		{
			"inputs": [
				{
					"internalType": "address",
					"name": "owner",
					"type": "address"
				},
				{
					"internalType": "address",
					"name": "spender",
					"type": "address"
				}
			],
			"name": "allowance",
			"outputs": [
				{
					"internalType": "uint256",
					"name": "",
					"type": "uint256"
				}
			],
			"stateMutability": "view",
			"type": "function"
		},
		{
			"inputs": [
				{
					"internalType": "address",
					"name": "spender",
					"type": "address"
				},
				{
					"internalType": "uint256",
					"name": "value",
					"type": "uint256"
				}
			],
			"name": "approve",
			"outputs": [
				{
					"internalType": "bool",
					"name": "",
					"type": "bool"
				}
			],
			"stateMutability": "nonpayable",
			"type": "function"
		},
		{
			"inputs": [
				{
					"internalType": "address",
					"name": "account",
					"type": "address"
				}
			],
			"name": "balanceOf",
			"outputs": [
				{
					"internalType": "uint256",
					"name": "",
					"type": "uint256"
				}
			],
			"stateMutability": "view",
			"type": "function"
		},
		{
			"inputs": [
				{
					"internalType": "uint256",
					"name": "value",
					"type": "uint256"
				}
			],
			"name": "burn",
			"outputs": [],
			"stateMutability": "nonpayable",
			"type": "function"
		},
		{
			"inputs": [
				{
					"internalType": "address",
					"name": "account",
					"type": "address"
				},
				{
					"internalType": "uint256",
					"name": "value",
					"type": "uint256"
				}
			],
			"name": "burnFrom",
			"outputs": [],
			"stateMutability": "nonpayable",
			"type": "function"
		},
		{
			"inputs": [],
			"name": "decimals",
			"outputs": [
				{
					"internalType": "uint8",
					"name": "",
					"type": "uint8"
				}
			],
			"stateMutability": "view",
			"type": "function"
		},
		{
			"inputs": [
				{
					"internalType": "address",
					"name": "to",
					"type": "address"
				},
				{
					"internalType": "uint256",
					"name": "amount",
					"type": "uint256"
				},
				{
					"internalType": "string",
					"name": "reason",
					"type": "string"
				}
			],
			"name": "distributeReward",
			"outputs": [],
			"stateMutability": "nonpayable",
			"type": "function"
		},
		{
			"inputs": [],
			"name": "eip712Domain",
			"outputs": [
				{
					"internalType": "bytes1",
					"name": "fields",
					"type": "bytes1"
				},
				{
					"internalType": "string",
					"name": "name",
					"type": "string"
				},
				{
					"internalType": "string",
					"name": "version",
					"type": "string"
				},
				{
					"internalType": "uint256",
					"name": "chainId",
					"type": "uint256"
				},
				{
					"internalType": "address",
					"name": "verifyingContract",
					"type": "address"
				},
				{
					"internalType": "bytes32",
					"name": "salt",
					"type": "bytes32"
				},
				{
					"internalType": "uint256[]",
					"name": "extensions",
					"type": "uint256[]"
				}
			],
			"stateMutability": "view",
			"type": "function"
		},
		{
			"inputs": [
				{
					"internalType": "address",
					"name": "to",
					"type": "address"
				},
				{
					"internalType": "uint256",
					"name": "amount",
					"type": "uint256"
				}
			],
			"name": "mint",
			"outputs": [],
			"stateMutability": "nonpayable",
			"type": "function"
		},
		{
			"inputs": [],
			"name": "name",
			"outputs": [
				{
					"internalType": "string",
					"name": "",
					"type": "string"
				}
			],
			"stateMutability": "view",
			"type": "function"
		},
		{
			"inputs": [
				{
					"internalType": "address",
					"name": "owner",
					"type": "address"
				}
			],
			"name": "nonces",
			"outputs": [
				{
					"internalType": "uint256",
					"name": "",
					"type": "uint256"
				}
			],
			"stateMutability": "view",
			"type": "function"
		},
		{
			"inputs": [],
			"name": "owner",
			"outputs": [
				{
					"internalType": "address",
					"name": "",
					"type": "address"
				}
			],
			"stateMutability": "view",
			"type": "function"
		},
		{
			"inputs": [],
			"name": "pause",
			"outputs": [],
			"stateMutability": "nonpayable",
			"type": "function"
		},
		{
			"inputs": [],
			"name": "paused",
			"outputs": [
				{
					"internalType": "bool",
					"name": "",
					"type": "bool"
				}
			],
			"stateMutability": "view",
			"type": "function"
		},
		{
			"inputs": [
				{
					"internalType": "address",
					"name": "owner",
					"type": "address"
				},
				{
					"internalType": "address",
					"name": "spender",
					"type": "address"
				},
				{
					"internalType": "uint256",
					"name": "value",
					"type": "uint256"
				},
				{
					"internalType": "uint256",
					"name": "deadline",
					"type": "uint256"
				},
				{
					"internalType": "uint8",
					"name": "v",
					"type": "uint8"
				},
				{
					"internalType": "bytes32",
					"name": "r",
					"type": "bytes32"
				},
				{
					"internalType": "bytes32",
					"name": "s",
					"type": "bytes32"
				}
			],
			"name": "permit",
			"outputs": [],
			"stateMutability": "nonpayable",
			"type": "function"
		},
		{
			"inputs": [],
			"name": "renounceOwnership",
			"outputs": [],
			"stateMutability": "nonpayable",
			"type": "function"
		},
		{
			"inputs": [],
			"name": "symbol",
			"outputs": [
				{
					"internalType": "string",
					"name": "",
					"type": "string"
				}
			],
			"stateMutability": "view",
			"type": "function"
		},
		{
			"inputs": [],
			"name": "totalSupply",
			"outputs": [
				{
					"internalType": "uint256",
					"name": "",
					"type": "uint256"
				}
			],
			"stateMutability": "view",
			"type": "function"
		},
		{
			"inputs": [
				{
					"internalType": "address",
					"name": "to",
					"type": "address"
				},
				{
					"internalType": "uint256",
					"name": "value",
					"type": "uint256"
				}
			],
			"name": "transfer",
			"outputs": [
				{
					"internalType": "bool",
					"name": "",
					"type": "bool"
				}
			],
			"stateMutability": "nonpayable",
			"type": "function"
		},
		{
			"inputs": [
				{
					"internalType": "address",
					"name": "from",
					"type": "address"
				},
				{
					"internalType": "address",
					"name": "to",
					"type": "address"
				},
				{
					"internalType": "uint256",
					"name": "value",
					"type": "uint256"
				}
			],
			"name": "transferFrom",
			"outputs": [
				{
					"internalType": "bool",
					"name": "",
					"type": "bool"
				}
			],
			"stateMutability": "nonpayable",
			"type": "function"
		},
		{
			"inputs": [
				{
					"internalType": "address",
					"name": "newOwner",
					"type": "address"
				}
			],
			"name": "transferOwnership",
			"outputs": [],
			"stateMutability": "nonpayable",
			"type": "function"
		},
		{
			"inputs": [],
			"name": "unpause",
			"outputs": [],
			"stateMutability": "nonpayable",
			"type": "function"
		}
	]
}