{
	"data": {
		"bytecode": {
			"linkReferences": {},
			"object": "60806040526103e8600b5f6101000a8154816bffffffffffffffffffffffff02191690836bffffffffffffffffffffffff160217905550348015610041575f5ffd5b5060405161363b38038061363b833981810160405281019061006391906102e1565b336040518060400160405280600c81526020017f53746f7279626f6f6b4e465400000000000000000000000000000000000000008152506040518060400160405280600581526020017f53424e4654000000000000000000000000000000000000000000000000000000815250815f90816100de9190610549565b5080600190816100ee9190610549565b5050505f73ffffffffffffffffffffffffffffffffffffffff168173ffffffffffffffffffffffffffffffffffffffff1603610161575f6040517f1e4fbdf70000000000000000000000000000000000000000000000000000000081526004016101589190610627565b60405180910390fd5b610170816101c060201b60201c565b50600160098190555080600b600c6101000a81548173ffffffffffffffffffffffffffffffffffffffff021916908373ffffffffffffffffffffffffffffffffffffffff16021790555050610640565b5f60085f9054906101000a900473ffffffffffffffffffffffffffffffffffffffff1690508160085f6101000a81548173ffffffffffffffffffffffffffffffffffffffff021916908373ffffffffffffffffffffffffffffffffffffffff1602179055508173ffffffffffffffffffffffffffffffffffffffff168173ffffffffffffffffffffffffffffffffffffffff167f8be0079c531659141344cd1fd0a4f28419497f9722a3daafe3b4186f6b6457e060405160405180910390a35050565b5f5ffd5b5f73ffffffffffffffffffffffffffffffffffffffff82169050919050565b5f6102b082610287565b9050919050565b6102c0816102a6565b81146102ca575f5ffd5b50565b5f815190506102db816102b7565b92915050565b5f602082840312156102f6576102f5610283565b5b5f610303848285016102cd565b91505092915050565b5f81519050919050565b7f4e487b71000000000000000000000000000000000000000000000000000000005f52604160045260245ffd5b7f4e487b71000000000000000000000000000000000000000000000000000000005f52602260045260245ffd5b5f600282049050600182168061038757607f821691505b60208210810361039a57610399610343565b5b50919050565b5f819050815f5260205f209050919050565b5f6020601f8301049050919050565b5f82821b905092915050565b5f600883026103fc7fffffffffffffffffffffffffffffffffffffffffffffffffffffffffffffffff826103c1565b61040686836103c1565b95508019841693508086168417925050509392505050565b5f819050919050565b5f819050919050565b5f61044a6104456104408461041e565b610427565b61041e565b9050919050565b5f819050919050565b61046383610430565b61047761046f82610451565b8484546103cd565b825550505050565b5f5f905090565b61048e61047f565b61049981848461045a565b505050565b5b818110156104bc576104b15f82610486565b60018101905061049f565b5050565b601f821115610501576104d2816103a0565b6104db846103b2565b810160208510156104ea578190505b6104fe6104f6856103b2565b83018261049e565b50505b505050565b5f82821c905092915050565b5f6105215f1984600802610506565b1980831691505092915050565b5f6105398383610512565b9150826002028217905092915050565b6105528261030c565b67ffffffffffffffff81111561056b5761056a610316565b5b6105758254610370565b6105808282856104c0565b5f60209050601f8311600181146105b1575f841561059f578287015190505b6105a9858261052e565b865550610610565b601f1984166105bf866103a0565b5f5b828110156105e6578489015182556001820191506020850194506020810190506105c1565b8683101561060357848901516105ff601f891682610512565b8355505b6001600288020188555050505b505050505050565b610621816102a6565b82525050565b5f60208201905061063a5f830184610618565b92915050565b612fee8061064d5f395ff3fe608060405234801561000f575f5ffd5b5060043610610171575f3560e01c80636352211e116100dc578063a22cb46511610095578063d06f509e1161006f578063d06f509e14610458578063e985e9c514610488578063ecaba784146104b8578063f2fde38b146104e857610171565b8063a22cb465146103f0578063b88d4fde1461040c578063c87b56dd1461042857610171565b80636352211e1461032e57806370a082311461035e578063715018a61461038e5780638da5cb5b146103985780638f2fc60b146103b657806395d89b41146103d257610171565b80632a55205a1161012e5780632a55205a1461025b5780632ae2b7291461028c578063391feebb146102a857806342842e0e146102d857806353d6fd59146102f45780635c975abb1461031057610171565b806301ffc9a71461017557806306fdde03146101a5578063081812fc146101c3578063095ea7b3146101f35780631eafe1951461020f57806323b872dd1461023f575b5f5ffd5b61018f600480360381019061018a91906121f0565b610504565b60405161019c9190612235565b60405180910390f35b6101ad61057d565b6040516101ba91906122be565b60405180910390f35b6101dd60048036038101906101d89190612311565b61060c565b6040516101ea919061237b565b60405180910390f35b61020d600480360381019061020891906123be565b610627565b005b61022960048036038101906102249190612311565b61063d565b604051610236919061240b565b60405180910390f35b61025960048036038101906102549190612424565b610652565b005b61027560048036038101906102709190612474565b610751565b6040516102839291906124b2565b60405180910390f35b6102a660048036038101906102a19190612474565b6107c1565b005b6102c260048036038101906102bd91906124d9565b610899565b6040516102cf9190612235565b60405180910390f35b6102f260048036038101906102ed9190612424565b6108b6565b005b61030e6004803603810190610309919061252e565b6108d5565b005b610318610983565b6040516103259190612235565b60405180910390f35b61034860048036038101906103439190612311565b610998565b604051610355919061237b565b60405180910390f35b610378600480360381019061037391906124d9565b6109a9565b604051610385919061240b565b60405180910390f35b610396610a5f565b005b6103a0610a72565b6040516103ad919061237b565b60405180910390f35b6103d060048036038101906103cb91906125ad565b610a9a565b005b6103da610b65565b6040516103e791906122be565b60405180910390f35b61040a6004803603810190610405919061252e565b610bf5565b005b61042660048036038101906104219190612717565b610c0b565b005b610442600480360381019061043d9190612311565b610c30565b60405161044f91906122be565b60405180910390f35b610472600480360381019061046d9190612835565b610c42565b60405161047f919061240b565b60405180910390f35b6104a2600480360381019061049d91906128a1565b610dfc565b6040516104af9190612235565b60405180910390f35b6104d260048036038101906104cd9190612311565b610e8a565b6040516104df919061240b565b60405180910390f35b61050260048036038101906104fd91906124d9565b610ea4565b005b5f7f2a55205a000000000000000000000000000000000000000000000000000000007bffffffffffffffffffffffffffffffffffffffffffffffffffffffff1916827bffffffffffffffffffffffffffffffffffffffffffffffffffffffff19161480610576575061057582610f28565b5b9050919050565b60605f805461058b9061290c565b80601f01602080910402602001604051908101604052809291908181526020018280546105b79061290c565b80156106025780601f106105d957610100808354040283529160200191610602565b820191905f5260205f20905b8154815290600101906020018083116105e557829003601f168201915b5050505050905090565b5f61061682610f88565b506106208261100e565b9050919050565b6106398282610634611047565b61104e565b5050565b600c602052805f5260405f205f915090505481565b5f73ffffffffffffffffffffffffffffffffffffffff168273ffffffffffffffffffffffffffffffffffffffff16036106c2575f6040517f64a0ae920000000000000000000000000000000000000000000000000000000081526004016106b9919061237b565b60405180910390fd5b5f6106d583836106d0611047565b611060565b90508373ffffffffffffffffffffffffffffffffffffffff168173ffffffffffffffffffffffffffffffffffffffff161461074b578382826040517f64283d7b0000000000000000000000000000000000000000000000000000000081526004016107429392919061293c565b60405180910390fd5b50505050565b5f5f600b600c9054906101000a900473ffffffffffffffffffffffffffffffffffffffff16612710600b5f9054906101000a90046bffffffffffffffffffffffff166bffffffffffffffffffffffff16856107ac919061299e565b6107b69190612a0c565b915091509250929050565b6107c9611075565b6107d16110fc565b5f73ffffffffffffffffffffffffffffffffffffffff166107f18361113d565b73ffffffffffffffffffffffffffffffffffffffff1603610847576040517f08c379a000000000000000000000000000000000000000000000000000000000815260040161083e90612a86565b60405180910390fd5b80600c5f8481526020019081526020015f2081905550817f93bd3c05b374b7a6d7d0e46cb6e543edaa15e26506dbfb7f33c0eafb6713a5c48260405161088d919061240b565b60405180910390a25050565b600d602052805f5260405f205f915054906101000a900460ff1681565b6108d083838360405180602001604052805f815250610c0b565b505050565b6108dd611075565b80600d5f8473ffffffffffffffffffffffffffffffffffffffff1673ffffffffffffffffffffffffffffffffffffffff1681526020019081526020015f205f6101000a81548160ff0219169083151502179055508173ffffffffffffffffffffffffffffffffffffffff167ff93f9a76c1bf3444d22400a00cb9fe990e6abe9dbb333fda48859cfee864543d826040516109779190612235565b60405180910390a25050565b5f60065f9054906101000a900460ff16905090565b5f6109a282610f88565b9050919050565b5f5f73ffffffffffffffffffffffffffffffffffffffff168273ffffffffffffffffffffffffffffffffffffffff1603610a1a575f6040517f89c62b64000000000000000000000000000000000000000000000000000000008152600401610a11919061237b565b60405180910390fd5b60035f8373ffffffffffffffffffffffffffffffffffffffff1673ffffffffffffffffffffffffffffffffffffffff1681526020019081526020015f20549050919050565b610a67611075565b610a705f611176565b565b5f60085f9054906101000a900473ffffffffffffffffffffffffffffffffffffffff16905090565b610aa2611075565b81600b600c6101000a81548173ffffffffffffffffffffffffffffffffffffffff021916908373ffffffffffffffffffffffffffffffffffffffff16021790555080600b5f6101000a8154816bffffffffffffffffffffffff02191690836bffffffffffffffffffffffff1602179055508173ffffffffffffffffffffffffffffffffffffffff167f8039bd6e4e7dba001c8840eb2e118d9d131246faa7d0d04335f7305127ec0b1082604051610b599190612ab3565b60405180910390a25050565b606060018054610b749061290c565b80601f0160208091040260200160405190810160405280929190818152602001828054610ba09061290c565b8015610beb5780601f10610bc257610100808354040283529160200191610beb565b820191905f5260205f20905b815481529060010190602001808311610bce57829003601f168201915b5050505050905090565b610c07610c00611047565b8383611239565b5050565b610c16848484610652565b610c2a610c21611047565b858585856113a2565b50505050565b6060610c3b8261154e565b9050919050565b5f610c4b610a72565b73ffffffffffffffffffffffffffffffffffffffff163373ffffffffffffffffffffffffffffffffffffffff161480610cca5750600d5f3373ffffffffffffffffffffffffffffffffffffffff1673ffffffffffffffffffffffffffffffffffffffff1681526020019081526020015f205f9054906101000a900460ff165b610d09576040517f08c379a0000000000000000000000000000000000000000000000000000000008152600401610d0090612b16565b60405180910390fd5b610d11611659565b610d196110fc565b600a5f815480929190610d2b90612b34565b91905055505f600a549050610d4085826116a8565b610d4a81856116c5565b82600c5f8381526020019081526020015f20819055508473ffffffffffffffffffffffffffffffffffffffff16817f89017cb7d50c2be8c93d0b9f1b2e5252e094c1f429587ac08c2847d97c3be1178686604051610da9929190612b7b565b60405180910390a3807f93bd3c05b374b7a6d7d0e46cb6e543edaa15e26506dbfb7f33c0eafb6713a5c484604051610de1919061240b565b60405180910390a280915050610df561171f565b9392505050565b5f60055f8473ffffffffffffffffffffffffffffffffffffffff1673ffffffffffffffffffffffffffffffffffffffff1681526020019081526020015f205f8373ffffffffffffffffffffffffffffffffffffffff1673ffffffffffffffffffffffffffffffffffffffff1681526020019081526020015f205f9054906101000a900460ff16905092915050565b5f600c5f8381526020019081526020015f20549050919050565b610eac611075565b5f73ffffffffffffffffffffffffffffffffffffffff168173ffffffffffffffffffffffffffffffffffffffff1603610f1c575f6040517f1e4fbdf7000000000000000000000000000000000000000000000000000000008152600401610f13919061237b565b60405180910390fd5b610f2581611176565b50565b5f634906490660e01b7bffffffffffffffffffffffffffffffffffffffffffffffffffffffff1916827bffffffffffffffffffffffffffffffffffffffffffffffffffffffff19161480610f815750610f8082611729565b5b9050919050565b5f5f610f938361113d565b90505f73ffffffffffffffffffffffffffffffffffffffff168173ffffffffffffffffffffffffffffffffffffffff160361100557826040517f7e273289000000000000000000000000000000000000000000000000000000008152600401610ffc919061240b565b60405180910390fd5b80915050919050565b5f60045f8381526020019081526020015f205f9054906101000a900473ffffffffffffffffffffffffffffffffffffffff169050919050565b5f33905090565b61105b838383600161180a565b505050565b5f61106c8484846119c9565b90509392505050565b61107d611047565b73ffffffffffffffffffffffffffffffffffffffff1661109b610a72565b73ffffffffffffffffffffffffffffffffffffffff16146110fa576110be611047565b6040517f118cdaa70000000000000000000000000000000000000000000000000000000081526004016110f1919061237b565b60405180910390fd5b565b611104610983565b1561113b576040517fd93c066500000000000000000000000000000000000000000000000000000000815260040160405180910390fd5b565b5f60025f8381526020019081526020015f205f9054906101000a900473ffffffffffffffffffffffffffffffffffffffff169050919050565b5f60085f9054906101000a900473ffffffffffffffffffffffffffffffffffffffff1690508160085f6101000a81548173ffffffffffffffffffffffffffffffffffffffff021916908373ffffffffffffffffffffffffffffffffffffffff1602179055508173ffffffffffffffffffffffffffffffffffffffff168173ffffffffffffffffffffffffffffffffffffffff167f8be0079c531659141344cd1fd0a4f28419497f9722a3daafe3b4186f6b6457e060405160405180910390a35050565b5f73ffffffffffffffffffffffffffffffffffffffff168273ffffffffffffffffffffffffffffffffffffffff16036112a957816040517f5b08ba180000000000000000000000000000000000000000000000000000000081526004016112a0919061237b565b60405180910390fd5b8060055f8573ffffffffffffffffffffffffffffffffffffffff1673ffffffffffffffffffffffffffffffffffffffff1681526020019081526020015f205f8473ffffffffffffffffffffffffffffffffffffffff1673ffffffffffffffffffffffffffffffffffffffff1681526020019081526020015f205f6101000a81548160ff0219169083151502179055508173ffffffffffffffffffffffffffffffffffffffff168373ffffffffffffffffffffffffffffffffffffffff167f17307eab39ab6107e8899845ad3d59bd9653f200f220920489ca2b5937696c31836040516113959190612235565b60405180910390a3505050565b5f8373ffffffffffffffffffffffffffffffffffffffff163b1115611547578273ffffffffffffffffffffffffffffffffffffffff1663150b7a02868685856040518563ffffffff1660e01b81526004016114009493929190612bfb565b6020604051808303815f875af192505050801561143b57506040513d601f19601f820116820180604052508101906114389190612c59565b60015b6114bc573d805f8114611469576040519150601f19603f3d011682016040523d82523d5f602084013e61146e565b606091505b505f8151036114b457836040517f64a0ae920000000000000000000000000000000000000000000000000000000081526004016114ab919061237b565b60405180910390fd5b805160208201fd5b63150b7a0260e01b7bffffffffffffffffffffffffffffffffffffffffffffffffffffffff1916817bffffffffffffffffffffffffffffffffffffffffffffffffffffffff19161461154557836040517f64a0ae9200000000000000000000000000000000000000000000000000000000815260040161153c919061237b565b60405180910390fd5b505b5050505050565b606061155982610f88565b505f60075f8481526020019081526020015f2080546115779061290c565b80601f01602080910402602001604051908101604052809291908181526020018280546115a39061290c565b80156115ee5780601f106115c5576101008083540402835291602001916115ee565b820191905f5260205f20905b8154815290600101906020018083116115d157829003601f168201915b505050505090505f6115fe6119e6565b90505f815103611612578192505050611654565b5f8251111561164657808260405160200161162e929190612cbe565b60405160208183030381529060405292505050611654565b61164f846119fc565b925050505b919050565b60026009540361169e576040517f08c379a000000000000000000000000000000000000000000000000000000000815260040161169590612d2b565b60405180910390fd5b6002600981905550565b6116c1828260405180602001604052805f815250611a62565b5050565b8060075f8481526020019081526020015f2090816116e39190612ee9565b507ff8e1a15aba9398e019f0b49df1a4fde98ee17ae345cb5f6b5e2c27f5033e8ce782604051611713919061240b565b60405180910390a15050565b6001600981905550565b5f7f80ac58cd000000000000000000000000000000000000000000000000000000007bffffffffffffffffffffffffffffffffffffffffffffffffffffffff1916827bffffffffffffffffffffffffffffffffffffffffffffffffffffffff191614806117f357507f5b5e139f000000000000000000000000000000000000000000000000000000007bffffffffffffffffffffffffffffffffffffffffffffffffffffffff1916827bffffffffffffffffffffffffffffffffffffffffffffffffffffffff1916145b80611803575061180282611a85565b5b9050919050565b808061184257505f73ffffffffffffffffffffffffffffffffffffffff168273ffffffffffffffffffffffffffffffffffffffff1614155b15611974575f61185184610f88565b90505f73ffffffffffffffffffffffffffffffffffffffff168373ffffffffffffffffffffffffffffffffffffffff16141580156118bb57508273ffffffffffffffffffffffffffffffffffffffff168173ffffffffffffffffffffffffffffffffffffffff1614155b80156118ce57506118cc8184610dfc565b155b1561191057826040517fa9fbf51f000000000000000000000000000000000000000000000000000000008152600401611907919061237b565b60405180910390fd5b811561197257838573ffffffffffffffffffffffffffffffffffffffff168273ffffffffffffffffffffffffffffffffffffffff167f8c5be1e5ebec7d5bd14f71427d1e84f3dd0314c0f7b2291e5b200ac8c7c3b92560405160405180910390a45b505b8360045f8581526020019081526020015f205f6101000a81548173ffffffffffffffffffffffffffffffffffffffff021916908373ffffffffffffffffffffffffffffffffffffffff16021790555050505050565b5f6119d26110fc565b6119dd848484611aee565b90509392505050565b606060405180602001604052805f815250905090565b6060611a0782610f88565b505f611a116119e6565b90505f815111611a2f5760405180602001604052805f815250611a5a565b80611a3984611cf9565b604051602001611a4a929190612cbe565b6040516020818303038152906040525b915050919050565b611a6c8383611dc3565b611a80611a77611047565b5f8585856113a2565b505050565b5f7f01ffc9a7000000000000000000000000000000000000000000000000000000007bffffffffffffffffffffffffffffffffffffffffffffffffffffffff1916827bffffffffffffffffffffffffffffffffffffffffffffffffffffffff1916149050919050565b5f5f611af98461113d565b90505f73ffffffffffffffffffffffffffffffffffffffff168373ffffffffffffffffffffffffffffffffffffffff1614611b3a57611b39818486611eb6565b5b5f73ffffffffffffffffffffffffffffffffffffffff168173ffffffffffffffffffffffffffffffffffffffff1614611bc557611b795f855f5f61180a565b600160035f8373ffffffffffffffffffffffffffffffffffffffff1673ffffffffffffffffffffffffffffffffffffffff1681526020019081526020015f205f82825403925050819055505b5f73ffffffffffffffffffffffffffffffffffffffff168573ffffffffffffffffffffffffffffffffffffffff1614611c4457600160035f8773ffffffffffffffffffffffffffffffffffffffff1673ffffffffffffffffffffffffffffffffffffffff1681526020019081526020015f205f82825401925050819055505b8460025f8681526020019081526020015f205f6101000a81548173ffffffffffffffffffffffffffffffffffffffff021916908373ffffffffffffffffffffffffffffffffffffffff160217905550838573ffffffffffffffffffffffffffffffffffffffff168273ffffffffffffffffffffffffffffffffffffffff167fddf252ad1be2c89b69c2b068fc378daa952ba7f163c4a11628f55a4df523b3ef60405160405180910390a4809150509392505050565b60605f6001611d0784611f79565b0190505f8167ffffffffffffffff811115611d2557611d246125f3565b5b6040519080825280601f01601f191660200182016040528015611d575781602001600182028036833780820191505090505b5090505f82602083010190505b600115611db8578080600190039150507f3031323334353637383961626364656600000000000000000000000000000000600a86061a8153600a8581611dad57611dac6129df565b5b0494505f8503611d64575b819350505050919050565b5f73ffffffffffffffffffffffffffffffffffffffff168273ffffffffffffffffffffffffffffffffffffffff1603611e33575f6040517f64a0ae92000000000000000000000000000000000000000000000000000000008152600401611e2a919061237b565b60405180910390fd5b5f611e3f83835f611060565b90505f73ffffffffffffffffffffffffffffffffffffffff168173ffffffffffffffffffffffffffffffffffffffff1614611eb1575f6040517f73c6ac6e000000000000000000000000000000000000000000000000000000008152600401611ea8919061237b565b60405180910390fd5b505050565b611ec18383836120ca565b611f74575f73ffffffffffffffffffffffffffffffffffffffff168373ffffffffffffffffffffffffffffffffffffffff1603611f3557806040517f7e273289000000000000000000000000000000000000000000000000000000008152600401611f2c919061240b565b60405180910390fd5b81816040517f177e802f000000000000000000000000000000000000000000000000000000008152600401611f6b9291906124b2565b60405180910390fd5b505050565b5f5f5f90507a184f03e93ff9f4daa797ed6e38ed64bf6a1f0100000000000000008310611fd5577a184f03e93ff9f4daa797ed6e38ed64bf6a1f0100000000000000008381611fcb57611fca6129df565b5b0492506040810190505b6d04ee2d6d415b85acef81000000008310612012576d04ee2d6d415b85acef81000000008381612008576120076129df565b5b0492506020810190505b662386f26fc10000831061204157662386f26fc100008381612037576120366129df565b5b0492506010810190505b6305f5e100831061206a576305f5e10083816120605761205f6129df565b5b0492506008810190505b612710831061208f576127108381612085576120846129df565b5b0492506004810190505b606483106120b257606483816120a8576120a76129df565b5b0492506002810190505b600a83106120c1576001810190505b80915050919050565b5f5f73ffffffffffffffffffffffffffffffffffffffff168373ffffffffffffffffffffffffffffffffffffffff161415801561218157508273ffffffffffffffffffffffffffffffffffffffff168473ffffffffffffffffffffffffffffffffffffffff16148061214257506121418484610dfc565b5b8061218057508273ffffffffffffffffffffffffffffffffffffffff166121688361100e565b73ffffffffffffffffffffffffffffffffffffffff16145b5b90509392505050565b5f604051905090565b5f5ffd5b5f5ffd5b5f7fffffffff0000000000000000000000000000000000000000000000000000000082169050919050565b6121cf8161219b565b81146121d9575f5ffd5b50565b5f813590506121ea816121c6565b92915050565b5f6020828403121561220557612204612193565b5b5f612212848285016121dc565b91505092915050565b5f8115159050919050565b61222f8161221b565b82525050565b5f6020820190506122485f830184612226565b92915050565b5f81519050919050565b5f82825260208201905092915050565b8281835e5f83830152505050565b5f601f19601f8301169050919050565b5f6122908261224e565b61229a8185612258565b93506122aa818560208601612268565b6122b381612276565b840191505092915050565b5f6020820190508181035f8301526122d68184612286565b905092915050565b5f819050919050565b6122f0816122de565b81146122fa575f5ffd5b50565b5f8135905061230b816122e7565b92915050565b5f6020828403121561232657612325612193565b5b5f612333848285016122fd565b91505092915050565b5f73ffffffffffffffffffffffffffffffffffffffff82169050919050565b5f6123658261233c565b9050919050565b6123758161235b565b82525050565b5f60208201905061238e5f83018461236c565b92915050565b61239d8161235b565b81146123a7575f5ffd5b50565b5f813590506123b881612394565b92915050565b5f5f604083850312156123d4576123d3612193565b5b5f6123e1858286016123aa565b92505060206123f2858286016122fd565b9150509250929050565b612405816122de565b82525050565b5f60208201905061241e5f8301846123fc565b92915050565b5f5f5f6060848603121561243b5761243a612193565b5b5f612448868287016123aa565b9350506020612459868287016123aa565b925050604061246a868287016122fd565b9150509250925092565b5f5f6040838503121561248a57612489612193565b5b5f612497858286016122fd565b92505060206124a8858286016122fd565b9150509250929050565b5f6040820190506124c55f83018561236c565b6124d260208301846123fc565b9392505050565b5f602082840312156124ee576124ed612193565b5b5f6124fb848285016123aa565b91505092915050565b61250d8161221b565b8114612517575f5ffd5b50565b5f8135905061252881612504565b92915050565b5f5f6040838503121561254457612543612193565b5b5f612551858286016123aa565b92505060206125628582860161251a565b9150509250929050565b5f6bffffffffffffffffffffffff82169050919050565b61258c8161256c565b8114612596575f5ffd5b50565b5f813590506125a781612583565b92915050565b5f5f604083850312156125c3576125c2612193565b5b5f6125d0858286016123aa565b92505060206125e185828601612599565b9150509250929050565b5f5ffd5b5f5ffd5b7f4e487b71000000000000000000000000000000000000000000000000000000005f52604160045260245ffd5b61262982612276565b810181811067ffffffffffffffff82111715612648576126476125f3565b5b80604052505050565b5f61265a61218a565b90506126668282612620565b919050565b5f67ffffffffffffffff821115612685576126846125f3565b5b61268e82612276565b9050602081019050919050565b828183375f83830152505050565b5f6126bb6126b68461266b565b612651565b9050828152602081018484840111156126d7576126d66125ef565b5b6126e284828561269b565b509392505050565b5f82601f8301126126fe576126fd6125eb565b5b813561270e8482602086016126a9565b91505092915050565b5f5f5f5f6080858703121561272f5761272e612193565b5b5f61273c878288016123aa565b945050602061274d878288016123aa565b935050604061275e878288016122fd565b925050606085013567ffffffffffffffff81111561277f5761277e612197565b5b61278b878288016126ea565b91505092959194509250565b5f67ffffffffffffffff8211156127b1576127b06125f3565b5b6127ba82612276565b9050602081019050919050565b5f6127d96127d484612797565b612651565b9050828152602081018484840111156127f5576127f46125ef565b5b61280084828561269b565b509392505050565b5f82601f83011261281c5761281b6125eb565b5b813561282c8482602086016127c7565b91505092915050565b5f5f5f6060848603121561284c5761284b612193565b5b5f612859868287016123aa565b935050602084013567ffffffffffffffff81111561287a57612879612197565b5b61288686828701612808565b9250506040612897868287016122fd565b9150509250925092565b5f5f604083850312156128b7576128b6612193565b5b5f6128c4858286016123aa565b92505060206128d5858286016123aa565b9150509250929050565b7f4e487b71000000000000000000000000000000000000000000000000000000005f52602260045260245ffd5b5f600282049050600182168061292357607f821691505b602082108103612936576129356128df565b5b50919050565b5f60608201905061294f5f83018661236c565b61295c60208301856123fc565b612969604083018461236c565b949350505050565b7f4e487b71000000000000000000000000000000000000000000000000000000005f52601160045260245ffd5b5f6129a8826122de565b91506129b3836122de565b92508282026129c1816122de565b915082820484148315176129d8576129d7612971565b5b5092915050565b7f4e487b71000000000000000000000000000000000000000000000000000000005f52601260045260245ffd5b5f612a16826122de565b9150612a21836122de565b925082612a3157612a306129df565b5b828204905092915050565b7f546f6b656e20646f6573206e6f742065786973740000000000000000000000005f82015250565b5f612a70601483612258565b9150612a7b82612a3c565b602082019050919050565b5f6020820190508181035f830152612a9d81612a64565b9050919050565b612aad8161256c565b82525050565b5f602082019050612ac65f830184612aa4565b92915050565b7f4e6f7420617574686f72697a656420746f206d696e74000000000000000000005f82015250565b5f612b00601683612258565b9150612b0b82612acc565b602082019050919050565b5f6020820190508181035f830152612b2d81612af4565b9050919050565b5f612b3e826122de565b91507fffffffffffffffffffffffffffffffffffffffffffffffffffffffffffffffff8203612b7057612b6f612971565b5b600182019050919050565b5f6040820190508181035f830152612b938185612286565b9050612ba260208301846123fc565b9392505050565b5f81519050919050565b5f82825260208201905092915050565b5f612bcd82612ba9565b612bd78185612bb3565b9350612be7818560208601612268565b612bf081612276565b840191505092915050565b5f608082019050612c0e5f83018761236c565b612c1b602083018661236c565b612c2860408301856123fc565b8181036060830152612c3a8184612bc3565b905095945050505050565b5f81519050612c53816121c6565b92915050565b5f60208284031215612c6e57612c6d612193565b5b5f612c7b84828501612c45565b91505092915050565b5f81905092915050565b5f612c988261224e565b612ca28185612c84565b9350612cb2818560208601612268565b80840191505092915050565b5f612cc98285612c8e565b9150612cd58284612c8e565b91508190509392505050565b7f5265656e7472616e637947756172643a207265656e7472616e742063616c6c005f82015250565b5f612d15601f83612258565b9150612d2082612ce1565b602082019050919050565b5f6020820190508181035f830152612d4281612d09565b9050919050565b5f819050815f5260205f209050919050565b5f6020601f8301049050919050565b5f82821b905092915050565b5f60088302612da57fffffffffffffffffffffffffffffffffffffffffffffffffffffffffffffffff82612d6a565b612daf8683612d6a565b95508019841693508086168417925050509392505050565b5f819050919050565b5f612dea612de5612de0846122de565b612dc7565b6122de565b9050919050565b5f819050919050565b612e0383612dd0565b612e17612e0f82612df1565b848454612d76565b825550505050565b5f5f905090565b612e2e612e1f565b612e39818484612dfa565b505050565b5b81811015612e5c57612e515f82612e26565b600181019050612e3f565b5050565b601f821115612ea157612e7281612d49565b612e7b84612d5b565b81016020851015612e8a578190505b612e9e612e9685612d5b565b830182612e3e565b50505b505050565b5f82821c905092915050565b5f612ec15f1984600802612ea6565b1980831691505092915050565b5f612ed98383612eb2565b9150826002028217905092915050565b612ef28261224e565b67ffffffffffffffff811115612f0b57612f0a6125f3565b5b612f15825461290c565b612f20828285612e60565b5f60209050601f831160018114612f51575f8415612f3f578287015190505b612f498582612ece565b865550612fb0565b601f198416612f5f86612d49565b5f5b82811015612f8657848901518255600182019150602085019450602081019050612f61565b86831015612fa35784890151612f9f601f891682612eb2565b8355505b6001600288020188555050505b50505050505056fea2646970667358221220ca5dc9b0982c78f3863623b0dad8e7d45096bfd8282fe2bccceceb9014eec35e64736f6c634300081e0033",
			"opcodes": "PUSH1 0x80 PUSH1 0x40 MSTORE PUSH2 0x3E8 PUSH1 0xB PUSH0 PUSH2 0x100 EXP DUP2 SLOAD DUP2 PUSH12 0xFFFFFFFFFFFFFFFFFFFFFFFF MUL NOT AND SWAP1 DUP4 PUSH12 0xFFFFFFFFFFFFFFFFFFFFFFFF AND MUL OR SWAP1 SSTORE POP CALLVALUE DUP1 ISZERO PUSH2 0x41 JUMPI PUSH0 PUSH0 REVERT JUMPDEST POP PUSH1 0x40 MLOAD PUSH2 0x363B CODESIZE SUB DUP1 PUSH2 0x363B DUP4 CODECOPY DUP2 DUP2 ADD PUSH1 0x40 MSTORE DUP2 ADD SWAP1 PUSH2 0x63 SWAP2 SWAP1 PUSH2 0x2E1 JUMP JUMPDEST CALLER PUSH1 0x40 MLOAD DUP1 PUSH1 0x40 ADD PUSH1 0x40 MSTORE DUP1 PUSH1 0xC DUP2 MSTORE PUSH1 0x20 ADD PUSH32 0x53746F7279626F6F6B4E46540000000000000000000000000000000000000000 DUP2 MSTORE POP PUSH1 0x40 MLOAD DUP1 PUSH1 0x40 ADD PUSH1 0x40 MSTORE DUP1 PUSH1 0x5 DUP2 MSTORE PUSH1 0x20 ADD PUSH32 0x53424E4654000000000000000000000000000000000000000000000000000000 DUP2 MSTORE POP DUP2 PUSH0 SWAP1 DUP2 PUSH2 0xDE SWAP2 SWAP1 PUSH2 0x549 JUMP JUMPDEST POP DUP1 PUSH1 0x1 SWAP1 DUP2 PUSH2 0xEE SWAP2 SWAP1 PUSH2 0x549 JUMP JUMPDEST POP POP POP PUSH0 PUSH20 0xFFFFFFFFFFFFFFFFFFFFFFFFFFFFFFFFFFFFFFFF AND DUP2 PUSH20 0xFFFFFFFFFFFFFFFFFFFFFFFFFFFFFFFFFFFFFFFF AND SUB PUSH2 0x161 JUMPI PUSH0 PUSH1 0x40 MLOAD PUSH32 0x1E4FBDF700000000000000000000000000000000000000000000000000000000 DUP2 MSTORE PUSH1 0x4 ADD PUSH2 0x158 SWAP2 SWAP1 PUSH2 0x627 JUMP JUMPDEST PUSH1 0x40 MLOAD DUP1 SWAP2 SUB SWAP1 REVERT JUMPDEST PUSH2 0x170 DUP2 PUSH2 0x1C0 PUSH1 0x20 SHL PUSH1 0x20 SHR JUMP JUMPDEST POP PUSH1 0x1 PUSH1 0x9 DUP2 SWAP1 SSTORE POP DUP1 PUSH1 0xB PUSH1 0xC PUSH2 0x100 EXP DUP2 SLOAD DUP2 PUSH20 0xFFFFFFFFFFFFFFFFFFFFFFFFFFFFFFFFFFFFFFFF MUL NOT AND SWAP1 DUP4 PUSH20 0xFFFFFFFFFFFFFFFFFFFFFFFFFFFFFFFFFFFFFFFF AND MUL OR SWAP1 SSTORE POP POP PUSH2 0x640 JUMP JUMPDEST PUSH0 PUSH1 0x8 PUSH0 SWAP1 SLOAD SWAP1 PUSH2 0x100 EXP SWAP1 DIV PUSH20 0xFFFFFFFFFFFFFFFFFFFFFFFFFFFFFFFFFFFFFFFF AND SWAP1 POP DUP2 PUSH1 0x8 PUSH0 PUSH2 0x100 EXP DUP2 SLOAD DUP2 PUSH20 0xFFFFFFFFFFFFFFFFFFFFFFFFFFFFFFFFFFFFFFFF MUL NOT AND SWAP1 DUP4 PUSH20 0xFFFFFFFFFFFFFFFFFFFFFFFFFFFFFFFFFFFFFFFF AND MUL OR SWAP1 SSTORE POP DUP2 PUSH20 0xFFFFFFFFFFFFFFFFFFFFFFFFFFFFFFFFFFFFFFFF AND DUP2 PUSH20 0xFFFFFFFFFFFFFFFFFFFFFFFFFFFFFFFFFFFFFFFF AND PUSH32 0x8BE0079C531659141344CD1FD0A4F28419497F9722A3DAAFE3B4186F6B6457E0 PUSH1 0x40 MLOAD PUSH1 0x40 MLOAD DUP1 SWAP2 SUB SWAP1 LOG3 POP POP JUMP JUMPDEST PUSH0 PUSH0 REVERT JUMPDEST PUSH0 PUSH20 0xFFFFFFFFFFFFFFFFFFFFFFFFFFFFFFFFFFFFFFFF DUP3 AND SWAP1 POP SWAP2 SWAP1 POP JUMP JUMPDEST PUSH0 PUSH2 0x2B0 DUP3 PUSH2 0x287 JUMP JUMPDEST SWAP1 POP SWAP2 SWAP1 POP JUMP JUMPDEST PUSH2 0x2C0 DUP2 PUSH2 0x2A6 JUMP JUMPDEST DUP2 EQ PUSH2 0x2CA JUMPI PUSH0 PUSH0 REVERT JUMPDEST POP JUMP JUMPDEST PUSH0 DUP2 MLOAD SWAP1 POP PUSH2 0x2DB DUP2 PUSH2 0x2B7 JUMP JUMPDEST SWAP3 SWAP2 POP POP JUMP JUMPDEST PUSH0 PUSH1 0x20 DUP3 DUP5 SUB SLT ISZERO PUSH2 0x2F6 JUMPI PUSH2 0x2F5 PUSH2 0x283 JUMP JUMPDEST JUMPDEST PUSH0 PUSH2 0x303 DUP5 DUP3 DUP6 ADD PUSH2 0x2CD JUMP JUMPDEST SWAP2 POP POP SWAP3 SWAP2 POP POP JUMP JUMPDEST PUSH0 DUP2 MLOAD SWAP1 POP SWAP2 SWAP1 POP JUMP JUMPDEST PUSH32 0x4E487B7100000000000000000000000000000000000000000000000000000000 PUSH0 MSTORE PUSH1 0x41 PUSH1 0x4 MSTORE PUSH1 0x24 PUSH0 REVERT JUMPDEST PUSH32 0x4E487B7100000000000000000000000000000000000000000000000000000000 PUSH0 MSTORE PUSH1 0x22 PUSH1 0x4 MSTORE PUSH1 0x24 PUSH0 REVERT JUMPDEST PUSH0 PUSH1 0x2 DUP3 DIV SWAP1 POP PUSH1 0x1 DUP3 AND DUP1 PUSH2 0x387 JUMPI PUSH1 0x7F DUP3 AND SWAP2 POP JUMPDEST PUSH1 0x20 DUP3 LT DUP2 SUB PUSH2 0x39A JUMPI PUSH2 0x399 PUSH2 0x343 JUMP JUMPDEST JUMPDEST POP SWAP2 SWAP1 POP JUMP JUMPDEST PUSH0 DUP2 SWAP1 POP DUP2 PUSH0 MSTORE PUSH1 0x20 PUSH0 KECCAK256 SWAP1 POP SWAP2 SWAP1 POP JUMP JUMPDEST PUSH0 PUSH1 0x20 PUSH1 0x1F DUP4 ADD DIV SWAP1 POP SWAP2 SWAP1 POP JUMP JUMPDEST PUSH0 DUP3 DUP3 SHL SWAP1 POP SWAP3 SWAP2 POP POP JUMP JUMPDEST PUSH0 PUSH1 0x8 DUP4 MUL PUSH2 0x3FC PUSH32 0xFFFFFFFFFFFFFFFFFFFFFFFFFFFFFFFFFFFFFFFFFFFFFFFFFFFFFFFFFFFFFFFF DUP3 PUSH2 0x3C1 JUMP JUMPDEST PUSH2 0x406 DUP7 DUP4 PUSH2 0x3C1 JUMP JUMPDEST SWAP6 POP DUP1 NOT DUP5 AND SWAP4 POP DUP1 DUP7 AND DUP5 OR SWAP3 POP POP POP SWAP4 SWAP3 POP POP POP JUMP JUMPDEST PUSH0 DUP2 SWAP1 POP SWAP2 SWAP1 POP JUMP JUMPDEST PUSH0 DUP2 SWAP1 POP SWAP2 SWAP1 POP JUMP JUMPDEST PUSH0 PUSH2 0x44A PUSH2 0x445 PUSH2 0x440 DUP5 PUSH2 0x41E JUMP JUMPDEST PUSH2 0x427 JUMP JUMPDEST PUSH2 0x41E JUMP JUMPDEST SWAP1 POP SWAP2 SWAP1 POP JUMP JUMPDEST PUSH0 DUP2 SWAP1 POP SWAP2 SWAP1 POP JUMP JUMPDEST PUSH2 0x463 DUP4 PUSH2 0x430 JUMP JUMPDEST PUSH2 0x477 PUSH2 0x46F DUP3 PUSH2 0x451 JUMP JUMPDEST DUP5 DUP5 SLOAD PUSH2 0x3CD JUMP JUMPDEST DUP3 SSTORE POP POP POP POP JUMP JUMPDEST PUSH0 PUSH0 SWAP1 POP SWAP1 JUMP JUMPDEST PUSH2 0x48E PUSH2 0x47F JUMP JUMPDEST PUSH2 0x499 DUP2 DUP5 DUP5 PUSH2 0x45A JUMP JUMPDEST POP POP POP JUMP JUMPDEST JUMPDEST DUP2 DUP2 LT ISZERO PUSH2 0x4BC JUMPI PUSH2 0x4B1 PUSH0 DUP3 PUSH2 0x486 JUMP JUMPDEST PUSH1 0x1 DUP2 ADD SWAP1 POP PUSH2 0x49F JUMP JUMPDEST POP POP JUMP JUMPDEST PUSH1 0x1F DUP3 GT ISZERO PUSH2 0x501 JUMPI PUSH2 0x4D2 DUP2 PUSH2 0x3A0 JUMP JUMPDEST PUSH2 0x4DB DUP5 PUSH2 0x3B2 JUMP JUMPDEST DUP2 ADD PUSH1 0x20 DUP6 LT ISZERO PUSH2 0x4EA JUMPI DUP2 SWAP1 POP JUMPDEST PUSH2 0x4FE PUSH2 0x4F6 DUP6 PUSH2 0x3B2 JUMP JUMPDEST DUP4 ADD DUP3 PUSH2 0x49E JUMP JUMPDEST POP POP JUMPDEST POP POP POP JUMP JUMPDEST PUSH0 DUP3 DUP3 SHR SWAP1 POP SWAP3 SWAP2 POP POP JUMP JUMPDEST PUSH0 PUSH2 0x521 PUSH0 NOT DUP5 PUSH1 0x8 MUL PUSH2 0x506 JUMP JUMPDEST NOT DUP1 DUP4 AND SWAP2 POP POP SWAP3 SWAP2 POP POP JUMP JUMPDEST PUSH0 PUSH2 0x539 DUP4 DUP4 PUSH2 0x512 JUMP JUMPDEST SWAP2 POP DUP3 PUSH1 0x2 MUL DUP3 OR SWAP1 POP SWAP3 SWAP2 POP POP JUMP JUMPDEST PUSH2 0x552 DUP3 PUSH2 0x30C JUMP JUMPDEST PUSH8 0xFFFFFFFFFFFFFFFF DUP2 GT ISZERO PUSH2 0x56B JUMPI PUSH2 0x56A PUSH2 0x316 JUMP JUMPDEST JUMPDEST PUSH2 0x575 DUP3 SLOAD PUSH2 0x370 JUMP JUMPDEST PUSH2 0x580 DUP3 DUP3 DUP6 PUSH2 0x4C0 JUMP JUMPDEST PUSH0 PUSH1 0x20 SWAP1 POP PUSH1 0x1F DUP4 GT PUSH1 0x1 DUP2 EQ PUSH2 0x5B1 JUMPI PUSH0 DUP5 ISZERO PUSH2 0x59F JUMPI DUP3 DUP8 ADD MLOAD SWAP1 POP JUMPDEST PUSH2 0x5A9 DUP6 DUP3 PUSH2 0x52E JUMP JUMPDEST DUP7 SSTORE POP PUSH2 0x610 JUMP JUMPDEST PUSH1 0x1F NOT DUP5 AND PUSH2 0x5BF DUP7 PUSH2 0x3A0 JUMP JUMPDEST PUSH0 JUMPDEST DUP3 DUP2 LT ISZERO PUSH2 0x5E6 JUMPI DUP5 DUP10 ADD MLOAD DUP3 SSTORE PUSH1 0x1 DUP3 ADD SWAP2 POP PUSH1 0x20 DUP6 ADD SWAP5 POP PUSH1 0x20 DUP2 ADD SWAP1 POP PUSH2 0x5C1 JUMP JUMPDEST DUP7 DUP4 LT ISZERO PUSH2 0x603 JUMPI DUP5 DUP10 ADD MLOAD PUSH2 0x5FF PUSH1 0x1F DUP10 AND DUP3 PUSH2 0x512 JUMP JUMPDEST DUP4 SSTORE POP JUMPDEST PUSH1 0x1 PUSH1 0x2 DUP9 MUL ADD DUP9 SSTORE POP POP POP JUMPDEST POP POP POP POP POP POP JUMP JUMPDEST PUSH2 0x621 DUP2 PUSH2 0x2A6 JUMP JUMPDEST DUP3 MSTORE POP POP JUMP JUMPDEST PUSH0 PUSH1 0x20 DUP3 ADD SWAP1 POP PUSH2 0x63A PUSH0 DUP4 ADD DUP5 PUSH2 0x618 JUMP JUMPDEST SWAP3 SWAP2 POP POP JUMP JUMPDEST PUSH2 0x2FEE DUP1 PUSH2 0x64D PUSH0 CODECOPY PUSH0 RETURN INVALID PUSH1 0x80 PUSH1 0x40 MSTORE CALLVALUE DUP1 ISZERO PUSH2 0xF JUMPI PUSH0 PUSH0 REVERT JUMPDEST POP PUSH1 0x4 CALLDATASIZE LT PUSH2 0x171 JUMPI PUSH0 CALLDATALOAD PUSH1 0xE0 SHR DUP1 PUSH4 0x6352211E GT PUSH2 0xDC JUMPI DUP1 PUSH4 0xA22CB465 GT PUSH2 0x95 JUMPI DUP1 PUSH4 0xD06F509E GT PUSH2 0x6F JUMPI DUP1 PUSH4 0xD06F509E EQ PUSH2 0x458 JUMPI DUP1 PUSH4 0xE985E9C5 EQ PUSH2 0x488 JUMPI DUP1 PUSH4 0xECABA784 EQ PUSH2 0x4B8 JUMPI DUP1 PUSH4 0xF2FDE38B EQ PUSH2 0x4E8 JUMPI PUSH2 0x171 JUMP JUMPDEST DUP1 PUSH4 0xA22CB465 EQ PUSH2 0x3F0 JUMPI DUP1 PUSH4 0xB88D4FDE EQ PUSH2 0x40C JUMPI DUP1 PUSH4 0xC87B56DD EQ PUSH2 0x428 JUMPI PUSH2 0x171 JUMP JUMPDEST DUP1 PUSH4 0x6352211E EQ PUSH2 0x32E JUMPI DUP1 PUSH4 0x70A08231 EQ PUSH2 0x35E JUMPI DUP1 PUSH4 0x715018A6 EQ PUSH2 0x38E JUMPI DUP1 PUSH4 0x8DA5CB5B EQ PUSH2 0x398 JUMPI DUP1 PUSH4 0x8F2FC60B EQ PUSH2 0x3B6 JUMPI DUP1 PUSH4 0x95D89B41 EQ PUSH2 0x3D2 JUMPI PUSH2 0x171 JUMP JUMPDEST DUP1 PUSH4 0x2A55205A GT PUSH2 0x12E JUMPI DUP1 PUSH4 0x2A55205A EQ PUSH2 0x25B JUMPI DUP1 PUSH4 0x2AE2B729 EQ PUSH2 0x28C JUMPI DUP1 PUSH4 0x391FEEBB EQ PUSH2 0x2A8 JUMPI DUP1 PUSH4 0x42842E0E EQ PUSH2 0x2D8 JUMPI DUP1 PUSH4 0x53D6FD59 EQ PUSH2 0x2F4 JUMPI DUP1 PUSH4 0x5C975ABB EQ PUSH2 0x310 JUMPI PUSH2 0x171 JUMP JUMPDEST DUP1 PUSH4 0x1FFC9A7 EQ PUSH2 0x175 JUMPI DUP1 PUSH4 0x6FDDE03 EQ PUSH2 0x1A5 JUMPI DUP1 PUSH4 0x81812FC EQ PUSH2 0x1C3 JUMPI DUP1 PUSH4 0x95EA7B3 EQ PUSH2 0x1F3 JUMPI DUP1 PUSH4 0x1EAFE195 EQ PUSH2 0x20F JUMPI DUP1 PUSH4 0x23B872DD EQ PUSH2 0x23F JUMPI JUMPDEST PUSH0 PUSH0 REVERT JUMPDEST PUSH2 0x18F PUSH1 0x4 DUP1 CALLDATASIZE SUB DUP2 ADD SWAP1 PUSH2 0x18A SWAP2 SWAP1 PUSH2 0x21F0 JUMP JUMPDEST PUSH2 0x504 JUMP JUMPDEST PUSH1 0x40 MLOAD PUSH2 0x19C SWAP2 SWAP1 PUSH2 0x2235 JUMP JUMPDEST PUSH1 0x40 MLOAD DUP1 SWAP2 SUB SWAP1 RETURN JUMPDEST PUSH2 0x1AD PUSH2 0x57D JUMP JUMPDEST PUSH1 0x40 MLOAD PUSH2 0x1BA SWAP2 SWAP1 PUSH2 0x22BE JUMP JUMPDEST PUSH1 0x40 MLOAD DUP1 SWAP2 SUB SWAP1 RETURN JUMPDEST PUSH2 0x1DD PUSH1 0x4 DUP1 CALLDATASIZE SUB DUP2 ADD SWAP1 PUSH2 0x1D8 SWAP2 SWAP1 PUSH2 0x2311 JUMP JUMPDEST PUSH2 0x60C JUMP JUMPDEST PUSH1 0x40 MLOAD PUSH2 0x1EA SWAP2 SWAP1 PUSH2 0x237B JUMP JUMPDEST PUSH1 0x40 MLOAD DUP1 SWAP2 SUB SWAP1 RETURN JUMPDEST PUSH2 0x20D PUSH1 0x4 DUP1 CALLDATASIZE SUB DUP2 ADD SWAP1 PUSH2 0x208 SWAP2 SWAP1 PUSH2 0x23BE JUMP JUMPDEST PUSH2 0x627 JUMP JUMPDEST STOP JUMPDEST PUSH2 0x229 PUSH1 0x4 DUP1 CALLDATASIZE SUB DUP2 ADD SWAP1 PUSH2 0x224 SWAP2 SWAP1 PUSH2 0x2311 JUMP JUMPDEST PUSH2 0x63D JUMP JUMPDEST PUSH1 0x40 MLOAD PUSH2 0x236 SWAP2 SWAP1 PUSH2 0x240B JUMP JUMPDEST PUSH1 0x40 MLOAD DUP1 SWAP2 SUB SWAP1 RETURN JUMPDEST PUSH2 0x259 PUSH1 0x4 DUP1 CALLDATASIZE SUB DUP2 ADD SWAP1 PUSH2 0x254 SWAP2 SWAP1 PUSH2 0x2424 JUMP JUMPDEST PUSH2 0x652 JUMP JUMPDEST STOP JUMPDEST PUSH2 0x275 PUSH1 0x4 DUP1 CALLDATASIZE SUB DUP2 ADD SWAP1 PUSH2 0x270 SWAP2 SWAP1 PUSH2 0x2474 JUMP JUMPDEST PUSH2 0x751 JUMP JUMPDEST PUSH1 0x40 MLOAD PUSH2 0x283 SWAP3 SWAP2 SWAP1 PUSH2 0x24B2 JUMP JUMPDEST PUSH1 0x40 MLOAD DUP1 SWAP2 SUB SWAP1 RETURN JUMPDEST PUSH2 0x2A6 PUSH1 0x4 DUP1 CALLDATASIZE SUB DUP2 ADD SWAP1 PUSH2 0x2A1 SWAP2 SWAP1 PUSH2 0x2474 JUMP JUMPDEST PUSH2 0x7C1 JUMP JUMPDEST STOP JUMPDEST PUSH2 0x2C2 PUSH1 0x4 DUP1 CALLDATASIZE SUB DUP2 ADD SWAP1 PUSH2 0x2BD SWAP2 SWAP1 PUSH2 0x24D9 JUMP JUMPDEST PUSH2 0x899 JUMP JUMPDEST PUSH1 0x40 MLOAD PUSH2 0x2CF SWAP2 SWAP1 PUSH2 0x2235 JUMP JUMPDEST PUSH1 0x40 MLOAD DUP1 SWAP2 SUB SWAP1 RETURN JUMPDEST PUSH2 0x2F2 PUSH1 0x4 DUP1 CALLDATASIZE SUB DUP2 ADD SWAP1 PUSH2 0x2ED SWAP2 SWAP1 PUSH2 0x2424 JUMP JUMPDEST PUSH2 0x8B6 JUMP JUMPDEST STOP JUMPDEST PUSH2 0x30E PUSH1 0x4 DUP1 CALLDATASIZE SUB DUP2 ADD SWAP1 PUSH2 0x309 SWAP2 SWAP1 PUSH2 0x252E JUMP JUMPDEST PUSH2 0x8D5 JUMP JUMPDEST STOP JUMPDEST PUSH2 0x318 PUSH2 0x983 JUMP JUMPDEST PUSH1 0x40 MLOAD PUSH2 0x325 SWAP2 SWAP1 PUSH2 0x2235 JUMP JUMPDEST PUSH1 0x40 MLOAD DUP1 SWAP2 SUB SWAP1 RETURN JUMPDEST PUSH2 0x348 PUSH1 0x4 DUP1 CALLDATASIZE SUB DUP2 ADD SWAP1 PUSH2 0x343 SWAP2 SWAP1 PUSH2 0x2311 JUMP JUMPDEST PUSH2 0x998 JUMP JUMPDEST PUSH1 0x40 MLOAD PUSH2 0x355 SWAP2 SWAP1 PUSH2 0x237B JUMP JUMPDEST PUSH1 0x40 MLOAD DUP1 SWAP2 SUB SWAP1 RETURN JUMPDEST PUSH2 0x378 PUSH1 0x4 DUP1 CALLDATASIZE SUB DUP2 ADD SWAP1 PUSH2 0x373 SWAP2 SWAP1 PUSH2 0x24D9 JUMP JUMPDEST PUSH2 0x9A9 JUMP JUMPDEST PUSH1 0x40 MLOAD PUSH2 0x385 SWAP2 SWAP1 PUSH2 0x240B JUMP JUMPDEST PUSH1 0x40 MLOAD DUP1 SWAP2 SUB SWAP1 RETURN JUMPDEST PUSH2 0x396 PUSH2 0xA5F JUMP JUMPDEST STOP JUMPDEST PUSH2 0x3A0 PUSH2 0xA72 JUMP JUMPDEST PUSH1 0x40 MLOAD PUSH2 0x3AD SWAP2 SWAP1 PUSH2 0x237B JUMP JUMPDEST PUSH1 0x40 MLOAD DUP1 SWAP2 SUB SWAP1 RETURN JUMPDEST PUSH2 0x3D0 PUSH1 0x4 DUP1 CALLDATASIZE SUB DUP2 ADD SWAP1 PUSH2 0x3CB SWAP2 SWAP1 PUSH2 0x25AD JUMP JUMPDEST PUSH2 0xA9A JUMP JUMPDEST STOP JUMPDEST PUSH2 0x3DA PUSH2 0xB65 JUMP JUMPDEST PUSH1 0x40 MLOAD PUSH2 0x3E7 SWAP2 SWAP1 PUSH2 0x22BE JUMP JUMPDEST PUSH1 0x40 MLOAD DUP1 SWAP2 SUB SWAP1 RETURN JUMPDEST PUSH2 0x40A PUSH1 0x4 DUP1 CALLDATASIZE SUB DUP2 ADD SWAP1 PUSH2 0x405 SWAP2 SWAP1 PUSH2 0x252E JUMP JUMPDEST PUSH2 0xBF5 JUMP JUMPDEST STOP JUMPDEST PUSH2 0x426 PUSH1 0x4 DUP1 CALLDATASIZE SUB DUP2 ADD SWAP1 PUSH2 0x421 SWAP2 SWAP1 PUSH2 0x2717 JUMP JUMPDEST PUSH2 0xC0B JUMP JUMPDEST STOP JUMPDEST PUSH2 0x442 PUSH1 0x4 DUP1 CALLDATASIZE SUB DUP2 ADD SWAP1 PUSH2 0x43D SWAP2 SWAP1 PUSH2 0x2311 JUMP JUMPDEST PUSH2 0xC30 JUMP JUMPDEST PUSH1 0x40 MLOAD PUSH2 0x44F SWAP2 SWAP1 PUSH2 0x22BE JUMP JUMPDEST PUSH1 0x40 MLOAD DUP1 SWAP2 SUB SWAP1 RETURN JUMPDEST PUSH2 0x472 PUSH1 0x4 DUP1 CALLDATASIZE SUB DUP2 ADD SWAP1 PUSH2 0x46D SWAP2 SWAP1 PUSH2 0x2835 JUMP JUMPDEST PUSH2 0xC42 JUMP JUMPDEST PUSH1 0x40 MLOAD PUSH2 0x47F SWAP2 SWAP1 PUSH2 0x240B JUMP JUMPDEST PUSH1 0x40 MLOAD DUP1 SWAP2 SUB SWAP1 RETURN JUMPDEST PUSH2 0x4A2 PUSH1 0x4 DUP1 CALLDATASIZE SUB DUP2 ADD SWAP1 PUSH2 0x49D SWAP2 SWAP1 PUSH2 0x28A1 JUMP JUMPDEST PUSH2 0xDFC JUMP JUMPDEST PUSH1 0x40 MLOAD PUSH2 0x4AF SWAP2 SWAP1 PUSH2 0x2235 JUMP JUMPDEST PUSH1 0x40 MLOAD DUP1 SWAP2 SUB SWAP1 RETURN JUMPDEST PUSH2 0x4D2 PUSH1 0x4 DUP1 CALLDATASIZE SUB DUP2 ADD SWAP1 PUSH2 0x4CD SWAP2 SWAP1 PUSH2 0x2311 JUMP JUMPDEST PUSH2 0xE8A JUMP JUMPDEST PUSH1 0x40 MLOAD PUSH2 0x4DF SWAP2 SWAP1 PUSH2 0x240B JUMP JUMPDEST PUSH1 0x40 MLOAD DUP1 SWAP2 SUB SWAP1 RETURN JUMPDEST PUSH2 0x502 PUSH1 0x4 DUP1 CALLDATASIZE SUB DUP2 ADD SWAP1 PUSH2 0x4FD SWAP2 SWAP1 PUSH2 0x24D9 JUMP JUMPDEST PUSH2 0xEA4 JUMP JUMPDEST STOP JUMPDEST PUSH0 PUSH32 0x2A55205A00000000000000000000000000000000000000000000000000000000 PUSH28 0xFFFFFFFFFFFFFFFFFFFFFFFFFFFFFFFFFFFFFFFFFFFFFFFFFFFFFFFF NOT AND DUP3 PUSH28 0xFFFFFFFFFFFFFFFFFFFFFFFFFFFFFFFFFFFFFFFFFFFFFFFFFFFFFFFF NOT AND EQ DUP1 PUSH2 0x576 JUMPI POP PUSH2 0x575 DUP3 PUSH2 0xF28 JUMP JUMPDEST JUMPDEST SWAP1 POP SWAP2 SWAP1 POP JUMP JUMPDEST PUSH1 0x60 PUSH0 DUP1 SLOAD PUSH2 0x58B SWAP1 PUSH2 0x290C JUMP JUMPDEST DUP1 PUSH1 0x1F ADD PUSH1 0x20 DUP1 SWAP2 DIV MUL PUSH1 0x20 ADD PUSH1 0x40 MLOAD SWAP1 DUP2 ADD PUSH1 0x40 MSTORE DUP1 SWAP3 SWAP2 SWAP1 DUP2 DUP2 MSTORE PUSH1 0x20 ADD DUP3 DUP1 SLOAD PUSH2 0x5B7 SWAP1 PUSH2 0x290C JUMP JUMPDEST DUP1 ISZERO PUSH2 0x602 JUMPI DUP1 PUSH1 0x1F LT PUSH2 0x5D9 JUMPI PUSH2 0x100 DUP1 DUP4 SLOAD DIV MUL DUP4 MSTORE SWAP2 PUSH1 0x20 ADD SWAP2 PUSH2 0x602 JUMP JUMPDEST DUP3 ADD SWAP2 SWAP1 PUSH0 MSTORE PUSH1 0x20 PUSH0 KECCAK256 SWAP1 JUMPDEST DUP2 SLOAD DUP2 MSTORE SWAP1 PUSH1 0x1 ADD SWAP1 PUSH1 0x20 ADD DUP1 DUP4 GT PUSH2 0x5E5 JUMPI DUP3 SWAP1 SUB PUSH1 0x1F AND DUP3 ADD SWAP2 JUMPDEST POP POP POP POP POP SWAP1 POP SWAP1 JUMP JUMPDEST PUSH0 PUSH2 0x616 DUP3 PUSH2 0xF88 JUMP JUMPDEST POP PUSH2 0x620 DUP3 PUSH2 0x100E JUMP JUMPDEST SWAP1 POP SWAP2 SWAP1 POP JUMP JUMPDEST PUSH2 0x639 DUP3 DUP3 PUSH2 0x634 PUSH2 0x1047 JUMP JUMPDEST PUSH2 0x104E JUMP JUMPDEST POP POP JUMP JUMPDEST PUSH1 0xC PUSH1 0x20 MSTORE DUP1 PUSH0 MSTORE PUSH1 0x40 PUSH0 KECCAK256 PUSH0 SWAP2 POP SWAP1 POP SLOAD DUP2 JUMP JUMPDEST PUSH0 PUSH20 0xFFFFFFFFFFFFFFFFFFFFFFFFFFFFFFFFFFFFFFFF AND DUP3 PUSH20 0xFFFFFFFFFFFFFFFFFFFFFFFFFFFFFFFFFFFFFFFF AND SUB PUSH2 0x6C2 JUMPI PUSH0 PUSH1 0x40 MLOAD PUSH32 0x64A0AE9200000000000000000000000000000000000000000000000000000000 DUP2 MSTORE PUSH1 0x4 ADD PUSH2 0x6B9 SWAP2 SWAP1 PUSH2 0x237B JUMP JUMPDEST PUSH1 0x40 MLOAD DUP1 SWAP2 SUB SWAP1 REVERT JUMPDEST PUSH0 PUSH2 0x6D5 DUP4 DUP4 PUSH2 0x6D0 PUSH2 0x1047 JUMP JUMPDEST PUSH2 0x1060 JUMP JUMPDEST SWAP1 POP DUP4 PUSH20 0xFFFFFFFFFFFFFFFFFFFFFFFFFFFFFFFFFFFFFFFF AND DUP2 PUSH20 0xFFFFFFFFFFFFFFFFFFFFFFFFFFFFFFFFFFFFFFFF AND EQ PUSH2 0x74B JUMPI DUP4 DUP3 DUP3 PUSH1 0x40 MLOAD PUSH32 0x64283D7B00000000000000000000000000000000000000000000000000000000 DUP2 MSTORE PUSH1 0x4 ADD PUSH2 0x742 SWAP4 SWAP3 SWAP2 SWAP1 PUSH2 0x293C JUMP JUMPDEST PUSH1 0x40 MLOAD DUP1 SWAP2 SUB SWAP1 REVERT JUMPDEST POP POP POP POP JUMP JUMPDEST PUSH0 PUSH0 PUSH1 0xB PUSH1 0xC SWAP1 SLOAD SWAP1 PUSH2 0x100 EXP SWAP1 DIV PUSH20 0xFFFFFFFFFFFFFFFFFFFFFFFFFFFFFFFFFFFFFFFF AND PUSH2 0x2710 PUSH1 0xB PUSH0 SWAP1 SLOAD SWAP1 PUSH2 0x100 EXP SWAP1 DIV PUSH12 0xFFFFFFFFFFFFFFFFFFFFFFFF AND PUSH12 0xFFFFFFFFFFFFFFFFFFFFFFFF AND DUP6 PUSH2 0x7AC SWAP2 SWAP1 PUSH2 0x299E JUMP JUMPDEST PUSH2 0x7B6 SWAP2 SWAP1 PUSH2 0x2A0C JUMP JUMPDEST SWAP2 POP SWAP2 POP SWAP3 POP SWAP3 SWAP1 POP JUMP JUMPDEST PUSH2 0x7C9 PUSH2 0x1075 JUMP JUMPDEST PUSH2 0x7D1 PUSH2 0x10FC JUMP JUMPDEST PUSH0 PUSH20 0xFFFFFFFFFFFFFFFFFFFFFFFFFFFFFFFFFFFFFFFF AND PUSH2 0x7F1 DUP4 PUSH2 0x113D JUMP JUMPDEST PUSH20 0xFFFFFFFFFFFFFFFFFFFFFFFFFFFFFFFFFFFFFFFF AND SUB PUSH2 0x847 JUMPI PUSH1 0x40 MLOAD PUSH32 0x8C379A000000000000000000000000000000000000000000000000000000000 DUP2 MSTORE PUSH1 0x4 ADD PUSH2 0x83E SWAP1 PUSH2 0x2A86 JUMP JUMPDEST PUSH1 0x40 MLOAD DUP1 SWAP2 SUB SWAP1 REVERT JUMPDEST DUP1 PUSH1 0xC PUSH0 DUP5 DUP2 MSTORE PUSH1 0x20 ADD SWAP1 DUP2 MSTORE PUSH1 0x20 ADD PUSH0 KECCAK256 DUP2 SWAP1 SSTORE POP DUP2 PUSH32 0x93BD3C05B374B7A6D7D0E46CB6E543EDAA15E26506DBFB7F33C0EAFB6713A5C4 DUP3 PUSH1 0x40 MLOAD PUSH2 0x88D SWAP2 SWAP1 PUSH2 0x240B JUMP JUMPDEST PUSH1 0x40 MLOAD DUP1 SWAP2 SUB SWAP1 LOG2 POP POP JUMP JUMPDEST PUSH1 0xD PUSH1 0x20 MSTORE DUP1 PUSH0 MSTORE PUSH1 0x40 PUSH0 KECCAK256 PUSH0 SWAP2 POP SLOAD SWAP1 PUSH2 0x100 EXP SWAP1 DIV PUSH1 0xFF AND DUP2 JUMP JUMPDEST PUSH2 0x8D0 DUP4 DUP4 DUP4 PUSH1 0x40 MLOAD DUP1 PUSH1 0x20 ADD PUSH1 0x40 MSTORE DUP1 PUSH0 DUP2 MSTORE POP PUSH2 0xC0B JUMP JUMPDEST POP POP POP JUMP JUMPDEST PUSH2 0x8DD PUSH2 0x1075 JUMP JUMPDEST DUP1 PUSH1 0xD PUSH0 DUP5 PUSH20 0xFFFFFFFFFFFFFFFFFFFFFFFFFFFFFFFFFFFFFFFF AND PUSH20 0xFFFFFFFFFFFFFFFFFFFFFFFFFFFFFFFFFFFFFFFF AND DUP2 MSTORE PUSH1 0x20 ADD SWAP1 DUP2 MSTORE PUSH1 0x20 ADD PUSH0 KECCAK256 PUSH0 PUSH2 0x100 EXP DUP2 SLOAD DUP2 PUSH1 0xFF MUL NOT AND SWAP1 DUP4 ISZERO ISZERO MUL OR SWAP1 SSTORE POP DUP2 PUSH20 0xFFFFFFFFFFFFFFFFFFFFFFFFFFFFFFFFFFFFFFFF AND PUSH32 0xF93F9A76C1BF3444D22400A00CB9FE990E6ABE9DBB333FDA48859CFEE864543D DUP3 PUSH1 0x40 MLOAD PUSH2 0x977 SWAP2 SWAP1 PUSH2 0x2235 JUMP JUMPDEST PUSH1 0x40 MLOAD DUP1 SWAP2 SUB SWAP1 LOG2 POP POP JUMP JUMPDEST PUSH0 PUSH1 0x6 PUSH0 SWAP1 SLOAD SWAP1 PUSH2 0x100 EXP SWAP1 DIV PUSH1 0xFF AND SWAP1 POP SWAP1 JUMP JUMPDEST PUSH0 PUSH2 0x9A2 DUP3 PUSH2 0xF88 JUMP JUMPDEST SWAP1 POP SWAP2 SWAP1 POP JUMP JUMPDEST PUSH0 PUSH0 PUSH20 0xFFFFFFFFFFFFFFFFFFFFFFFFFFFFFFFFFFFFFFFF AND DUP3 PUSH20 0xFFFFFFFFFFFFFFFFFFFFFFFFFFFFFFFFFFFFFFFF AND SUB PUSH2 0xA1A JUMPI PUSH0 PUSH1 0x40 MLOAD PUSH32 0x89C62B6400000000000000000000000000000000000000000000000000000000 DUP2 MSTORE PUSH1 0x4 ADD PUSH2 0xA11 SWAP2 SWAP1 PUSH2 0x237B JUMP JUMPDEST PUSH1 0x40 MLOAD DUP1 SWAP2 SUB SWAP1 REVERT JUMPDEST PUSH1 0x3 PUSH0 DUP4 PUSH20 0xFFFFFFFFFFFFFFFFFFFFFFFFFFFFFFFFFFFFFFFF AND PUSH20 0xFFFFFFFFFFFFFFFFFFFFFFFFFFFFFFFFFFFFFFFF AND DUP2 MSTORE PUSH1 0x20 ADD SWAP1 DUP2 MSTORE PUSH1 0x20 ADD PUSH0 KECCAK256 SLOAD SWAP1 POP SWAP2 SWAP1 POP JUMP JUMPDEST PUSH2 0xA67 PUSH2 0x1075 JUMP JUMPDEST PUSH2 0xA70 PUSH0 PUSH2 0x1176 JUMP JUMPDEST JUMP JUMPDEST PUSH0 PUSH1 0x8 PUSH0 SWAP1 SLOAD SWAP1 PUSH2 0x100 EXP SWAP1 DIV PUSH20 0xFFFFFFFFFFFFFFFFFFFFFFFFFFFFFFFFFFFFFFFF AND SWAP1 POP SWAP1 JUMP JUMPDEST PUSH2 0xAA2 PUSH2 0x1075 JUMP JUMPDEST DUP2 PUSH1 0xB PUSH1 0xC PUSH2 0x100 EXP DUP2 SLOAD DUP2 PUSH20 0xFFFFFFFFFFFFFFFFFFFFFFFFFFFFFFFFFFFFFFFF MUL NOT AND SWAP1 DUP4 PUSH20 0xFFFFFFFFFFFFFFFFFFFFFFFFFFFFFFFFFFFFFFFF AND MUL OR SWAP1 SSTORE POP DUP1 PUSH1 0xB PUSH0 PUSH2 0x100 EXP DUP2 SLOAD DUP2 PUSH12 0xFFFFFFFFFFFFFFFFFFFFFFFF MUL NOT AND SWAP1 DUP4 PUSH12 0xFFFFFFFFFFFFFFFFFFFFFFFF AND MUL OR SWAP1 SSTORE POP DUP2 PUSH20 0xFFFFFFFFFFFFFFFFFFFFFFFFFFFFFFFFFFFFFFFF AND PUSH32 0x8039BD6E4E7DBA001C8840EB2E118D9D131246FAA7D0D04335F7305127EC0B10 DUP3 PUSH1 0x40 MLOAD PUSH2 0xB59 SWAP2 SWAP1 PUSH2 0x2AB3 JUMP JUMPDEST PUSH1 0x40 MLOAD DUP1 SWAP2 SUB SWAP1 LOG2 POP POP JUMP JUMPDEST PUSH1 0x60 PUSH1 0x1 DUP1 SLOAD PUSH2 0xB74 SWAP1 PUSH2 0x290C JUMP JUMPDEST DUP1 PUSH1 0x1F ADD PUSH1 0x20 DUP1 SWAP2 DIV MUL PUSH1 0x20 ADD PUSH1 0x40 MLOAD SWAP1 DUP2 ADD PUSH1 0x40 MSTORE DUP1 SWAP3 SWAP2 SWAP1 DUP2 DUP2 MSTORE PUSH1 0x20 ADD DUP3 DUP1 SLOAD PUSH2 0xBA0 SWAP1 PUSH2 0x290C JUMP JUMPDEST DUP1 ISZERO PUSH2 0xBEB JUMPI DUP1 PUSH1 0x1F LT PUSH2 0xBC2 JUMPI PUSH2 0x100 DUP1 DUP4 SLOAD DIV MUL DUP4 MSTORE SWAP2 PUSH1 0x20 ADD SWAP2 PUSH2 0xBEB JUMP JUMPDEST DUP3 ADD SWAP2 SWAP1 PUSH0 MSTORE PUSH1 0x20 PUSH0 KECCAK256 SWAP1 JUMPDEST DUP2 SLOAD DUP2 MSTORE SWAP1 PUSH1 0x1 ADD SWAP1 PUSH1 0x20 ADD DUP1 DUP4 GT PUSH2 0xBCE JUMPI DUP3 SWAP1 SUB PUSH1 0x1F AND DUP3 ADD SWAP2 JUMPDEST POP POP POP POP POP SWAP1 POP SWAP1 JUMP JUMPDEST PUSH2 0xC07 PUSH2 0xC00 PUSH2 0x1047 JUMP JUMPDEST DUP4 DUP4 PUSH2 0x1239 JUMP JUMPDEST POP POP JUMP JUMPDEST PUSH2 0xC16 DUP5 DUP5 DUP5 PUSH2 0x652 JUMP JUMPDEST PUSH2 0xC2A PUSH2 0xC21 PUSH2 0x1047 JUMP JUMPDEST DUP6 DUP6 DUP6 DUP6 PUSH2 0x13A2 JUMP JUMPDEST POP POP POP POP JUMP JUMPDEST PUSH1 0x60 PUSH2 0xC3B DUP3 PUSH2 0x154E JUMP JUMPDEST SWAP1 POP SWAP2 SWAP1 POP JUMP JUMPDEST PUSH0 PUSH2 0xC4B PUSH2 0xA72 JUMP JUMPDEST PUSH20 0xFFFFFFFFFFFFFFFFFFFFFFFFFFFFFFFFFFFFFFFF AND CALLER PUSH20 0xFFFFFFFFFFFFFFFFFFFFFFFFFFFFFFFFFFFFFFFF AND EQ DUP1 PUSH2 0xCCA JUMPI POP PUSH1 0xD PUSH0 CALLER PUSH20 0xFFFFFFFFFFFFFFFFFFFFFFFFFFFFFFFFFFFFFFFF AND PUSH20 0xFFFFFFFFFFFFFFFFFFFFFFFFFFFFFFFFFFFFFFFF AND DUP2 MSTORE PUSH1 0x20 ADD SWAP1 DUP2 MSTORE PUSH1 0x20 ADD PUSH0 KECCAK256 PUSH0 SWAP1 SLOAD SWAP1 PUSH2 0x100 EXP SWAP1 DIV PUSH1 0xFF AND JUMPDEST PUSH2 0xD09 JUMPI PUSH1 0x40 MLOAD PUSH32 0x8C379A000000000000000000000000000000000000000000000000000000000 DUP2 MSTORE PUSH1 0x4 ADD PUSH2 0xD00 SWAP1 PUSH2 0x2B16 JUMP JUMPDEST PUSH1 0x40 MLOAD DUP1 SWAP2 SUB SWAP1 REVERT JUMPDEST PUSH2 0xD11 PUSH2 0x1659 JUMP JUMPDEST PUSH2 0xD19 PUSH2 0x10FC JUMP JUMPDEST PUSH1 0xA PUSH0 DUP2 SLOAD DUP1 SWAP3 SWAP2 SWAP1 PUSH2 0xD2B SWAP1 PUSH2 0x2B34 JUMP JUMPDEST SWAP2 SWAP1 POP SSTORE POP PUSH0 PUSH1 0xA SLOAD SWAP1 POP PUSH2 0xD40 DUP6 DUP3 PUSH2 0x16A8 JUMP JUMPDEST PUSH2 0xD4A DUP2 DUP6 PUSH2 0x16C5 JUMP JUMPDEST DUP3 PUSH1 0xC PUSH0 DUP4 DUP2 MSTORE PUSH1 0x20 ADD SWAP1 DUP2 MSTORE PUSH1 0x20 ADD PUSH0 KECCAK256 DUP2 SWAP1 SSTORE POP DUP5 PUSH20 0xFFFFFFFFFFFFFFFFFFFFFFFFFFFFFFFFFFFFFFFF AND DUP2 PUSH32 0x89017CB7D50C2BE8C93D0B9F1B2E5252E094C1F429587AC08C2847D97C3BE117 DUP7 DUP7 PUSH1 0x40 MLOAD PUSH2 0xDA9 SWAP3 SWAP2 SWAP1 PUSH2 0x2B7B JUMP JUMPDEST PUSH1 0x40 MLOAD DUP1 SWAP2 SUB SWAP1 LOG3 DUP1 PUSH32 0x93BD3C05B374B7A6D7D0E46CB6E543EDAA15E26506DBFB7F33C0EAFB6713A5C4 DUP5 PUSH1 0x40 MLOAD PUSH2 0xDE1 SWAP2 SWAP1 PUSH2 0x240B JUMP JUMPDEST PUSH1 0x40 MLOAD DUP1 SWAP2 SUB SWAP1 LOG2 DUP1 SWAP2 POP POP PUSH2 0xDF5 PUSH2 0x171F JUMP JUMPDEST SWAP4 SWAP3 POP POP POP JUMP JUMPDEST PUSH0 PUSH1 0x5 PUSH0 DUP5 PUSH20 0xFFFFFFFFFFFFFFFFFFFFFFFFFFFFFFFFFFFFFFFF AND PUSH20 0xFFFFFFFFFFFFFFFFFFFFFFFFFFFFFFFFFFFFFFFF AND DUP2 MSTORE PUSH1 0x20 ADD SWAP1 DUP2 MSTORE PUSH1 0x20 ADD PUSH0 KECCAK256 PUSH0 DUP4 PUSH20 0xFFFFFFFFFFFFFFFFFFFFFFFFFFFFFFFFFFFFFFFF AND PUSH20 0xFFFFFFFFFFFFFFFFFFFFFFFFFFFFFFFFFFFFFFFF AND DUP2 MSTORE PUSH1 0x20 ADD SWAP1 DUP2 MSTORE PUSH1 0x20 ADD PUSH0 KECCAK256 PUSH0 SWAP1 SLOAD SWAP1 PUSH2 0x100 EXP SWAP1 DIV PUSH1 0xFF AND SWAP1 POP SWAP3 SWAP2 POP POP JUMP JUMPDEST PUSH0 PUSH1 0xC PUSH0 DUP4 DUP2 MSTORE PUSH1 0x20 ADD SWAP1 DUP2 MSTORE PUSH1 0x20 ADD PUSH0 KECCAK256 SLOAD SWAP1 POP SWAP2 SWAP1 POP JUMP JUMPDEST PUSH2 0xEAC PUSH2 0x1075 JUMP JUMPDEST PUSH0 PUSH20 0xFFFFFFFFFFFFFFFFFFFFFFFFFFFFFFFFFFFFFFFF AND DUP2 PUSH20 0xFFFFFFFFFFFFFFFFFFFFFFFFFFFFFFFFFFFFFFFF AND SUB PUSH2 0xF1C JUMPI PUSH0 PUSH1 0x40 MLOAD PUSH32 0x1E4FBDF700000000000000000000000000000000000000000000000000000000 DUP2 MSTORE PUSH1 0x4 ADD PUSH2 0xF13 SWAP2 SWAP1 PUSH2 0x237B JUMP JUMPDEST PUSH1 0x40 MLOAD DUP1 SWAP2 SUB SWAP1 REVERT JUMPDEST PUSH2 0xF25 DUP2 PUSH2 0x1176 JUMP JUMPDEST POP JUMP JUMPDEST PUSH0 PUSH4 0x49064906 PUSH1 0xE0 SHL PUSH28 0xFFFFFFFFFFFFFFFFFFFFFFFFFFFFFFFFFFFFFFFFFFFFFFFFFFFFFFFF NOT AND DUP3 PUSH28 0xFFFFFFFFFFFFFFFFFFFFFFFFFFFFFFFFFFFFFFFFFFFFFFFFFFFFFFFF NOT AND EQ DUP1 PUSH2 0xF81 JUMPI POP PUSH2 0xF80 DUP3 PUSH2 0x1729 JUMP JUMPDEST JUMPDEST SWAP1 POP SWAP2 SWAP1 POP JUMP JUMPDEST PUSH0 PUSH0 PUSH2 0xF93 DUP4 PUSH2 0x113D JUMP JUMPDEST SWAP1 POP PUSH0 PUSH20 0xFFFFFFFFFFFFFFFFFFFFFFFFFFFFFFFFFFFFFFFF AND DUP2 PUSH20 0xFFFFFFFFFFFFFFFFFFFFFFFFFFFFFFFFFFFFFFFF AND SUB PUSH2 0x1005 JUMPI DUP3 PUSH1 0x40 MLOAD PUSH32 0x7E27328900000000000000000000000000000000000000000000000000000000 DUP2 MSTORE PUSH1 0x4 ADD PUSH2 0xFFC SWAP2 SWAP1 PUSH2 0x240B JUMP JUMPDEST PUSH1 0x40 MLOAD DUP1 SWAP2 SUB SWAP1 REVERT JUMPDEST DUP1 SWAP2 POP POP SWAP2 SWAP1 POP JUMP JUMPDEST PUSH0 PUSH1 0x4 PUSH0 DUP4 DUP2 MSTORE PUSH1 0x20 ADD SWAP1 DUP2 MSTORE PUSH1 0x20 ADD PUSH0 KECCAK256 PUSH0 SWAP1 SLOAD SWAP1 PUSH2 0x100 EXP SWAP1 DIV PUSH20 0xFFFFFFFFFFFFFFFFFFFFFFFFFFFFFFFFFFFFFFFF AND SWAP1 POP SWAP2 SWAP1 POP JUMP JUMPDEST PUSH0 CALLER SWAP1 POP SWAP1 JUMP JUMPDEST PUSH2 0x105B DUP4 DUP4 DUP4 PUSH1 0x1 PUSH2 0x180A JUMP JUMPDEST POP POP POP JUMP JUMPDEST PUSH0 PUSH2 0x106C DUP5 DUP5 DUP5 PUSH2 0x19C9 JUMP JUMPDEST SWAP1 POP SWAP4 SWAP3 POP POP POP JUMP JUMPDEST PUSH2 0x107D PUSH2 0x1047 JUMP JUMPDEST PUSH20 0xFFFFFFFFFFFFFFFFFFFFFFFFFFFFFFFFFFFFFFFF AND PUSH2 0x109B PUSH2 0xA72 JUMP JUMPDEST PUSH20 0xFFFFFFFFFFFFFFFFFFFFFFFFFFFFFFFFFFFFFFFF AND EQ PUSH2 0x10FA JUMPI PUSH2 0x10BE PUSH2 0x1047 JUMP JUMPDEST PUSH1 0x40 MLOAD PUSH32 0x118CDAA700000000000000000000000000000000000000000000000000000000 DUP2 MSTORE PUSH1 0x4 ADD PUSH2 0x10F1 SWAP2 SWAP1 PUSH2 0x237B JUMP JUMPDEST PUSH1 0x40 MLOAD DUP1 SWAP2 SUB SWAP1 REVERT JUMPDEST JUMP JUMPDEST PUSH2 0x1104 PUSH2 0x983 JUMP JUMPDEST ISZERO PUSH2 0x113B JUMPI PUSH1 0x40 MLOAD PUSH32 0xD93C066500000000000000000000000000000000000000000000000000000000 DUP2 MSTORE PUSH1 0x4 ADD PUSH1 0x40 MLOAD DUP1 SWAP2 SUB SWAP1 REVERT JUMPDEST JUMP JUMPDEST PUSH0 PUSH1 0x2 PUSH0 DUP4 DUP2 MSTORE PUSH1 0x20 ADD SWAP1 DUP2 MSTORE PUSH1 0x20 ADD PUSH0 KECCAK256 PUSH0 SWAP1 SLOAD SWAP1 PUSH2 0x100 EXP SWAP1 DIV PUSH20 0xFFFFFFFFFFFFFFFFFFFFFFFFFFFFFFFFFFFFFFFF AND SWAP1 POP SWAP2 SWAP1 POP JUMP JUMPDEST PUSH0 PUSH1 0x8 PUSH0 SWAP1 SLOAD SWAP1 PUSH2 0x100 EXP SWAP1 DIV PUSH20 0xFFFFFFFFFFFFFFFFFFFFFFFFFFFFFFFFFFFFFFFF AND SWAP1 POP DUP2 PUSH1 0x8 PUSH0 PUSH2 0x100 EXP DUP2 SLOAD DUP2 PUSH20 0xFFFFFFFFFFFFFFFFFFFFFFFFFFFFFFFFFFFFFFFF MUL NOT AND SWAP1 DUP4 PUSH20 0xFFFFFFFFFFFFFFFFFFFFFFFFFFFFFFFFFFFFFFFF AND MUL OR SWAP1 SSTORE POP DUP2 PUSH20 0xFFFFFFFFFFFFFFFFFFFFFFFFFFFFFFFFFFFFFFFF AND DUP2 PUSH20 0xFFFFFFFFFFFFFFFFFFFFFFFFFFFFFFFFFFFFFFFF AND PUSH32 0x8BE0079C531659141344CD1FD0A4F28419497F9722A3DAAFE3B4186F6B6457E0 PUSH1 0x40 MLOAD PUSH1 0x40 MLOAD DUP1 SWAP2 SUB SWAP1 LOG3 POP POP JUMP JUMPDEST PUSH0 PUSH20 0xFFFFFFFFFFFFFFFFFFFFFFFFFFFFFFFFFFFFFFFF AND DUP3 PUSH20 0xFFFFFFFFFFFFFFFFFFFFFFFFFFFFFFFFFFFFFFFF AND SUB PUSH2 0x12A9 JUMPI DUP2 PUSH1 0x40 MLOAD PUSH32 0x5B08BA1800000000000000000000000000000000000000000000000000000000 DUP2 MSTORE PUSH1 0x4 ADD PUSH2 0x12A0 SWAP2 SWAP1 PUSH2 0x237B JUMP JUMPDEST PUSH1 0x40 MLOAD DUP1 SWAP2 SUB SWAP1 REVERT JUMPDEST DUP1 PUSH1 0x5 PUSH0 DUP6 PUSH20 0xFFFFFFFFFFFFFFFFFFFFFFFFFFFFFFFFFFFFFFFF AND PUSH20 0xFFFFFFFFFFFFFFFFFFFFFFFFFFFFFFFFFFFFFFFF AND DUP2 MSTORE PUSH1 0x20 ADD SWAP1 DUP2 MSTORE PUSH1 0x20 ADD PUSH0 KECCAK256 PUSH0 DUP5 PUSH20 0xFFFFFFFFFFFFFFFFFFFFFFFFFFFFFFFFFFFFFFFF AND PUSH20 0xFFFFFFFFFFFFFFFFFFFFFFFFFFFFFFFFFFFFFFFF AND DUP2 MSTORE PUSH1 0x20 ADD SWAP1 DUP2 MSTORE PUSH1 0x20 ADD PUSH0 KECCAK256 PUSH0 PUSH2 0x100 EXP DUP2 SLOAD DUP2 PUSH1 0xFF MUL NOT AND SWAP1 DUP4 ISZERO ISZERO MUL OR SWAP1 SSTORE POP DUP2 PUSH20 0xFFFFFFFFFFFFFFFFFFFFFFFFFFFFFFFFFFFFFFFF AND DUP4 PUSH20 0xFFFFFFFFFFFFFFFFFFFFFFFFFFFFFFFFFFFFFFFF AND PUSH32 0x17307EAB39AB6107E8899845AD3D59BD9653F200F220920489CA2B5937696C31 DUP4 PUSH1 0x40 MLOAD PUSH2 0x1395 SWAP2 SWAP1 PUSH2 0x2235 JUMP JUMPDEST PUSH1 0x40 MLOAD DUP1 SWAP2 SUB SWAP1 LOG3 POP POP POP JUMP JUMPDEST PUSH0 DUP4 PUSH20 0xFFFFFFFFFFFFFFFFFFFFFFFFFFFFFFFFFFFFFFFF AND EXTCODESIZE GT ISZERO PUSH2 0x1547 JUMPI DUP3 PUSH20 0xFFFFFFFFFFFFFFFFFFFFFFFFFFFFFFFFFFFFFFFF AND PUSH4 0x150B7A02 DUP7 DUP7 DUP6 DUP6 PUSH1 0x40 MLOAD DUP6 PUSH4 0xFFFFFFFF AND PUSH1 0xE0 SHL DUP2 MSTORE PUSH1 0x4 ADD PUSH2 0x1400 SWAP5 SWAP4 SWAP3 SWAP2 SWAP1 PUSH2 0x2BFB JUMP JUMPDEST PUSH1 0x20 PUSH1 0x40 MLOAD DUP1 DUP4 SUB DUP2 PUSH0 DUP8 GAS CALL SWAP3 POP POP POP DUP1 ISZERO PUSH2 0x143B JUMPI POP PUSH1 0x40 MLOAD RETURNDATASIZE PUSH1 0x1F NOT PUSH1 0x1F DUP3 ADD AND DUP3 ADD DUP1 PUSH1 0x40 MSTORE POP DUP2 ADD SWAP1 PUSH2 0x1438 SWAP2 SWAP1 PUSH2 0x2C59 JUMP JUMPDEST PUSH1 0x1 JUMPDEST PUSH2 0x14BC JUMPI RETURNDATASIZE DUP1 PUSH0 DUP2 EQ PUSH2 0x1469 JUMPI PUSH1 0x40 MLOAD SWAP2 POP PUSH1 0x1F NOT PUSH1 0x3F RETURNDATASIZE ADD AND DUP3 ADD PUSH1 0x40 MSTORE RETURNDATASIZE DUP3 MSTORE RETURNDATASIZE PUSH0 PUSH1 0x20 DUP5 ADD RETURNDATACOPY PUSH2 0x146E JUMP JUMPDEST PUSH1 0x60 SWAP2 POP JUMPDEST POP PUSH0 DUP2 MLOAD SUB PUSH2 0x14B4 JUMPI DUP4 PUSH1 0x40 MLOAD PUSH32 0x64A0AE9200000000000000000000000000000000000000000000000000000000 DUP2 MSTORE PUSH1 0x4 ADD PUSH2 0x14AB SWAP2 SWAP1 PUSH2 0x237B JUMP JUMPDEST PUSH1 0x40 MLOAD DUP1 SWAP2 SUB SWAP1 REVERT JUMPDEST DUP1 MLOAD PUSH1 0x20 DUP3 ADD REVERT JUMPDEST PUSH4 0x150B7A02 PUSH1 0xE0 SHL PUSH28 0xFFFFFFFFFFFFFFFFFFFFFFFFFFFFFFFFFFFFFFFFFFFFFFFFFFFFFFFF NOT AND DUP2 PUSH28 0xFFFFFFFFFFFFFFFFFFFFFFFFFFFFFFFFFFFFFFFFFFFFFFFFFFFFFFFF NOT AND EQ PUSH2 0x1545 JUMPI DUP4 PUSH1 0x40 MLOAD PUSH32 0x64A0AE9200000000000000000000000000000000000000000000000000000000 DUP2 MSTORE PUSH1 0x4 ADD PUSH2 0x153C SWAP2 SWAP1 PUSH2 0x237B JUMP JUMPDEST PUSH1 0x40 MLOAD DUP1 SWAP2 SUB SWAP1 REVERT JUMPDEST POP JUMPDEST POP POP POP POP POP JUMP JUMPDEST PUSH1 0x60 PUSH2 0x1559 DUP3 PUSH2 0xF88 JUMP JUMPDEST POP PUSH0 PUSH1 0x7 PUSH0 DUP5 DUP2 MSTORE PUSH1 0x20 ADD SWAP1 DUP2 MSTORE PUSH1 0x20 ADD PUSH0 KECCAK256 DUP1 SLOAD PUSH2 0x1577 SWAP1 PUSH2 0x290C JUMP JUMPDEST DUP1 PUSH1 0x1F ADD PUSH1 0x20 DUP1 SWAP2 DIV MUL PUSH1 0x20 ADD PUSH1 0x40 MLOAD SWAP1 DUP2 ADD PUSH1 0x40 MSTORE DUP1 SWAP3 SWAP2 SWAP1 DUP2 DUP2 MSTORE PUSH1 0x20 ADD DUP3 DUP1 SLOAD PUSH2 0x15A3 SWAP1 PUSH2 0x290C JUMP JUMPDEST DUP1 ISZERO PUSH2 0x15EE JUMPI DUP1 PUSH1 0x1F LT PUSH2 0x15C5 JUMPI PUSH2 0x100 DUP1 DUP4 SLOAD DIV MUL DUP4 MSTORE SWAP2 PUSH1 0x20 ADD SWAP2 PUSH2 0x15EE JUMP JUMPDEST DUP3 ADD SWAP2 SWAP1 PUSH0 MSTORE PUSH1 0x20 PUSH0 KECCAK256 SWAP1 JUMPDEST DUP2 SLOAD DUP2 MSTORE SWAP1 PUSH1 0x1 ADD SWAP1 PUSH1 0x20 ADD DUP1 DUP4 GT PUSH2 0x15D1 JUMPI DUP3 SWAP1 SUB PUSH1 0x1F AND DUP3 ADD SWAP2 JUMPDEST POP POP POP POP POP SWAP1 POP PUSH0 PUSH2 0x15FE PUSH2 0x19E6 JUMP JUMPDEST SWAP1 POP PUSH0 DUP2 MLOAD SUB PUSH2 0x1612 JUMPI DUP2 SWAP3 POP POP POP PUSH2 0x1654 JUMP JUMPDEST PUSH0 DUP3 MLOAD GT ISZERO PUSH2 0x1646 JUMPI DUP1 DUP3 PUSH1 0x40 MLOAD PUSH1 0x20 ADD PUSH2 0x162E SWAP3 SWAP2 SWAP1 PUSH2 0x2CBE JUMP JUMPDEST PUSH1 0x40 MLOAD PUSH1 0x20 DUP2 DUP4 SUB SUB DUP2 MSTORE SWAP1 PUSH1 0x40 MSTORE SWAP3 POP POP POP PUSH2 0x1654 JUMP JUMPDEST PUSH2 0x164F DUP5 PUSH2 0x19FC JUMP JUMPDEST SWAP3 POP POP POP JUMPDEST SWAP2 SWAP1 POP JUMP JUMPDEST PUSH1 0x2 PUSH1 0x9 SLOAD SUB PUSH2 0x169E JUMPI PUSH1 0x40 MLOAD PUSH32 0x8C379A000000000000000000000000000000000000000000000000000000000 DUP2 MSTORE PUSH1 0x4 ADD PUSH2 0x1695 SWAP1 PUSH2 0x2D2B JUMP JUMPDEST PUSH1 0x40 MLOAD DUP1 SWAP2 SUB SWAP1 REVERT JUMPDEST PUSH1 0x2 PUSH1 0x9 DUP2 SWAP1 SSTORE POP JUMP JUMPDEST PUSH2 0x16C1 DUP3 DUP3 PUSH1 0x40 MLOAD DUP1 PUSH1 0x20 ADD PUSH1 0x40 MSTORE DUP1 PUSH0 DUP2 MSTORE POP PUSH2 0x1A62 JUMP JUMPDEST POP POP JUMP JUMPDEST DUP1 PUSH1 0x7 PUSH0 DUP5 DUP2 MSTORE PUSH1 0x20 ADD SWAP1 DUP2 MSTORE PUSH1 0x20 ADD PUSH0 KECCAK256 SWAP1 DUP2 PUSH2 0x16E3 SWAP2 SWAP1 PUSH2 0x2EE9 JUMP JUMPDEST POP PUSH32 0xF8E1A15ABA9398E019F0B49DF1A4FDE98EE17AE345CB5F6B5E2C27F5033E8CE7 DUP3 PUSH1 0x40 MLOAD PUSH2 0x1713 SWAP2 SWAP1 PUSH2 0x240B JUMP JUMPDEST PUSH1 0x40 MLOAD DUP1 SWAP2 SUB SWAP1 LOG1 POP POP JUMP JUMPDEST PUSH1 0x1 PUSH1 0x9 DUP2 SWAP1 SSTORE POP JUMP JUMPDEST PUSH0 PUSH32 0x80AC58CD00000000000000000000000000000000000000000000000000000000 PUSH28 0xFFFFFFFFFFFFFFFFFFFFFFFFFFFFFFFFFFFFFFFFFFFFFFFFFFFFFFFF NOT AND DUP3 PUSH28 0xFFFFFFFFFFFFFFFFFFFFFFFFFFFFFFFFFFFFFFFFFFFFFFFFFFFFFFFF NOT AND EQ DUP1 PUSH2 0x17F3 JUMPI POP PUSH32 0x5B5E139F00000000000000000000000000000000000000000000000000000000 PUSH28 0xFFFFFFFFFFFFFFFFFFFFFFFFFFFFFFFFFFFFFFFFFFFFFFFFFFFFFFFF NOT AND DUP3 PUSH28 0xFFFFFFFFFFFFFFFFFFFFFFFFFFFFFFFFFFFFFFFFFFFFFFFFFFFFFFFF NOT AND EQ JUMPDEST DUP1 PUSH2 0x1803 JUMPI POP PUSH2 0x1802 DUP3 PUSH2 0x1A85 JUMP JUMPDEST JUMPDEST SWAP1 POP SWAP2 SWAP1 POP JUMP JUMPDEST DUP1 DUP1 PUSH2 0x1842 JUMPI POP PUSH0 PUSH20 0xFFFFFFFFFFFFFFFFFFFFFFFFFFFFFFFFFFFFFFFF AND DUP3 PUSH20 0xFFFFFFFFFFFFFFFFFFFFFFFFFFFFFFFFFFFFFFFF AND EQ ISZERO JUMPDEST ISZERO PUSH2 0x1974 JUMPI PUSH0 PUSH2 0x1851 DUP5 PUSH2 0xF88 JUMP JUMPDEST SWAP1 POP PUSH0 PUSH20 0xFFFFFFFFFFFFFFFFFFFFFFFFFFFFFFFFFFFFFFFF AND DUP4 PUSH20 0xFFFFFFFFFFFFFFFFFFFFFFFFFFFFFFFFFFFFFFFF AND EQ ISZERO DUP1 ISZERO PUSH2 0x18BB JUMPI POP DUP3 PUSH20 0xFFFFFFFFFFFFFFFFFFFFFFFFFFFFFFFFFFFFFFFF AND DUP2 PUSH20 0xFFFFFFFFFFFFFFFFFFFFFFFFFFFFFFFFFFFFFFFF AND EQ ISZERO JUMPDEST DUP1 ISZERO PUSH2 0x18CE JUMPI POP PUSH2 0x18CC DUP2 DUP5 PUSH2 0xDFC JUMP JUMPDEST ISZERO JUMPDEST ISZERO PUSH2 0x1910 JUMPI DUP3 PUSH1 0x40 MLOAD PUSH32 0xA9FBF51F00000000000000000000000000000000000000000000000000000000 DUP2 MSTORE PUSH1 0x4 ADD PUSH2 0x1907 SWAP2 SWAP1 PUSH2 0x237B JUMP JUMPDEST PUSH1 0x40 MLOAD DUP1 SWAP2 SUB SWAP1 REVERT JUMPDEST DUP2 ISZERO PUSH2 0x1972 JUMPI DUP4 DUP6 PUSH20 0xFFFFFFFFFFFFFFFFFFFFFFFFFFFFFFFFFFFFFFFF AND DUP3 PUSH20 0xFFFFFFFFFFFFFFFFFFFFFFFFFFFFFFFFFFFFFFFF AND PUSH32 0x8C5BE1E5EBEC7D5BD14F71427D1E84F3DD0314C0F7B2291E5B200AC8C7C3B925 PUSH1 0x40 MLOAD PUSH1 0x40 MLOAD DUP1 SWAP2 SUB SWAP1 LOG4 JUMPDEST POP JUMPDEST DUP4 PUSH1 0x4 PUSH0 DUP6 DUP2 MSTORE PUSH1 0x20 ADD SWAP1 DUP2 MSTORE PUSH1 0x20 ADD PUSH0 KECCAK256 PUSH0 PUSH2 0x100 EXP DUP2 SLOAD DUP2 PUSH20 0xFFFFFFFFFFFFFFFFFFFFFFFFFFFFFFFFFFFFFFFF MUL NOT AND SWAP1 DUP4 PUSH20 0xFFFFFFFFFFFFFFFFFFFFFFFFFFFFFFFFFFFFFFFF AND MUL OR SWAP1 SSTORE POP POP POP POP POP JUMP JUMPDEST PUSH0 PUSH2 0x19D2 PUSH2 0x10FC JUMP JUMPDEST PUSH2 0x19DD DUP5 DUP5 DUP5 PUSH2 0x1AEE JUMP JUMPDEST SWAP1 POP SWAP4 SWAP3 POP POP POP JUMP JUMPDEST PUSH1 0x60 PUSH1 0x40 MLOAD DUP1 PUSH1 0x20 ADD PUSH1 0x40 MSTORE DUP1 PUSH0 DUP2 MSTORE POP SWAP1 POP SWAP1 JUMP JUMPDEST PUSH1 0x60 PUSH2 0x1A07 DUP3 PUSH2 0xF88 JUMP JUMPDEST POP PUSH0 PUSH2 0x1A11 PUSH2 0x19E6 JUMP JUMPDEST SWAP1 POP PUSH0 DUP2 MLOAD GT PUSH2 0x1A2F JUMPI PUSH1 0x40 MLOAD DUP1 PUSH1 0x20 ADD PUSH1 0x40 MSTORE DUP1 PUSH0 DUP2 MSTORE POP PUSH2 0x1A5A JUMP JUMPDEST DUP1 PUSH2 0x1A39 DUP5 PUSH2 0x1CF9 JUMP JUMPDEST PUSH1 0x40 MLOAD PUSH1 0x20 ADD PUSH2 0x1A4A SWAP3 SWAP2 SWAP1 PUSH2 0x2CBE JUMP JUMPDEST PUSH1 0x40 MLOAD PUSH1 0x20 DUP2 DUP4 SUB SUB DUP2 MSTORE SWAP1 PUSH1 0x40 MSTORE JUMPDEST SWAP2 POP POP SWAP2 SWAP1 POP JUMP JUMPDEST PUSH2 0x1A6C DUP4 DUP4 PUSH2 0x1DC3 JUMP JUMPDEST PUSH2 0x1A80 PUSH2 0x1A77 PUSH2 0x1047 JUMP JUMPDEST PUSH0 DUP6 DUP6 DUP6 PUSH2 0x13A2 JUMP JUMPDEST POP POP POP JUMP JUMPDEST PUSH0 PUSH32 0x1FFC9A700000000000000000000000000000000000000000000000000000000 PUSH28 0xFFFFFFFFFFFFFFFFFFFFFFFFFFFFFFFFFFFFFFFFFFFFFFFFFFFFFFFF NOT AND DUP3 PUSH28 0xFFFFFFFFFFFFFFFFFFFFFFFFFFFFFFFFFFFFFFFFFFFFFFFFFFFFFFFF NOT AND EQ SWAP1 POP SWAP2 SWAP1 POP JUMP JUMPDEST PUSH0 PUSH0 PUSH2 0x1AF9 DUP5 PUSH2 0x113D JUMP JUMPDEST SWAP1 POP PUSH0 PUSH20 0xFFFFFFFFFFFFFFFFFFFFFFFFFFFFFFFFFFFFFFFF AND DUP4 PUSH20 0xFFFFFFFFFFFFFFFFFFFFFFFFFFFFFFFFFFFFFFFF AND EQ PUSH2 0x1B3A JUMPI PUSH2 0x1B39 DUP2 DUP5 DUP7 PUSH2 0x1EB6 JUMP JUMPDEST JUMPDEST PUSH0 PUSH20 0xFFFFFFFFFFFFFFFFFFFFFFFFFFFFFFFFFFFFFFFF AND DUP2 PUSH20 0xFFFFFFFFFFFFFFFFFFFFFFFFFFFFFFFFFFFFFFFF AND EQ PUSH2 0x1BC5 JUMPI PUSH2 0x1B79 PUSH0 DUP6 PUSH0 PUSH0 PUSH2 0x180A JUMP JUMPDEST PUSH1 0x1 PUSH1 0x3 PUSH0 DUP4 PUSH20 0xFFFFFFFFFFFFFFFFFFFFFFFFFFFFFFFFFFFFFFFF AND PUSH20 0xFFFFFFFFFFFFFFFFFFFFFFFFFFFFFFFFFFFFFFFF AND DUP2 MSTORE PUSH1 0x20 ADD SWAP1 DUP2 MSTORE PUSH1 0x20 ADD PUSH0 KECCAK256 PUSH0 DUP3 DUP3 SLOAD SUB SWAP3 POP POP DUP2 SWAP1 SSTORE POP JUMPDEST PUSH0 PUSH20 0xFFFFFFFFFFFFFFFFFFFFFFFFFFFFFFFFFFFFFFFF AND DUP6 PUSH20 0xFFFFFFFFFFFFFFFFFFFFFFFFFFFFFFFFFFFFFFFF AND EQ PUSH2 0x1C44 JUMPI PUSH1 0x1 PUSH1 0x3 PUSH0 DUP8 PUSH20 0xFFFFFFFFFFFFFFFFFFFFFFFFFFFFFFFFFFFFFFFF AND PUSH20 0xFFFFFFFFFFFFFFFFFFFFFFFFFFFFFFFFFFFFFFFF AND DUP2 MSTORE PUSH1 0x20 ADD SWAP1 DUP2 MSTORE PUSH1 0x20 ADD PUSH0 KECCAK256 PUSH0 DUP3 DUP3 SLOAD ADD SWAP3 POP POP DUP2 SWAP1 SSTORE POP JUMPDEST DUP5 PUSH1 0x2 PUSH0 DUP7 DUP2 MSTORE PUSH1 0x20 ADD SWAP1 DUP2 MSTORE PUSH1 0x20 ADD PUSH0 KECCAK256 PUSH0 PUSH2 0x100 EXP DUP2 SLOAD DUP2 PUSH20 0xFFFFFFFFFFFFFFFFFFFFFFFFFFFFFFFFFFFFFFFF MUL NOT AND SWAP1 DUP4 PUSH20 0xFFFFFFFFFFFFFFFFFFFFFFFFFFFFFFFFFFFFFFFF AND MUL OR SWAP1 SSTORE POP DUP4 DUP6 PUSH20 0xFFFFFFFFFFFFFFFFFFFFFFFFFFFFFFFFFFFFFFFF AND DUP3 PUSH20 0xFFFFFFFFFFFFFFFFFFFFFFFFFFFFFFFFFFFFFFFF AND PUSH32 0xDDF252AD1BE2C89B69C2B068FC378DAA952BA7F163C4A11628F55A4DF523B3EF PUSH1 0x40 MLOAD PUSH1 0x40 MLOAD DUP1 SWAP2 SUB SWAP1 LOG4 DUP1 SWAP2 POP POP SWAP4 SWAP3 POP POP POP JUMP JUMPDEST PUSH1 0x60 PUSH0 PUSH1 0x1 PUSH2 0x1D07 DUP5 PUSH2 0x1F79 JUMP JUMPDEST ADD SWAP1 POP PUSH0 DUP2 PUSH8 0xFFFFFFFFFFFFFFFF DUP2 GT ISZERO PUSH2 0x1D25 JUMPI PUSH2 0x1D24 PUSH2 0x25F3 JUMP JUMPDEST JUMPDEST PUSH1 0x40 MLOAD SWAP1 DUP1 DUP3 MSTORE DUP1 PUSH1 0x1F ADD PUSH1 0x1F NOT AND PUSH1 0x20 ADD DUP3 ADD PUSH1 0x40 MSTORE DUP1 ISZERO PUSH2 0x1D57 JUMPI DUP2 PUSH1 0x20 ADD PUSH1 0x1 DUP3 MUL DUP1 CALLDATASIZE DUP4 CALLDATACOPY DUP1 DUP3 ADD SWAP2 POP POP SWAP1 POP JUMPDEST POP SWAP1 POP PUSH0 DUP3 PUSH1 0x20 DUP4 ADD ADD SWAP1 POP JUMPDEST PUSH1 0x1 ISZERO PUSH2 0x1DB8 JUMPI DUP1 DUP1 PUSH1 0x1 SWAP1 SUB SWAP2 POP POP PUSH32 0x3031323334353637383961626364656600000000000000000000000000000000 PUSH1 0xA DUP7 MOD BYTE DUP2 MSTORE8 PUSH1 0xA DUP6 DUP2 PUSH2 0x1DAD JUMPI PUSH2 0x1DAC PUSH2 0x29DF JUMP JUMPDEST JUMPDEST DIV SWAP5 POP PUSH0 DUP6 SUB PUSH2 0x1D64 JUMPI JUMPDEST DUP2 SWAP4 POP POP POP POP SWAP2 SWAP1 POP JUMP JUMPDEST PUSH0 PUSH20 0xFFFFFFFFFFFFFFFFFFFFFFFFFFFFFFFFFFFFFFFF AND DUP3 PUSH20 0xFFFFFFFFFFFFFFFFFFFFFFFFFFFFFFFFFFFFFFFF AND SUB PUSH2 0x1E33 JUMPI PUSH0 PUSH1 0x40 MLOAD PUSH32 0x64A0AE9200000000000000000000000000000000000000000000000000000000 DUP2 MSTORE PUSH1 0x4 ADD PUSH2 0x1E2A SWAP2 SWAP1 PUSH2 0x237B JUMP JUMPDEST PUSH1 0x40 MLOAD DUP1 SWAP2 SUB SWAP1 REVERT JUMPDEST PUSH0 PUSH2 0x1E3F DUP4 DUP4 PUSH0 PUSH2 0x1060 JUMP JUMPDEST SWAP1 POP PUSH0 PUSH20 0xFFFFFFFFFFFFFFFFFFFFFFFFFFFFFFFFFFFFFFFF AND DUP2 PUSH20 0xFFFFFFFFFFFFFFFFFFFFFFFFFFFFFFFFFFFFFFFF AND EQ PUSH2 0x1EB1 JUMPI PUSH0 PUSH1 0x40 MLOAD PUSH32 0x73C6AC6E00000000000000000000000000000000000000000000000000000000 DUP2 MSTORE PUSH1 0x4 ADD PUSH2 0x1EA8 SWAP2 SWAP1 PUSH2 0x237B JUMP JUMPDEST PUSH1 0x40 MLOAD DUP1 SWAP2 SUB SWAP1 REVERT JUMPDEST POP POP POP JUMP JUMPDEST PUSH2 0x1EC1 DUP4 DUP4 DUP4 PUSH2 0x20CA JUMP JUMPDEST PUSH2 0x1F74 JUMPI PUSH0 PUSH20 0xFFFFFFFFFFFFFFFFFFFFFFFFFFFFFFFFFFFFFFFF AND DUP4 PUSH20 0xFFFFFFFFFFFFFFFFFFFFFFFFFFFFFFFFFFFFFFFF AND SUB PUSH2 0x1F35 JUMPI DUP1 PUSH1 0x40 MLOAD PUSH32 0x7E27328900000000000000000000000000000000000000000000000000000000 DUP2 MSTORE PUSH1 0x4 ADD PUSH2 0x1F2C SWAP2 SWAP1 PUSH2 0x240B JUMP JUMPDEST PUSH1 0x40 MLOAD DUP1 SWAP2 SUB SWAP1 REVERT JUMPDEST DUP2 DUP2 PUSH1 0x40 MLOAD PUSH32 0x177E802F00000000000000000000000000000000000000000000000000000000 DUP2 MSTORE PUSH1 0x4 ADD PUSH2 0x1F6B SWAP3 SWAP2 SWAP1 PUSH2 0x24B2 JUMP JUMPDEST PUSH1 0x40 MLOAD DUP1 SWAP2 SUB SWAP1 REVERT JUMPDEST POP POP POP JUMP JUMPDEST PUSH0 PUSH0 PUSH0 SWAP1 POP PUSH27 0x184F03E93FF9F4DAA797ED6E38ED64BF6A1F010000000000000000 DUP4 LT PUSH2 0x1FD5 JUMPI PUSH27 0x184F03E93FF9F4DAA797ED6E38ED64BF6A1F010000000000000000 DUP4 DUP2 PUSH2 0x1FCB JUMPI PUSH2 0x1FCA PUSH2 0x29DF JUMP JUMPDEST JUMPDEST DIV SWAP3 POP PUSH1 0x40 DUP2 ADD SWAP1 POP JUMPDEST PUSH14 0x4EE2D6D415B85ACEF8100000000 DUP4 LT PUSH2 0x2012 JUMPI PUSH14 0x4EE2D6D415B85ACEF8100000000 DUP4 DUP2 PUSH2 0x2008 JUMPI PUSH2 0x2007 PUSH2 0x29DF JUMP JUMPDEST JUMPDEST DIV SWAP3 POP PUSH1 0x20 DUP2 ADD SWAP1 POP JUMPDEST PUSH7 0x2386F26FC10000 DUP4 LT PUSH2 0x2041 JUMPI PUSH7 0x2386F26FC10000 DUP4 DUP2 PUSH2 0x2037 JUMPI PUSH2 0x2036 PUSH2 0x29DF JUMP JUMPDEST JUMPDEST DIV SWAP3 POP PUSH1 0x10 DUP2 ADD SWAP1 POP JUMPDEST PUSH4 0x5F5E100 DUP4 LT PUSH2 0x206A JUMPI PUSH4 0x5F5E100 DUP4 DUP2 PUSH2 0x2060 JUMPI PUSH2 0x205F PUSH2 0x29DF JUMP JUMPDEST JUMPDEST DIV SWAP3 POP PUSH1 0x8 DUP2 ADD SWAP1 POP JUMPDEST PUSH2 0x2710 DUP4 LT PUSH2 0x208F JUMPI PUSH2 0x2710 DUP4 DUP2 PUSH2 0x2085 JUMPI PUSH2 0x2084 PUSH2 0x29DF JUMP JUMPDEST JUMPDEST DIV SWAP3 POP PUSH1 0x4 DUP2 ADD SWAP1 POP JUMPDEST PUSH1 0x64 DUP4 LT PUSH2 0x20B2 JUMPI PUSH1 0x64 DUP4 DUP2 PUSH2 0x20A8 JUMPI PUSH2 0x20A7 PUSH2 0x29DF JUMP JUMPDEST JUMPDEST DIV SWAP3 POP PUSH1 0x2 DUP2 ADD SWAP1 POP JUMPDEST PUSH1 0xA DUP4 LT PUSH2 0x20C1 JUMPI PUSH1 0x1 DUP2 ADD SWAP1 POP JUMPDEST DUP1 SWAP2 POP POP SWAP2 SWAP1 POP JUMP JUMPDEST PUSH0 PUSH0 PUSH20 0xFFFFFFFFFFFFFFFFFFFFFFFFFFFFFFFFFFFFFFFF AND DUP4 PUSH20 0xFFFFFFFFFFFFFFFFFFFFFFFFFFFFFFFFFFFFFFFF AND EQ ISZERO DUP1 ISZERO PUSH2 0x2181 JUMPI POP DUP3 PUSH20 0xFFFFFFFFFFFFFFFFFFFFFFFFFFFFFFFFFFFFFFFF AND DUP5 PUSH20 0xFFFFFFFFFFFFFFFFFFFFFFFFFFFFFFFFFFFFFFFF AND EQ DUP1 PUSH2 0x2142 JUMPI POP PUSH2 0x2141 DUP5 DUP5 PUSH2 0xDFC JUMP JUMPDEST JUMPDEST DUP1 PUSH2 0x2180 JUMPI POP DUP3 PUSH20 0xFFFFFFFFFFFFFFFFFFFFFFFFFFFFFFFFFFFFFFFF AND PUSH2 0x2168 DUP4 PUSH2 0x100E JUMP JUMPDEST PUSH20 0xFFFFFFFFFFFFFFFFFFFFFFFFFFFFFFFFFFFFFFFF AND EQ JUMPDEST JUMPDEST SWAP1 POP SWAP4 SWAP3 POP POP POP JUMP JUMPDEST PUSH0 PUSH1 0x40 MLOAD SWAP1 POP SWAP1 JUMP JUMPDEST PUSH0 PUSH0 REVERT JUMPDEST PUSH0 PUSH0 REVERT JUMPDEST PUSH0 PUSH32 0xFFFFFFFF00000000000000000000000000000000000000000000000000000000 DUP3 AND SWAP1 POP SWAP2 SWAP1 POP JUMP JUMPDEST PUSH2 0x21CF DUP2 PUSH2 0x219B JUMP JUMPDEST DUP2 EQ PUSH2 0x21D9 JUMPI PUSH0 PUSH0 REVERT JUMPDEST POP JUMP JUMPDEST PUSH0 DUP2 CALLDATALOAD SWAP1 POP PUSH2 0x21EA DUP2 PUSH2 0x21C6 JUMP JUMPDEST SWAP3 SWAP2 POP POP JUMP JUMPDEST PUSH0 PUSH1 0x20 DUP3 DUP5 SUB SLT ISZERO PUSH2 0x2205 JUMPI PUSH2 0x2204 PUSH2 0x2193 JUMP JUMPDEST JUMPDEST PUSH0 PUSH2 0x2212 DUP5 DUP3 DUP6 ADD PUSH2 0x21DC JUMP JUMPDEST SWAP2 POP POP SWAP3 SWAP2 POP POP JUMP JUMPDEST PUSH0 DUP2 ISZERO ISZERO SWAP1 POP SWAP2 SWAP1 POP JUMP JUMPDEST PUSH2 0x222F DUP2 PUSH2 0x221B JUMP JUMPDEST DUP3 MSTORE POP POP JUMP JUMPDEST PUSH0 PUSH1 0x20 DUP3 ADD SWAP1 POP PUSH2 0x2248 PUSH0 DUP4 ADD DUP5 PUSH2 0x2226 JUMP JUMPDEST SWAP3 SWAP2 POP POP JUMP JUMPDEST PUSH0 DUP2 MLOAD SWAP1 POP SWAP2 SWAP1 POP JUMP JUMPDEST PUSH0 DUP3 DUP3 MSTORE PUSH1 0x20 DUP3 ADD SWAP1 POP SWAP3 SWAP2 POP POP JUMP JUMPDEST DUP3 DUP2 DUP4 MCOPY PUSH0 DUP4 DUP4 ADD MSTORE POP POP POP JUMP JUMPDEST PUSH0 PUSH1 0x1F NOT PUSH1 0x1F DUP4 ADD AND SWAP1 POP SWAP2 SWAP1 POP JUMP JUMPDEST PUSH0 PUSH2 0x2290 DUP3 PUSH2 0x224E JUMP JUMPDEST PUSH2 0x229A DUP2 DUP6 PUSH2 0x2258 JUMP JUMPDEST SWAP4 POP PUSH2 0x22AA DUP2 DUP6 PUSH1 0x20 DUP7 ADD PUSH2 0x2268 JUMP JUMPDEST PUSH2 0x22B3 DUP2 PUSH2 0x2276 JUMP JUMPDEST DUP5 ADD SWAP2 POP POP SWAP3 SWAP2 POP POP JUMP JUMPDEST PUSH0 PUSH1 0x20 DUP3 ADD SWAP1 POP DUP2 DUP2 SUB PUSH0 DUP4 ADD MSTORE PUSH2 0x22D6 DUP2 DUP5 PUSH2 0x2286 JUMP JUMPDEST SWAP1 POP SWAP3 SWAP2 POP POP JUMP JUMPDEST PUSH0 DUP2 SWAP1 POP SWAP2 SWAP1 POP JUMP JUMPDEST PUSH2 0x22F0 DUP2 PUSH2 0x22DE JUMP JUMPDEST DUP2 EQ PUSH2 0x22FA JUMPI PUSH0 PUSH0 REVERT JUMPDEST POP JUMP JUMPDEST PUSH0 DUP2 CALLDATALOAD SWAP1 POP PUSH2 0x230B DUP2 PUSH2 0x22E7 JUMP JUMPDEST SWAP3 SWAP2 POP POP JUMP JUMPDEST PUSH0 PUSH1 0x20 DUP3 DUP5 SUB SLT ISZERO PUSH2 0x2326 JUMPI PUSH2 0x2325 PUSH2 0x2193 JUMP JUMPDEST JUMPDEST PUSH0 PUSH2 0x2333 DUP5 DUP3 DUP6 ADD PUSH2 0x22FD JUMP JUMPDEST SWAP2 POP POP SWAP3 SWAP2 POP POP JUMP JUMPDEST PUSH0 PUSH20 0xFFFFFFFFFFFFFFFFFFFFFFFFFFFFFFFFFFFFFFFF DUP3 AND SWAP1 POP SWAP2 SWAP1 POP JUMP JUMPDEST PUSH0 PUSH2 0x2365 DUP3 PUSH2 0x233C JUMP JUMPDEST SWAP1 POP SWAP2 SWAP1 POP JUMP JUMPDEST PUSH2 0x2375 DUP2 PUSH2 0x235B JUMP JUMPDEST DUP3 MSTORE POP POP JUMP JUMPDEST PUSH0 PUSH1 0x20 DUP3 ADD SWAP1 POP PUSH2 0x238E PUSH0 DUP4 ADD DUP5 PUSH2 0x236C JUMP JUMPDEST SWAP3 SWAP2 POP POP JUMP JUMPDEST PUSH2 0x239D DUP2 PUSH2 0x235B JUMP JUMPDEST DUP2 EQ PUSH2 0x23A7 JUMPI PUSH0 PUSH0 REVERT JUMPDEST POP JUMP JUMPDEST PUSH0 DUP2 CALLDATALOAD SWAP1 POP PUSH2 0x23B8 DUP2 PUSH2 0x2394 JUMP JUMPDEST SWAP3 SWAP2 POP POP JUMP JUMPDEST PUSH0 PUSH0 PUSH1 0x40 DUP4 DUP6 SUB SLT ISZERO PUSH2 0x23D4 JUMPI PUSH2 0x23D3 PUSH2 0x2193 JUMP JUMPDEST JUMPDEST PUSH0 PUSH2 0x23E1 DUP6 DUP3 DUP7 ADD PUSH2 0x23AA JUMP JUMPDEST SWAP3 POP POP PUSH1 0x20 PUSH2 0x23F2 DUP6 DUP3 DUP7 ADD PUSH2 0x22FD JUMP JUMPDEST SWAP2 POP POP SWAP3 POP SWAP3 SWAP1 POP JUMP JUMPDEST PUSH2 0x2405 DUP2 PUSH2 0x22DE JUMP JUMPDEST DUP3 MSTORE POP POP JUMP JUMPDEST PUSH0 PUSH1 0x20 DUP3 ADD SWAP1 POP PUSH2 0x241E PUSH0 DUP4 ADD DUP5 PUSH2 0x23FC JUMP JUMPDEST SWAP3 SWAP2 POP POP JUMP JUMPDEST PUSH0 PUSH0 PUSH0 PUSH1 0x60 DUP5 DUP7 SUB SLT ISZERO PUSH2 0x243B JUMPI PUSH2 0x243A PUSH2 0x2193 JUMP JUMPDEST JUMPDEST PUSH0 PUSH2 0x2448 DUP7 DUP3 DUP8 ADD PUSH2 0x23AA JUMP JUMPDEST SWAP4 POP POP PUSH1 0x20 PUSH2 0x2459 DUP7 DUP3 DUP8 ADD PUSH2 0x23AA JUMP JUMPDEST SWAP3 POP POP PUSH1 0x40 PUSH2 0x246A DUP7 DUP3 DUP8 ADD PUSH2 0x22FD JUMP JUMPDEST SWAP2 POP POP SWAP3 POP SWAP3 POP SWAP3 JUMP JUMPDEST PUSH0 PUSH0 PUSH1 0x40 DUP4 DUP6 SUB SLT ISZERO PUSH2 0x248A JUMPI PUSH2 0x2489 PUSH2 0x2193 JUMP JUMPDEST JUMPDEST PUSH0 PUSH2 0x2497 DUP6 DUP3 DUP7 ADD PUSH2 0x22FD JUMP JUMPDEST SWAP3 POP POP PUSH1 0x20 PUSH2 0x24A8 DUP6 DUP3 DUP7 ADD PUSH2 0x22FD JUMP JUMPDEST SWAP2 POP POP SWAP3 POP SWAP3 SWAP1 POP JUMP JUMPDEST PUSH0 PUSH1 0x40 DUP3 ADD SWAP1 POP PUSH2 0x24C5 PUSH0 DUP4 ADD DUP6 PUSH2 0x236C JUMP JUMPDEST PUSH2 0x24D2 PUSH1 0x20 DUP4 ADD DUP5 PUSH2 0x23FC JUMP JUMPDEST SWAP4 SWAP3 POP POP POP JUMP JUMPDEST PUSH0 PUSH1 0x20 DUP3 DUP5 SUB SLT ISZERO PUSH2 0x24EE JUMPI PUSH2 0x24ED PUSH2 0x2193 JUMP JUMPDEST JUMPDEST PUSH0 PUSH2 0x24FB DUP5 DUP3 DUP6 ADD PUSH2 0x23AA JUMP JUMPDEST SWAP2 POP POP SWAP3 SWAP2 POP POP JUMP JUMPDEST PUSH2 0x250D DUP2 PUSH2 0x221B JUMP JUMPDEST DUP2 EQ PUSH2 0x2517 JUMPI PUSH0 PUSH0 REVERT JUMPDEST POP JUMP JUMPDEST PUSH0 DUP2 CALLDATALOAD SWAP1 POP PUSH2 0x2528 DUP2 PUSH2 0x2504 JUMP JUMPDEST SWAP3 SWAP2 POP POP JUMP JUMPDEST PUSH0 PUSH0 PUSH1 0x40 DUP4 DUP6 SUB SLT ISZERO PUSH2 0x2544 JUMPI PUSH2 0x2543 PUSH2 0x2193 JUMP JUMPDEST JUMPDEST PUSH0 PUSH2 0x2551 DUP6 DUP3 DUP7 ADD PUSH2 0x23AA JUMP JUMPDEST SWAP3 POP POP PUSH1 0x20 PUSH2 0x2562 DUP6 DUP3 DUP7 ADD PUSH2 0x251A JUMP JUMPDEST SWAP2 POP POP SWAP3 POP SWAP3 SWAP1 POP JUMP JUMPDEST PUSH0 PUSH12 0xFFFFFFFFFFFFFFFFFFFFFFFF DUP3 AND SWAP1 POP SWAP2 SWAP1 POP JUMP JUMPDEST PUSH2 0x258C DUP2 PUSH2 0x256C JUMP JUMPDEST DUP2 EQ PUSH2 0x2596 JUMPI PUSH0 PUSH0 REVERT JUMPDEST POP JUMP JUMPDEST PUSH0 DUP2 CALLDATALOAD SWAP1 POP PUSH2 0x25A7 DUP2 PUSH2 0x2583 JUMP JUMPDEST SWAP3 SWAP2 POP POP JUMP JUMPDEST PUSH0 PUSH0 PUSH1 0x40 DUP4 DUP6 SUB SLT ISZERO PUSH2 0x25C3 JUMPI PUSH2 0x25C2 PUSH2 0x2193 JUMP JUMPDEST JUMPDEST PUSH0 PUSH2 0x25D0 DUP6 DUP3 DUP7 ADD PUSH2 0x23AA JUMP JUMPDEST SWAP3 POP POP PUSH1 0x20 PUSH2 0x25E1 DUP6 DUP3 DUP7 ADD PUSH2 0x2599 JUMP JUMPDEST SWAP2 POP POP SWAP3 POP SWAP3 SWAP1 POP JUMP JUMPDEST PUSH0 PUSH0 REVERT JUMPDEST PUSH0 PUSH0 REVERT JUMPDEST PUSH32 0x4E487B7100000000000000000000000000000000000000000000000000000000 PUSH0 MSTORE PUSH1 0x41 PUSH1 0x4 MSTORE PUSH1 0x24 PUSH0 REVERT JUMPDEST PUSH2 0x2629 DUP3 PUSH2 0x2276 JUMP JUMPDEST DUP2 ADD DUP2 DUP2 LT PUSH8 0xFFFFFFFFFFFFFFFF DUP3 GT OR ISZERO PUSH2 0x2648 JUMPI PUSH2 0x2647 PUSH2 0x25F3 JUMP JUMPDEST JUMPDEST DUP1 PUSH1 0x40 MSTORE POP POP POP JUMP JUMPDEST PUSH0 PUSH2 0x265A PUSH2 0x218A JUMP JUMPDEST SWAP1 POP PUSH2 0x2666 DUP3 DUP3 PUSH2 0x2620 JUMP JUMPDEST SWAP2 SWAP1 POP JUMP JUMPDEST PUSH0 PUSH8 0xFFFFFFFFFFFFFFFF DUP3 GT ISZERO PUSH2 0x2685 JUMPI PUSH2 0x2684 PUSH2 0x25F3 JUMP JUMPDEST JUMPDEST PUSH2 0x268E DUP3 PUSH2 0x2276 JUMP JUMPDEST SWAP1 POP PUSH1 0x20 DUP2 ADD SWAP1 POP SWAP2 SWAP1 POP JUMP JUMPDEST DUP3 DUP2 DUP4 CALLDATACOPY PUSH0 DUP4 DUP4 ADD MSTORE POP POP POP JUMP JUMPDEST PUSH0 PUSH2 0x26BB PUSH2 0x26B6 DUP5 PUSH2 0x266B JUMP JUMPDEST PUSH2 0x2651 JUMP JUMPDEST SWAP1 POP DUP3 DUP2 MSTORE PUSH1 0x20 DUP2 ADD DUP5 DUP5 DUP5 ADD GT ISZERO PUSH2 0x26D7 JUMPI PUSH2 0x26D6 PUSH2 0x25EF JUMP JUMPDEST JUMPDEST PUSH2 0x26E2 DUP5 DUP3 DUP6 PUSH2 0x269B JUMP JUMPDEST POP SWAP4 SWAP3 POP POP POP JUMP JUMPDEST PUSH0 DUP3 PUSH1 0x1F DUP4 ADD SLT PUSH2 0x26FE JUMPI PUSH2 0x26FD PUSH2 0x25EB JUMP JUMPDEST JUMPDEST DUP2 CALLDATALOAD PUSH2 0x270E DUP5 DUP3 PUSH1 0x20 DUP7 ADD PUSH2 0x26A9 JUMP JUMPDEST SWAP2 POP POP SWAP3 SWAP2 POP POP JUMP JUMPDEST PUSH0 PUSH0 PUSH0 PUSH0 PUSH1 0x80 DUP6 DUP8 SUB SLT ISZERO PUSH2 0x272F JUMPI PUSH2 0x272E PUSH2 0x2193 JUMP JUMPDEST JUMPDEST PUSH0 PUSH2 0x273C DUP8 DUP3 DUP9 ADD PUSH2 0x23AA JUMP JUMPDEST SWAP5 POP POP PUSH1 0x20 PUSH2 0x274D DUP8 DUP3 DUP9 ADD PUSH2 0x23AA JUMP JUMPDEST SWAP4 POP POP PUSH1 0x40 PUSH2 0x275E DUP8 DUP3 DUP9 ADD PUSH2 0x22FD JUMP JUMPDEST SWAP3 POP POP PUSH1 0x60 DUP6 ADD CALLDATALOAD PUSH8 0xFFFFFFFFFFFFFFFF DUP2 GT ISZERO PUSH2 0x277F JUMPI PUSH2 0x277E PUSH2 0x2197 JUMP JUMPDEST JUMPDEST PUSH2 0x278B DUP8 DUP3 DUP9 ADD PUSH2 0x26EA JUMP JUMPDEST SWAP2 POP POP SWAP3 SWAP6 SWAP2 SWAP5 POP SWAP3 POP JUMP JUMPDEST PUSH0 PUSH8 0xFFFFFFFFFFFFFFFF DUP3 GT ISZERO PUSH2 0x27B1 JUMPI PUSH2 0x27B0 PUSH2 0x25F3 JUMP JUMPDEST JUMPDEST PUSH2 0x27BA DUP3 PUSH2 0x2276 JUMP JUMPDEST SWAP1 POP PUSH1 0x20 DUP2 ADD SWAP1 POP SWAP2 SWAP1 POP JUMP JUMPDEST PUSH0 PUSH2 0x27D9 PUSH2 0x27D4 DUP5 PUSH2 0x2797 JUMP JUMPDEST PUSH2 0x2651 JUMP JUMPDEST SWAP1 POP DUP3 DUP2 MSTORE PUSH1 0x20 DUP2 ADD DUP5 DUP5 DUP5 ADD GT ISZERO PUSH2 0x27F5 JUMPI PUSH2 0x27F4 PUSH2 0x25EF JUMP JUMPDEST JUMPDEST PUSH2 0x2800 DUP5 DUP3 DUP6 PUSH2 0x269B JUMP JUMPDEST POP SWAP4 SWAP3 POP POP POP JUMP JUMPDEST PUSH0 DUP3 PUSH1 0x1F DUP4 ADD SLT PUSH2 0x281C JUMPI PUSH2 0x281B PUSH2 0x25EB JUMP JUMPDEST JUMPDEST DUP2 CALLDATALOAD PUSH2 0x282C DUP5 DUP3 PUSH1 0x20 DUP7 ADD PUSH2 0x27C7 JUMP JUMPDEST SWAP2 POP POP SWAP3 SWAP2 POP POP JUMP JUMPDEST PUSH0 PUSH0 PUSH0 PUSH1 0x60 DUP5 DUP7 SUB SLT ISZERO PUSH2 0x284C JUMPI PUSH2 0x284B PUSH2 0x2193 JUMP JUMPDEST JUMPDEST PUSH0 PUSH2 0x2859 DUP7 DUP3 DUP8 ADD PUSH2 0x23AA JUMP JUMPDEST SWAP4 POP POP PUSH1 0x20 DUP5 ADD CALLDATALOAD PUSH8 0xFFFFFFFFFFFFFFFF DUP2 GT ISZERO PUSH2 0x287A JUMPI PUSH2 0x2879 PUSH2 0x2197 JUMP JUMPDEST JUMPDEST PUSH2 0x2886 DUP7 DUP3 DUP8 ADD PUSH2 0x2808 JUMP JUMPDEST SWAP3 POP POP PUSH1 0x40 PUSH2 0x2897 DUP7 DUP3 DUP8 ADD PUSH2 0x22FD JUMP JUMPDEST SWAP2 POP POP SWAP3 POP SWAP3 POP SWAP3 JUMP JUMPDEST PUSH0 PUSH0 PUSH1 0x40 DUP4 DUP6 SUB SLT ISZERO PUSH2 0x28B7 JUMPI PUSH2 0x28B6 PUSH2 0x2193 JUMP JUMPDEST JUMPDEST PUSH0 PUSH2 0x28C4 DUP6 DUP3 DUP7 ADD PUSH2 0x23AA JUMP JUMPDEST SWAP3 POP POP PUSH1 0x20 PUSH2 0x28D5 DUP6 DUP3 DUP7 ADD PUSH2 0x23AA JUMP JUMPDEST SWAP2 POP POP SWAP3 POP SWAP3 SWAP1 POP JUMP JUMPDEST PUSH32 0x4E487B7100000000000000000000000000000000000000000000000000000000 PUSH0 MSTORE PUSH1 0x22 PUSH1 0x4 MSTORE PUSH1 0x24 PUSH0 REVERT JUMPDEST PUSH0 PUSH1 0x2 DUP3 DIV SWAP1 POP PUSH1 0x1 DUP3 AND DUP1 PUSH2 0x2923 JUMPI PUSH1 0x7F DUP3 AND SWAP2 POP JUMPDEST PUSH1 0x20 DUP3 LT DUP2 SUB PUSH2 0x2936 JUMPI PUSH2 0x2935 PUSH2 0x28DF JUMP JUMPDEST JUMPDEST POP SWAP2 SWAP1 POP JUMP JUMPDEST PUSH0 PUSH1 0x60 DUP3 ADD SWAP1 POP PUSH2 0x294F PUSH0 DUP4 ADD DUP7 PUSH2 0x236C JUMP JUMPDEST PUSH2 0x295C PUSH1 0x20 DUP4 ADD DUP6 PUSH2 0x23FC JUMP JUMPDEST PUSH2 0x2969 PUSH1 0x40 DUP4 ADD DUP5 PUSH2 0x236C JUMP JUMPDEST SWAP5 SWAP4 POP POP POP POP JUMP JUMPDEST PUSH32 0x4E487B7100000000000000000000000000000000000000000000000000000000 PUSH0 MSTORE PUSH1 0x11 PUSH1 0x4 MSTORE PUSH1 0x24 PUSH0 REVERT JUMPDEST PUSH0 PUSH2 0x29A8 DUP3 PUSH2 0x22DE JUMP JUMPDEST SWAP2 POP PUSH2 0x29B3 DUP4 PUSH2 0x22DE JUMP JUMPDEST SWAP3 POP DUP3 DUP3 MUL PUSH2 0x29C1 DUP2 PUSH2 0x22DE JUMP JUMPDEST SWAP2 POP DUP3 DUP3 DIV DUP5 EQ DUP4 ISZERO OR PUSH2 0x29D8 JUMPI PUSH2 0x29D7 PUSH2 0x2971 JUMP JUMPDEST JUMPDEST POP SWAP3 SWAP2 POP POP JUMP JUMPDEST PUSH32 0x4E487B7100000000000000000000000000000000000000000000000000000000 PUSH0 MSTORE PUSH1 0x12 PUSH1 0x4 MSTORE PUSH1 0x24 PUSH0 REVERT JUMPDEST PUSH0 PUSH2 0x2A16 DUP3 PUSH2 0x22DE JUMP JUMPDEST SWAP2 POP PUSH2 0x2A21 DUP4 PUSH2 0x22DE JUMP JUMPDEST SWAP3 POP DUP3 PUSH2 0x2A31 JUMPI PUSH2 0x2A30 PUSH2 0x29DF JUMP JUMPDEST JUMPDEST DUP3 DUP3 DIV SWAP1 POP SWAP3 SWAP2 POP POP JUMP JUMPDEST PUSH32 0x546F6B656E20646F6573206E6F74206578697374000000000000000000000000 PUSH0 DUP3 ADD MSTORE POP JUMP JUMPDEST PUSH0 PUSH2 0x2A70 PUSH1 0x14 DUP4 PUSH2 0x2258 JUMP JUMPDEST SWAP2 POP PUSH2 0x2A7B DUP3 PUSH2 0x2A3C JUMP JUMPDEST PUSH1 0x20 DUP3 ADD SWAP1 POP SWAP2 SWAP1 POP JUMP JUMPDEST PUSH0 PUSH1 0x20 DUP3 ADD SWAP1 POP DUP2 DUP2 SUB PUSH0 DUP4 ADD MSTORE PUSH2 0x2A9D DUP2 PUSH2 0x2A64 JUMP JUMPDEST SWAP1 POP SWAP2 SWAP1 POP JUMP JUMPDEST PUSH2 0x2AAD DUP2 PUSH2 0x256C JUMP JUMPDEST DUP3 MSTORE POP POP JUMP JUMPDEST PUSH0 PUSH1 0x20 DUP3 ADD SWAP1 POP PUSH2 0x2AC6 PUSH0 DUP4 ADD DUP5 PUSH2 0x2AA4 JUMP JUMPDEST SWAP3 SWAP2 POP POP JUMP JUMPDEST PUSH32 0x4E6F7420617574686F72697A656420746F206D696E7400000000000000000000 PUSH0 DUP3 ADD MSTORE POP JUMP JUMPDEST PUSH0 PUSH2 0x2B00 PUSH1 0x16 DUP4 PUSH2 0x2258 JUMP JUMPDEST SWAP2 POP PUSH2 0x2B0B DUP3 PUSH2 0x2ACC JUMP JUMPDEST PUSH1 0x20 DUP3 ADD SWAP1 POP SWAP2 SWAP1 POP JUMP JUMPDEST PUSH0 PUSH1 0x20 DUP3 ADD SWAP1 POP DUP2 DUP2 SUB PUSH0 DUP4 ADD MSTORE PUSH2 0x2B2D DUP2 PUSH2 0x2AF4 JUMP JUMPDEST SWAP1 POP SWAP2 SWAP1 POP JUMP JUMPDEST PUSH0 PUSH2 0x2B3E DUP3 PUSH2 0x22DE JUMP JUMPDEST SWAP2 POP PUSH32 0xFFFFFFFFFFFFFFFFFFFFFFFFFFFFFFFFFFFFFFFFFFFFFFFFFFFFFFFFFFFFFFFF DUP3 SUB PUSH2 0x2B70 JUMPI PUSH2 0x2B6F PUSH2 0x2971 JUMP JUMPDEST JUMPDEST PUSH1 0x1 DUP3 ADD SWAP1 POP SWAP2 SWAP1 POP JUMP JUMPDEST PUSH0 PUSH1 0x40 DUP3 ADD SWAP1 POP DUP2 DUP2 SUB PUSH0 DUP4 ADD MSTORE PUSH2 0x2B93 DUP2 DUP6 PUSH2 0x2286 JUMP JUMPDEST SWAP1 POP PUSH2 0x2BA2 PUSH1 0x20 DUP4 ADD DUP5 PUSH2 0x23FC JUMP JUMPDEST SWAP4 SWAP3 POP POP POP JUMP JUMPDEST PUSH0 DUP2 MLOAD SWAP1 POP SWAP2 SWAP1 POP JUMP JUMPDEST PUSH0 DUP3 DUP3 MSTORE PUSH1 0x20 DUP3 ADD SWAP1 POP SWAP3 SWAP2 POP POP JUMP JUMPDEST PUSH0 PUSH2 0x2BCD DUP3 PUSH2 0x2BA9 JUMP JUMPDEST PUSH2 0x2BD7 DUP2 DUP6 PUSH2 0x2BB3 JUMP JUMPDEST SWAP4 POP PUSH2 0x2BE7 DUP2 DUP6 PUSH1 0x20 DUP7 ADD PUSH2 0x2268 JUMP JUMPDEST PUSH2 0x2BF0 DUP2 PUSH2 0x2276 JUMP JUMPDEST DUP5 ADD SWAP2 POP POP SWAP3 SWAP2 POP POP JUMP JUMPDEST PUSH0 PUSH1 0x80 DUP3 ADD SWAP1 POP PUSH2 0x2C0E PUSH0 DUP4 ADD DUP8 PUSH2 0x236C JUMP JUMPDEST PUSH2 0x2C1B PUSH1 0x20 DUP4 ADD DUP7 PUSH2 0x236C JUMP JUMPDEST PUSH2 0x2C28 PUSH1 0x40 DUP4 ADD DUP6 PUSH2 0x23FC JUMP JUMPDEST DUP2 DUP2 SUB PUSH1 0x60 DUP4 ADD MSTORE PUSH2 0x2C3A DUP2 DUP5 PUSH2 0x2BC3 JUMP JUMPDEST SWAP1 POP SWAP6 SWAP5 POP POP POP POP POP JUMP JUMPDEST PUSH0 DUP2 MLOAD SWAP1 POP PUSH2 0x2C53 DUP2 PUSH2 0x21C6 JUMP JUMPDEST SWAP3 SWAP2 POP POP JUMP JUMPDEST PUSH0 PUSH1 0x20 DUP3 DUP5 SUB SLT ISZERO PUSH2 0x2C6E JUMPI PUSH2 0x2C6D PUSH2 0x2193 JUMP JUMPDEST JUMPDEST PUSH0 PUSH2 0x2C7B DUP5 DUP3 DUP6 ADD PUSH2 0x2C45 JUMP JUMPDEST SWAP2 POP POP SWAP3 SWAP2 POP POP JUMP JUMPDEST PUSH0 DUP2 SWAP1 POP SWAP3 SWAP2 POP POP JUMP JUMPDEST PUSH0 PUSH2 0x2C98 DUP3 PUSH2 0x224E JUMP JUMPDEST PUSH2 0x2CA2 DUP2 DUP6 PUSH2 0x2C84 JUMP JUMPDEST SWAP4 POP PUSH2 0x2CB2 DUP2 DUP6 PUSH1 0x20 DUP7 ADD PUSH2 0x2268 JUMP JUMPDEST DUP1 DUP5 ADD SWAP2 POP POP SWAP3 SWAP2 POP POP JUMP JUMPDEST PUSH0 PUSH2 0x2CC9 DUP3 DUP6 PUSH2 0x2C8E JUMP JUMPDEST SWAP2 POP PUSH2 0x2CD5 DUP3 DUP5 PUSH2 0x2C8E JUMP JUMPDEST SWAP2 POP DUP2 SWAP1 POP SWAP4 SWAP3 POP POP POP JUMP JUMPDEST PUSH32 0x5265656E7472616E637947756172643A207265656E7472616E742063616C6C00 PUSH0 DUP3 ADD MSTORE POP JUMP JUMPDEST PUSH0 PUSH2 0x2D15 PUSH1 0x1F DUP4 PUSH2 0x2258 JUMP JUMPDEST SWAP2 POP PUSH2 0x2D20 DUP3 PUSH2 0x2CE1 JUMP JUMPDEST PUSH1 0x20 DUP3 ADD SWAP1 POP SWAP2 SWAP1 POP JUMP JUMPDEST PUSH0 PUSH1 0x20 DUP3 ADD SWAP1 POP DUP2 DUP2 SUB PUSH0 DUP4 ADD MSTORE PUSH2 0x2D42 DUP2 PUSH2 0x2D09 JUMP JUMPDEST SWAP1 POP SWAP2 SWAP1 POP JUMP JUMPDEST PUSH0 DUP2 SWAP1 POP DUP2 PUSH0 MSTORE PUSH1 0x20 PUSH0 KECCAK256 SWAP1 POP SWAP2 SWAP1 POP JUMP JUMPDEST PUSH0 PUSH1 0x20 PUSH1 0x1F DUP4 ADD DIV SWAP1 POP SWAP2 SWAP1 POP JUMP JUMPDEST PUSH0 DUP3 DUP3 SHL SWAP1 POP SWAP3 SWAP2 POP POP JUMP JUMPDEST PUSH0 PUSH1 0x8 DUP4 MUL PUSH2 0x2DA5 PUSH32 0xFFFFFFFFFFFFFFFFFFFFFFFFFFFFFFFFFFFFFFFFFFFFFFFFFFFFFFFFFFFFFFFF DUP3 PUSH2 0x2D6A JUMP JUMPDEST PUSH2 0x2DAF DUP7 DUP4 PUSH2 0x2D6A JUMP JUMPDEST SWAP6 POP DUP1 NOT DUP5 AND SWAP4 POP DUP1 DUP7 AND DUP5 OR SWAP3 POP POP POP SWAP4 SWAP3 POP POP POP JUMP JUMPDEST PUSH0 DUP2 SWAP1 POP SWAP2 SWAP1 POP JUMP JUMPDEST PUSH0 PUSH2 0x2DEA PUSH2 0x2DE5 PUSH2 0x2DE0 DUP5 PUSH2 0x22DE JUMP JUMPDEST PUSH2 0x2DC7 JUMP JUMPDEST PUSH2 0x22DE JUMP JUMPDEST SWAP1 POP SWAP2 SWAP1 POP JUMP JUMPDEST PUSH0 DUP2 SWAP1 POP SWAP2 SWAP1 POP JUMP JUMPDEST PUSH2 0x2E03 DUP4 PUSH2 0x2DD0 JUMP JUMPDEST PUSH2 0x2E17 PUSH2 0x2E0F DUP3 PUSH2 0x2DF1 JUMP JUMPDEST DUP5 DUP5 SLOAD PUSH2 0x2D76 JUMP JUMPDEST DUP3 SSTORE POP POP POP POP JUMP JUMPDEST PUSH0 PUSH0 SWAP1 POP SWAP1 JUMP JUMPDEST PUSH2 0x2E2E PUSH2 0x2E1F JUMP JUMPDEST PUSH2 0x2E39 DUP2 DUP5 DUP5 PUSH2 0x2DFA JUMP JUMPDEST POP POP POP JUMP JUMPDEST JUMPDEST DUP2 DUP2 LT ISZERO PUSH2 0x2E5C JUMPI PUSH2 0x2E51 PUSH0 DUP3 PUSH2 0x2E26 JUMP JUMPDEST PUSH1 0x1 DUP2 ADD SWAP1 POP PUSH2 0x2E3F JUMP JUMPDEST POP POP JUMP JUMPDEST PUSH1 0x1F DUP3 GT ISZERO PUSH2 0x2EA1 JUMPI PUSH2 0x2E72 DUP2 PUSH2 0x2D49 JUMP JUMPDEST PUSH2 0x2E7B DUP5 PUSH2 0x2D5B JUMP JUMPDEST DUP2 ADD PUSH1 0x20 DUP6 LT ISZERO PUSH2 0x2E8A JUMPI DUP2 SWAP1 POP JUMPDEST PUSH2 0x2E9E PUSH2 0x2E96 DUP6 PUSH2 0x2D5B JUMP JUMPDEST DUP4 ADD DUP3 PUSH2 0x2E3E JUMP JUMPDEST POP POP JUMPDEST POP POP POP JUMP JUMPDEST PUSH0 DUP3 DUP3 SHR SWAP1 POP SWAP3 SWAP2 POP POP JUMP JUMPDEST PUSH0 PUSH2 0x2EC1 PUSH0 NOT DUP5 PUSH1 0x8 MUL PUSH2 0x2EA6 JUMP JUMPDEST NOT DUP1 DUP4 AND SWAP2 POP POP SWAP3 SWAP2 POP POP JUMP JUMPDEST PUSH0 PUSH2 0x2ED9 DUP4 DUP4 PUSH2 0x2EB2 JUMP JUMPDEST SWAP2 POP DUP3 PUSH1 0x2 MUL DUP3 OR SWAP1 POP SWAP3 SWAP2 POP POP JUMP JUMPDEST PUSH2 0x2EF2 DUP3 PUSH2 0x224E JUMP JUMPDEST PUSH8 0xFFFFFFFFFFFFFFFF DUP2 GT ISZERO PUSH2 0x2F0B JUMPI PUSH2 0x2F0A PUSH2 0x25F3 JUMP JUMPDEST JUMPDEST PUSH2 0x2F15 DUP3 SLOAD PUSH2 0x290C JUMP JUMPDEST PUSH2 0x2F20 DUP3 DUP3 DUP6 PUSH2 0x2E60 JUMP JUMPDEST PUSH0 PUSH1 0x20 SWAP1 POP PUSH1 0x1F DUP4 GT PUSH1 0x1 DUP2 EQ PUSH2 0x2F51 JUMPI PUSH0 DUP5 ISZERO PUSH2 0x2F3F JUMPI DUP3 DUP8 ADD MLOAD SWAP1 POP JUMPDEST PUSH2 0x2F49 DUP6 DUP3 PUSH2 0x2ECE JUMP JUMPDEST DUP7 SSTORE POP PUSH2 0x2FB0 JUMP JUMPDEST PUSH1 0x1F NOT DUP5 AND PUSH2 0x2F5F DUP7 PUSH2 0x2D49 JUMP JUMPDEST PUSH0 JUMPDEST DUP3 DUP2 LT ISZERO PUSH2 0x2F86 JUMPI DUP5 DUP10 ADD MLOAD DUP3 SSTORE PUSH1 0x1 DUP3 ADD SWAP2 POP PUSH1 0x20 DUP6 ADD SWAP5 POP PUSH1 0x20 DUP2 ADD SWAP1 POP PUSH2 0x2F61 JUMP JUMPDEST DUP7 DUP4 LT ISZERO PUSH2 0x2FA3 JUMPI DUP5 DUP10 ADD MLOAD PUSH2 0x2F9F PUSH1 0x1F DUP10 AND DUP3 PUSH2 0x2EB2 JUMP JUMPDEST DUP4 SSTORE POP JUMPDEST PUSH1 0x1 PUSH1 0x2 DUP9 MUL ADD DUP9 SSTORE POP POP POP JUMPDEST POP POP POP POP POP POP JUMP INVALID LOG2 PUSH5 0x6970667358 0x22 SLT KECCAK256 0xCA TSTORE 0xC9 0xB0 SWAP9 0x2C PUSH25 0xF3863623B0DAD8E7D45096BFD8282FE2BCCCECEB9014EEC35E PUSH5 0x736F6C6343 STOP ADDMOD 0x1E STOP CALLER "
		},
		"gasEstimates": {
			"creation": {
				"codeDepositCost": "2454000",
				"executionCost": "infinite",
				"totalCost": "infinite"
			},
			"external": {
				"approve(address,uint256)": "infinite",
				"balanceOf(address)": "infinite",
				"getApproved(uint256)": "infinite",
				"getPaywall(uint256)": "infinite",
				"isApprovedForAll(address,address)": "infinite",
				"mintJournal(address,string,uint256)": "infinite",
				"name()": "infinite",
				"owner()": "2604",
				"ownerOf(uint256)": "infinite",
				"paused()": "2606",
				"paywallAmounts(uint256)": "infinite",
				"renounceOwnership()": "infinite",
				"royaltyInfo(uint256,uint256)": "infinite",
				"safeTransferFrom(address,address,uint256)": "infinite",
				"safeTransferFrom(address,address,uint256,bytes)": "infinite",
				"setApprovalForAll(address,bool)": "infinite",
				"setPaywall(uint256,uint256)": "infinite",
				"setRoyalty(address,uint96)": "infinite",
				"setWhitelist(address,bool)": "infinite",
				"supportsInterface(bytes4)": "969",
				"symbol()": "infinite",
				"tokenURI(uint256)": "infinite",
				"transferFrom(address,address,uint256)": "infinite",
				"transferOwnership(address)": "infinite",
				"whitelistedContracts(address)": "2900"
			},
			"internal": {
				"_update(address,uint256,address)": "infinite"
			}
		},
		"methodIdentifiers": {
			"approve(address,uint256)": "095ea7b3",
			"balanceOf(address)": "70a08231",
			"getApproved(uint256)": "081812fc",
			"getPaywall(uint256)": "ecaba784",
			"isApprovedForAll(address,address)": "e985e9c5",
			"mintJournal(address,string,uint256)": "d06f509e",
			"name()": "06fdde03",
			"owner()": "8da5cb5b",
			"ownerOf(uint256)": "6352211e",
			"paused()": "5c975abb",
			"paywallAmounts(uint256)": "1eafe195",
			"renounceOwnership()": "715018a6",
			"royaltyInfo(uint256,uint256)": "2a55205a",
			"safeTransferFrom(address,address,uint256)": "42842e0e",
			"safeTransferFrom(address,address,uint256,bytes)": "b88d4fde",
			"setApprovalForAll(address,bool)": "a22cb465",
			"setPaywall(uint256,uint256)": "2ae2b729",
			"setRoyalty(address,uint96)": "8f2fc60b",
			"setWhitelist(address,bool)": "53d6fd59",
			"supportsInterface(bytes4)": "01ffc9a7",
			"symbol()": "95d89b41",
			"tokenURI(uint256)": "c87b56dd",
			"transferFrom(address,address,uint256)": "23b872dd",
			"transferOwnership(address)": "f2fde38b",
			"whitelistedContracts(address)": "391feebb"
		}
	},
	"abi": [
		{
			"inputs": [
				{
					"internalType": "address",
					"name": "royaltyReceiver",
					"type": "address"
				}
			],
			"stateMutability": "nonpayable",
			"type": "constructor"
		},
		{
			"inputs": [
				{
					"internalType": "address",
					"name": "sender",
					"type": "address"
				},
				{
					"internalType": "uint256",
					"name": "tokenId",
					"type": "uint256"
				},
				{
					"internalType": "address",
					"name": "owner",
					"type": "address"
				}
			],
			"name": "ERC721IncorrectOwner",
			"type": "error"
		},
		{
			"inputs": [
				{
					"internalType": "address",
					"name": "operator",
					"type": "address"
				},
				{
					"internalType": "uint256",
					"name": "tokenId",
					"type": "uint256"
				}
			],
			"name": "ERC721InsufficientApproval",
			"type": "error"
		},
		{
			"inputs": [
				{
					"internalType": "address",
					"name": "approver",
					"type": "address"
				}
			],
			"name": "ERC721InvalidApprover",
			"type": "error"
		},
		{
			"inputs": [
				{
					"internalType": "address",
					"name": "operator",
					"type": "address"
				}
			],
			"name": "ERC721InvalidOperator",
			"type": "error"
		},
		{
			"inputs": [
				{
					"internalType": "address",
					"name": "owner",
					"type": "address"
				}
			],
			"name": "ERC721InvalidOwner",
			"type": "error"
		},
		{
			"inputs": [
				{
					"internalType": "address",
					"name": "receiver",
					"type": "address"
				}
			],
			"name": "ERC721InvalidReceiver",
			"type": "error"
		},
		{
			"inputs": [
				{
					"internalType": "address",
					"name": "sender",
					"type": "address"
				}
			],
			"name": "ERC721InvalidSender",
			"type": "error"
		},
		{
			"inputs": [
				{
					"internalType": "uint256",
					"name": "tokenId",
					"type": "uint256"
				}
			],
			"name": "ERC721NonexistentToken",
			"type": "error"
		},
		{
			"inputs": [],
			"name": "EnforcedPause",
			"type": "error"
		},
		{
			"inputs": [],
			"name": "ExpectedPause",
			"type": "error"
		},
		{
			"inputs": [
				{
					"internalType": "address",
					"name": "owner",
					"type": "address"
				}
			],
			"name": "OwnableInvalidOwner",
			"type": "error"
		},
		{
			"inputs": [
				{
					"internalType": "address",
					"name": "account",
					"type": "address"
				}
			],
			"name": "OwnableUnauthorizedAccount",
			"type": "error"
		},
		{
			"anonymous": false,
			"inputs": [
				{
					"indexed": true,
					"internalType": "address",
					"name": "owner",
					"type": "address"
				},
				{
					"indexed": true,
					"internalType": "address",
					"name": "approved",
					"type": "address"
				},
				{
					"indexed": true,
					"internalType": "uint256",
					"name": "tokenId",
					"type": "uint256"
				}
			],
			"name": "Approval",
			"type": "event"
		},
		{
			"anonymous": false,
			"inputs": [
				{
					"indexed": true,
					"internalType": "address",
					"name": "owner",
					"type": "address"
				},
				{
					"indexed": true,
					"internalType": "address",
					"name": "operator",
					"type": "address"
				},
				{
					"indexed": false,
					"internalType": "bool",
					"name": "approved",
					"type": "bool"
				}
			],
			"name": "ApprovalForAll",
			"type": "event"
		},
		{
			"anonymous": false,
			"inputs": [
				{
					"indexed": false,
					"internalType": "uint256",
					"name": "_fromTokenId",
					"type": "uint256"
				},
				{
					"indexed": false,
					"internalType": "uint256",
					"name": "_toTokenId",
					"type": "uint256"
				}
			],
			"name": "BatchMetadataUpdate",
			"type": "event"
		},
		{
			"anonymous": false,
			"inputs": [
				{
					"indexed": true,
					"internalType": "uint256",
					"name": "tokenId",
					"type": "uint256"
				},
				{
					"indexed": true,
					"internalType": "address",
					"name": "owner",
					"type": "address"
				},
				{
					"indexed": false,
					"internalType": "string",
					"name": "uri",
					"type": "string"
				},
				{
					"indexed": false,
					"internalType": "uint256",
					"name": "paywallAmount",
					"type": "uint256"
				}
			],
			"name": "JournalMinted",
			"type": "event"
		},
		{
			"anonymous": false,
			"inputs": [
				{
					"indexed": false,
					"internalType": "uint256",
					"name": "_tokenId",
					"type": "uint256"
				}
			],
			"name": "MetadataUpdate",
			"type": "event"
		},
		{
			"anonymous": false,
			"inputs": [
				{
					"indexed": true,
					"internalType": "address",
					"name": "previousOwner",
					"type": "address"
				},
				{
					"indexed": true,
					"internalType": "address",
					"name": "newOwner",
					"type": "address"
				}
			],
			"name": "OwnershipTransferred",
			"type": "event"
		},
		{
			"anonymous": false,
			"inputs": [
				{
					"indexed": false,
					"internalType": "address",
					"name": "account",
					"type": "address"
				}
			],
			"name": "Paused",
			"type": "event"
		},
		{
			"anonymous": false,
			"inputs": [
				{
					"indexed": true,
					"internalType": "uint256",
					"name": "tokenId",
					"type": "uint256"
				},
				{
					"indexed": false,
					"internalType": "uint256",
					"name": "amount",
					"type": "uint256"
				}
			],
			"name": "PaywallSet",
			"type": "event"
		},
		{
			"anonymous": false,
			"inputs": [
				{
					"indexed": true,
					"internalType": "address",
					"name": "receiver",
					"type": "address"
				},
				{
					"indexed": false,
					"internalType": "uint96",
					"name": "bps",
					"type": "uint96"
				}
			],
			"name": "RoyaltyUpdated",
			"type": "event"
		},
		{
			"anonymous": false,
			"inputs": [
				{
					"indexed": true,
					"internalType": "address",
					"name": "from",
					"type": "address"
				},
				{
					"indexed": true,
					"internalType": "address",
					"name": "to",
					"type": "address"
				},
				{
					"indexed": true,
					"internalType": "uint256",
					"name": "tokenId",
					"type": "uint256"
				}
			],
			"name": "Transfer",
			"type": "event"
		},
		{
			"anonymous": false,
			"inputs": [
				{
					"indexed": false,
					"internalType": "address",
					"name": "account",
					"type": "address"
				}
			],
			"name": "Unpaused",
			"type": "event"
		},
		{
			"anonymous": false,
			"inputs": [
				{
					"indexed": true,
					"internalType": "address",
					"name": "contractAddress",
					"type": "address"
				},
				{
					"indexed": false,
					"internalType": "bool",
					"name": "allowed",
					"type": "bool"
				}
			],
			"name": "WhitelistUpdated",
			"type": "event"
		},
		{
			"inputs": [
				{
					"internalType": "address",
					"name": "to",
					"type": "address"
				},
				{
					"internalType": "uint256",
					"name": "tokenId",
					"type": "uint256"
				}
			],
			"name": "approve",
			"outputs": [],
			"stateMutability": "nonpayable",
			"type": "function"
		},
		{
			"inputs": [
				{
					"internalType": "address",
					"name": "owner",
					"type": "address"
				}
			],
			"name": "balanceOf",
			"outputs": [
				{
					"internalType": "uint256",
					"name": "",
					"type": "uint256"
				}
			],
			"stateMutability": "view",
			"type": "function"
		},
		{
			"inputs": [
				{
					"internalType": "uint256",
					"name": "tokenId",
					"type": "uint256"
				}
			],
			"name": "getApproved",
			"outputs": [
				{
					"internalType": "address",
					"name": "",
					"type": "address"
				}
			],
			"stateMutability": "view",
			"type": "function"
		},
		{
			"inputs": [
				{
					"internalType": "uint256",
					"name": "tokenId",
					"type": "uint256"
				}
			],
			"name": "getPaywall",
			"outputs": [
				{
					"internalType": "uint256",
					"name": "",
					"type": "uint256"
				}
			],
			"stateMutability": "view",
			"type": "function"
		},
		{
			"inputs": [
				{
					"internalType": "address",
					"name": "owner",
					"type": "address"
				},
				{
					"internalType": "address",
					"name": "operator",
					"type": "address"
				}
			],
			"name": "isApprovedForAll",
			"outputs": [
				{
					"internalType": "bool",
					"name": "",
					"type": "bool"
				}
			],
			"stateMutability": "view",
			"type": "function"
		},
		{
			"inputs": [
				{
					"internalType": "address",
					"name": "to",
					"type": "address"
				},
				{
					"internalType": "string",
					"name": "uri",
					"type": "string"
				},
				{
					"internalType": "uint256",
					"name": "paywallAmount",
					"type": "uint256"
				}
			],
			"name": "mintJournal",
			"outputs": [
				{
					"internalType": "uint256",
					"name": "",
					"type": "uint256"
				}
			],
			"stateMutability": "nonpayable",
			"type": "function"
		},
		{
			"inputs": [],
			"name": "name",
			"outputs": [
				{
					"internalType": "string",
					"name": "",
					"type": "string"
				}
			],
			"stateMutability": "view",
			"type": "function"
		},
		{
			"inputs": [],
			"name": "owner",
			"outputs": [
				{
					"internalType": "address",
					"name": "",
					"type": "address"
				}
			],
			"stateMutability": "view",
			"type": "function"
		},
		{
			"inputs": [
				{
					"internalType": "uint256",
					"name": "tokenId",
					"type": "uint256"
				}
			],
			"name": "ownerOf",
			"outputs": [
				{
					"internalType": "address",
					"name": "",
					"type": "address"
				}
			],
			"stateMutability": "view",
			"type": "function"
		},
		{
			"inputs": [],
			"name": "paused",
			"outputs": [
				{
					"internalType": "bool",
					"name": "",
					"type": "bool"
				}
			],
			"stateMutability": "view",
			"type": "function"
		},
		{
			"inputs": [
				{
					"internalType": "uint256",
					"name": "",
					"type": "uint256"
				}
			],
			"name": "paywallAmounts",
			"outputs": [
				{
					"internalType": "uint256",
					"name": "",
					"type": "uint256"
				}
			],
			"stateMutability": "view",
			"type": "function"
		},
		{
			"inputs": [],
			"name": "renounceOwnership",
			"outputs": [],
			"stateMutability": "nonpayable",
			"type": "function"
		},
		{
			"inputs": [
				{
					"internalType": "uint256",
					"name": "",
					"type": "uint256"
				},
				{
					"internalType": "uint256",
					"name": "salePrice",
					"type": "uint256"
				}
			],
			"name": "royaltyInfo",
			"outputs": [
				{
					"internalType": "address",
					"name": "receiver",
					"type": "address"
				},
				{
					"internalType": "uint256",
					"name": "royaltyAmount",
					"type": "uint256"
				}
			],
			"stateMutability": "view",
			"type": "function"
		},
		{
			"inputs": [
				{
					"internalType": "address",
					"name": "from",
					"type": "address"
				},
				{
					"internalType": "address",
					"name": "to",
					"type": "address"
				},
				{
					"internalType": "uint256",
					"name": "tokenId",
					"type": "uint256"
				}
			],
			"name": "safeTransferFrom",
			"outputs": [],
			"stateMutability": "nonpayable",
			"type": "function"
		},
		{
			"inputs": [
				{
					"internalType": "address",
					"name": "from",
					"type": "address"
				},
				{
					"internalType": "address",
					"name": "to",
					"type": "address"
				},
				{
					"internalType": "uint256",
					"name": "tokenId",
					"type": "uint256"
				},
				{
					"internalType": "bytes",
					"name": "data",
					"type": "bytes"
				}
			],
			"name": "safeTransferFrom",
			"outputs": [],
			"stateMutability": "nonpayable",
			"type": "function"
		},
		{
			"inputs": [
				{
					"internalType": "address",
					"name": "operator",
					"type": "address"
				},
				{
					"internalType": "bool",
					"name": "approved",
					"type": "bool"
				}
			],
			"name": "setApprovalForAll",
			"outputs": [],
			"stateMutability": "nonpayable",
			"type": "function"
		},
		{
			"inputs": [
				{
					"internalType": "uint256",
					"name": "tokenId",
					"type": "uint256"
				},
				{
					"internalType": "uint256",
					"name": "amount",
					"type": "uint256"
				}
			],
			"name": "setPaywall",
			"outputs": [],
			"stateMutability": "nonpayable",
			"type": "function"
		},
		{
			"inputs": [
				{
					"internalType": "address",
					"name": "receiver",
					"type": "address"
				},
				{
					"internalType": "uint96",
					"name": "bps",
					"type": "uint96"
				}
			],
			"name": "setRoyalty",
			"outputs": [],
			"stateMutability": "nonpayable",
			"type": "function"
		},
		{
			"inputs": [
				{
					"internalType": "address",
					"name": "contractAddress",
					"type": "address"
				},
				{
					"internalType": "bool",
					"name": "allowed",
					"type": "bool"
				}
			],
			"name": "setWhitelist",
			"outputs": [],
			"stateMutability": "nonpayable",
			"type": "function"
		},
		{
			"inputs": [
				{
					"internalType": "bytes4",
					"name": "interfaceId",
					"type": "bytes4"
				}
			],
			"name": "supportsInterface",
			"outputs": [
				{
					"internalType": "bool",
					"name": "",
					"type": "bool"
				}
			],
			"stateMutability": "view",
			"type": "function"
		},
		{
			"inputs": [],
			"name": "symbol",
			"outputs": [
				{
					"internalType": "string",
					"name": "",
					"type": "string"
				}
			],
			"stateMutability": "view",
			"type": "function"
		},
		{
			"inputs": [
				{
					"internalType": "uint256",
					"name": "tokenId",
					"type": "uint256"
				}
			],
			"name": "tokenURI",
			"outputs": [
				{
					"internalType": "string",
					"name": "",
					"type": "string"
				}
			],
			"stateMutability": "view",
			"type": "function"
		},
		{
			"inputs": [
				{
					"internalType": "address",
					"name": "from",
					"type": "address"
				},
				{
					"internalType": "address",
					"name": "to",
					"type": "address"
				},
				{
					"internalType": "uint256",
					"name": "tokenId",
					"type": "uint256"
				}
			],
			"name": "transferFrom",
			"outputs": [],
			"stateMutability": "nonpayable",
			"type": "function"
		},
		{
			"inputs": [
				{
					"internalType": "address",
					"name": "newOwner",
					"type": "address"
				}
			],
			"name": "transferOwnership",
			"outputs": [],
			"stateMutability": "nonpayable",
			"type": "function"
		},
		{
			"inputs": [
				{
					"internalType": "address",
					"name": "",
					"type": "address"
				}
			],
			"name": "whitelistedContracts",
			"outputs": [
				{
					"internalType": "bool",
					"name": "",
					"type": "bool"
				}
			],
			"stateMutability": "view",
			"type": "function"
		}
	]
}