{
	"data": {
		"bytecode": {
			"linkReferences": {},
			"object": "60a060405234801561000f575f5ffd5b5060405161153f38038061153f83398181016040528101906100319190610276565b60015f819055508173ffffffffffffffffffffffffffffffffffffffff1660808173ffffffffffffffffffffffffffffffffffffffff168152505061007e5f5f1b826100b760201b60201c565b506100af7f65d7a28e3265b37a6474929f336521b332c1681b933f6cb9f3376673440d862a826100b760201b60201c565b5050506102b4565b5f6100c883836101ad60201b60201c565b6101a357600160025f8581526020019081526020015f205f015f8473ffffffffffffffffffffffffffffffffffffffff1673ffffffffffffffffffffffffffffffffffffffff1681526020019081526020015f205f6101000a81548160ff02191690831515021790555061014061021160201b60201c565b73ffffffffffffffffffffffffffffffffffffffff168273ffffffffffffffffffffffffffffffffffffffff16847f2f8788117e7eff1d82e926ec794901d17c78024a50270940304540a733656f0d60405160405180910390a4600190506101a7565b5f90505b92915050565b5f60025f8481526020019081526020015f205f015f8373ffffffffffffffffffffffffffffffffffffffff1673ffffffffffffffffffffffffffffffffffffffff1681526020019081526020015f205f9054906101000a900460ff16905092915050565b5f33905090565b5f5ffd5b5f73ffffffffffffffffffffffffffffffffffffffff82169050919050565b5f6102458261021c565b9050919050565b6102558161023b565b811461025f575f5ffd5b50565b5f815190506102708161024c565b92915050565b5f5f6040838503121561028c5761028b610218565b5b5f61029985828601610262565b92505060206102aa85828601610262565b9150509250929050565b6080516112656102da5f395f818161029501528181610437015261067c01526112655ff3fe608060405234801561000f575f5ffd5b50600436106100e7575f3560e01c80635c975abb1161008a57806391d148541161006457806391d148541461020b578063a217fddf1461023b578063d547741f14610259578063e63ab1e914610275576100e7565b80635c975abb146101c75780637b924592146101e55780638456cb5914610201576100e7565b80632f2ff15d116100c65780632f2ff15d14610169578063320423161461018557806336568abe146101a15780633f4ba83a146101bd576100e7565b8062dc2253146100eb57806301ffc9a714610109578063248a9ca314610139575b5f5ffd5b6100f3610293565b6040516101009190610de9565b60405180910390f35b610123600480360381019061011e9190610e5b565b6102b7565b6040516101309190610ea0565b60405180910390f35b610153600480360381019061014e9190610eec565b610330565b6040516101609190610f26565b60405180910390f35b610183600480360381019061017e9190610f7a565b61034d565b005b61019f600480360381019061019a9190610feb565b61036f565b005b6101bb60048036038101906101b69190610f7a565b6104ef565b005b6101c561056a565b005b6101cf61059f565b6040516101dc9190610ea0565b60405180910390f35b6101ff60048036038101906101fa9190610feb565b6105b4565b005b610209610734565b005b61022560048036038101906102209190610f7a565b610769565b6040516102329190610ea0565b60405180910390f35b6102436107cd565b6040516102509190610f26565b60405180910390f35b610273600480360381019061026e9190610f7a565b6107d3565b005b61027d6107f5565b60405161028a9190610f26565b60405180910390f35b7f000000000000000000000000000000000000000000000000000000000000000081565b5f7f7965db0b000000000000000000000000000000000000000000000000000000007bffffffffffffffffffffffffffffffffffffffffffffffffffffffff1916827bffffffffffffffffffffffffffffffffffffffffffffffffffffffff19161480610329575061032882610819565b5b9050919050565b5f60025f8381526020019081526020015f20600101549050919050565b61035682610330565b61035f81610882565b6103698383610896565b50505050565b610377610980565b61037f6109c4565b5f82116103c1576040517f08c379a00000000000000000000000000000000000000000000000000000000081526004016103b890611095565b60405180910390fd5b5f73ffffffffffffffffffffffffffffffffffffffff168373ffffffffffffffffffffffffffffffffffffffff160361042f576040517f08c379a0000000000000000000000000000000000000000000000000000000008152600401610426906110fd565b60405180910390fd5b61047c3384847f000000000000000000000000000000000000000000000000000000000000000073ffffffffffffffffffffffffffffffffffffffff16610a05909392919063ffffffff16565b808373ffffffffffffffffffffffffffffffffffffffff163373ffffffffffffffffffffffffffffffffffffffff167f2666090529a9df0d78d1e2d682a10b4814e66560bab350cd0e611daf7625c0e8856040516104da919061112a565b60405180910390a46104ea610a87565b505050565b6104f7610a90565b73ffffffffffffffffffffffffffffffffffffffff168173ffffffffffffffffffffffffffffffffffffffff161461055b576040517f6697b23200000000000000000000000000000000000000000000000000000000815260040160405180910390fd5b6105658282610a97565b505050565b7f65d7a28e3265b37a6474929f336521b332c1681b933f6cb9f3376673440d862a61059481610882565b61059c610b81565b50565b5f60015f9054906101000a900460ff16905090565b6105bc610980565b6105c46109c4565b5f8211610606576040517f08c379a00000000000000000000000000000000000000000000000000000000081526004016105fd90611095565b60405180910390fd5b5f73ffffffffffffffffffffffffffffffffffffffff168373ffffffffffffffffffffffffffffffffffffffff1603610674576040517f08c379a000000000000000000000000000000000000000000000000000000000815260040161066b9061118d565b60405180910390fd5b6106c13384847f000000000000000000000000000000000000000000000000000000000000000073ffffffffffffffffffffffffffffffffffffffff16610a05909392919063ffffffff16565b808373ffffffffffffffffffffffffffffffffffffffff163373ffffffffffffffffffffffffffffffffffffffff167f46caa0ebed33f94f22a64c88eb5e4283c4c91eb15dea2eda91009729f309e9ec8560405161071f919061112a565b60405180910390a461072f610a87565b505050565b7f65d7a28e3265b37a6474929f336521b332c1681b933f6cb9f3376673440d862a61075e81610882565b610766610be2565b50565b5f60025f8481526020019081526020015f205f015f8373ffffffffffffffffffffffffffffffffffffffff1673ffffffffffffffffffffffffffffffffffffffff1681526020019081526020015f205f9054906101000a900460ff16905092915050565b5f5f1b81565b6107dc82610330565b6107e581610882565b6107ef8383610a97565b50505050565b7f65d7a28e3265b37a6474929f336521b332c1681b933f6cb9f3376673440d862a81565b5f7f01ffc9a7000000000000000000000000000000000000000000000000000000007bffffffffffffffffffffffffffffffffffffffffffffffffffffffff1916827bffffffffffffffffffffffffffffffffffffffffffffffffffffffff1916149050919050565b6108938161088e610a90565b610c43565b50565b5f6108a18383610769565b61097657600160025f8581526020019081526020015f205f015f8473ffffffffffffffffffffffffffffffffffffffff1673ffffffffffffffffffffffffffffffffffffffff1681526020019081526020015f205f6101000a81548160ff021916908315150217905550610913610a90565b73ffffffffffffffffffffffffffffffffffffffff168273ffffffffffffffffffffffffffffffffffffffff16847f2f8788117e7eff1d82e926ec794901d17c78024a50270940304540a733656f0d60405160405180910390a46001905061097a565b5f90505b92915050565b60025f54036109bb576040517f3ee5aeb500000000000000000000000000000000000000000000000000000000815260040160405180910390fd5b60025f81905550565b6109cc61059f565b15610a03576040517fd93c066500000000000000000000000000000000000000000000000000000000815260040160405180910390fd5b565b610a81848573ffffffffffffffffffffffffffffffffffffffff166323b872dd868686604051602401610a3a939291906111ba565b604051602081830303815290604052915060e01b6020820180517bffffffffffffffffffffffffffffffffffffffffffffffffffffffff8381831617835250505050610c94565b50505050565b60015f81905550565b5f33905090565b5f610aa28383610769565b15610b77575f60025f8581526020019081526020015f205f015f8473ffffffffffffffffffffffffffffffffffffffff1673ffffffffffffffffffffffffffffffffffffffff1681526020019081526020015f205f6101000a81548160ff021916908315150217905550610b14610a90565b73ffffffffffffffffffffffffffffffffffffffff168273ffffffffffffffffffffffffffffffffffffffff16847ff6391f5c32d9c69d2a47ea670b442974b53935d1edc7fd64eb21e047a839171b60405160405180910390a460019050610b7b565b5f90505b92915050565b610b89610d2f565b5f60015f6101000a81548160ff0219169083151502179055507f5db9ee0a495bf2e6ff9c91a7834c1ba4fdd244a5e8aa4e537bd38aeae4b073aa610bcb610a90565b604051610bd891906111ef565b60405180910390a1565b610bea6109c4565b6001805f6101000a81548160ff0219169083151502179055507f62e78cea01bee320cd4e420270b5ea74000d11b0c9f74754ebdbfc544b05a258610c2c610a90565b604051610c3991906111ef565b60405180910390a1565b610c4d8282610769565b610c905780826040517fe2517d3f000000000000000000000000000000000000000000000000000000008152600401610c87929190611208565b60405180910390fd5b5050565b5f5f60205f8451602086015f885af180610cb3576040513d5f823e3d81fd5b3d92505f519150505f8214610ccc576001811415610ce7565b5f8473ffffffffffffffffffffffffffffffffffffffff163b145b15610d2957836040517f5274afe7000000000000000000000000000000000000000000000000000000008152600401610d2091906111ef565b60405180910390fd5b50505050565b610d3761059f565b610d6d576040517f8dfc202b00000000000000000000000000000000000000000000000000000000815260040160405180910390fd5b565b5f73ffffffffffffffffffffffffffffffffffffffff82169050919050565b5f819050919050565b5f610db1610dac610da784610d6f565b610d8e565b610d6f565b9050919050565b5f610dc282610d97565b9050919050565b5f610dd382610db8565b9050919050565b610de381610dc9565b82525050565b5f602082019050610dfc5f830184610dda565b92915050565b5f5ffd5b5f7fffffffff0000000000000000000000000000000000000000000000000000000082169050919050565b610e3a81610e06565b8114610e44575f5ffd5b50565b5f81359050610e5581610e31565b92915050565b5f60208284031215610e7057610e6f610e02565b5b5f610e7d84828501610e47565b91505092915050565b5f8115159050919050565b610e9a81610e86565b82525050565b5f602082019050610eb35f830184610e91565b92915050565b5f819050919050565b610ecb81610eb9565b8114610ed5575f5ffd5b50565b5f81359050610ee681610ec2565b92915050565b5f60208284031215610f0157610f00610e02565b5b5f610f0e84828501610ed8565b91505092915050565b610f2081610eb9565b82525050565b5f602082019050610f395f830184610f17565b92915050565b5f610f4982610d6f565b9050919050565b610f5981610f3f565b8114610f63575f5ffd5b50565b5f81359050610f7481610f50565b92915050565b5f5f60408385031215610f9057610f8f610e02565b5b5f610f9d85828601610ed8565b9250506020610fae85828601610f66565b9150509250929050565b5f819050919050565b610fca81610fb8565b8114610fd4575f5ffd5b50565b5f81359050610fe581610fc1565b92915050565b5f5f5f6060848603121561100257611001610e02565b5b5f61100f86828701610f66565b935050602061102086828701610fd7565b925050604061103186828701610fd7565b9150509250925092565b5f82825260208201905092915050565b7f416d6f756e74206d757374206265203e203000000000000000000000000000005f82015250565b5f61107f60128361103b565b915061108a8261104b565b602082019050919050565b5f6020820190508181035f8301526110ac81611073565b9050919050565b7f496e76616c696420617574686f722061646472657373000000000000000000005f82015250565b5f6110e760168361103b565b91506110f2826110b3565b602082019050919050565b5f6020820190508181035f830152611114816110db565b9050919050565b61112481610fb8565b82525050565b5f60208201905061113d5f83018461111b565b92915050565b7f496e76616c69642063726561746f7220616464726573730000000000000000005f82015250565b5f61117760178361103b565b915061118282611143565b602082019050919050565b5f6020820190508181035f8301526111a48161116b565b9050919050565b6111b481610f3f565b82525050565b5f6060820190506111cd5f8301866111ab565b6111da60208301856111ab565b6111e7604083018461111b565b949350505050565b5f6020820190506112025f8301846111ab565b92915050565b5f60408201905061121b5f8301856111ab565b6112286020830184610f17565b939250505056fea26469706673582212208d91057fc5f5c5ce2144ce9f9710a852da2f8e9192f1795d81bf00780873015164736f6c634300081e0033",
			"opcodes": "PUSH1 0xA0 PUSH1 0x40 MSTORE CALLVALUE DUP1 ISZERO PUSH2 0xF JUMPI PUSH0 PUSH0 REVERT JUMPDEST POP PUSH1 0x40 MLOAD PUSH2 0x153F CODESIZE SUB DUP1 PUSH2 0x153F DUP4 CODECOPY DUP2 DUP2 ADD PUSH1 0x40 MSTORE DUP2 ADD SWAP1 PUSH2 0x31 SWAP2 SWAP1 PUSH2 0x276 JUMP JUMPDEST PUSH1 0x1 PUSH0 DUP2 SWAP1 SSTORE POP DUP2 PUSH20 0xFFFFFFFFFFFFFFFFFFFFFFFFFFFFFFFFFFFFFFFF AND PUSH1 0x80 DUP2 PUSH20 0xFFFFFFFFFFFFFFFFFFFFFFFFFFFFFFFFFFFFFFFF AND DUP2 MSTORE POP POP PUSH2 0x7E PUSH0 PUSH0 SHL DUP3 PUSH2 0xB7 PUSH1 0x20 SHL PUSH1 0x20 SHR JUMP JUMPDEST POP PUSH2 0xAF PUSH32 0x65D7A28E3265B37A6474929F336521B332C1681B933F6CB9F3376673440D862A DUP3 PUSH2 0xB7 PUSH1 0x20 SHL PUSH1 0x20 SHR JUMP JUMPDEST POP POP POP PUSH2 0x2B4 JUMP JUMPDEST PUSH0 PUSH2 0xC8 DUP4 DUP4 PUSH2 0x1AD PUSH1 0x20 SHL PUSH1 0x20 SHR JUMP JUMPDEST PUSH2 0x1A3 JUMPI PUSH1 0x1 PUSH1 0x2 PUSH0 DUP6 DUP2 MSTORE PUSH1 0x20 ADD SWAP1 DUP2 MSTORE PUSH1 0x20 ADD PUSH0 KECCAK256 PUSH0 ADD PUSH0 DUP5 PUSH20 0xFFFFFFFFFFFFFFFFFFFFFFFFFFFFFFFFFFFFFFFF AND PUSH20 0xFFFFFFFFFFFFFFFFFFFFFFFFFFFFFFFFFFFFFFFF AND DUP2 MSTORE PUSH1 0x20 ADD SWAP1 DUP2 MSTORE PUSH1 0x20 ADD PUSH0 KECCAK256 PUSH0 PUSH2 0x100 EXP DUP2 SLOAD DUP2 PUSH1 0xFF MUL NOT AND SWAP1 DUP4 ISZERO ISZERO MUL OR SWAP1 SSTORE POP PUSH2 0x140 PUSH2 0x211 PUSH1 0x20 SHL PUSH1 0x20 SHR JUMP JUMPDEST PUSH20 0xFFFFFFFFFFFFFFFFFFFFFFFFFFFFFFFFFFFFFFFF AND DUP3 PUSH20 0xFFFFFFFFFFFFFFFFFFFFFFFFFFFFFFFFFFFFFFFF AND DUP5 PUSH32 0x2F8788117E7EFF1D82E926EC794901D17C78024A50270940304540A733656F0D PUSH1 0x40 MLOAD PUSH1 0x40 MLOAD DUP1 SWAP2 SUB SWAP1 LOG4 PUSH1 0x1 SWAP1 POP PUSH2 0x1A7 JUMP JUMPDEST PUSH0 SWAP1 POP JUMPDEST SWAP3 SWAP2 POP POP JUMP JUMPDEST PUSH0 PUSH1 0x2 PUSH0 DUP5 DUP2 MSTORE PUSH1 0x20 ADD SWAP1 DUP2 MSTORE PUSH1 0x20 ADD PUSH0 KECCAK256 PUSH0 ADD PUSH0 DUP4 PUSH20 0xFFFFFFFFFFFFFFFFFFFFFFFFFFFFFFFFFFFFFFFF AND PUSH20 0xFFFFFFFFFFFFFFFFFFFFFFFFFFFFFFFFFFFFFFFF AND DUP2 MSTORE PUSH1 0x20 ADD SWAP1 DUP2 MSTORE PUSH1 0x20 ADD PUSH0 KECCAK256 PUSH0 SWAP1 SLOAD SWAP1 PUSH2 0x100 EXP SWAP1 DIV PUSH1 0xFF AND SWAP1 POP SWAP3 SWAP2 POP POP JUMP JUMPDEST PUSH0 CALLER SWAP1 POP SWAP1 JUMP JUMPDEST PUSH0 PUSH0 REVERT JUMPDEST PUSH0 PUSH20 0xFFFFFFFFFFFFFFFFFFFFFFFFFFFFFFFFFFFFFFFF DUP3 AND SWAP1 POP SWAP2 SWAP1 POP JUMP JUMPDEST PUSH0 PUSH2 0x245 DUP3 PUSH2 0x21C JUMP JUMPDEST SWAP1 POP SWAP2 SWAP1 POP JUMP JUMPDEST PUSH2 0x255 DUP2 PUSH2 0x23B JUMP JUMPDEST DUP2 EQ PUSH2 0x25F JUMPI PUSH0 PUSH0 REVERT JUMPDEST POP JUMP JUMPDEST PUSH0 DUP2 MLOAD SWAP1 POP PUSH2 0x270 DUP2 PUSH2 0x24C JUMP JUMPDEST SWAP3 SWAP2 POP POP JUMP JUMPDEST PUSH0 PUSH0 PUSH1 0x40 DUP4 DUP6 SUB SLT ISZERO PUSH2 0x28C JUMPI PUSH2 0x28B PUSH2 0x218 JUMP JUMPDEST JUMPDEST PUSH0 PUSH2 0x299 DUP6 DUP3 DUP7 ADD PUSH2 0x262 JUMP JUMPDEST SWAP3 POP POP PUSH1 0x20 PUSH2 0x2AA DUP6 DUP3 DUP7 ADD PUSH2 0x262 JUMP JUMPDEST SWAP2 POP POP SWAP3 POP SWAP3 SWAP1 POP JUMP JUMPDEST PUSH1 0x80 MLOAD PUSH2 0x1265 PUSH2 0x2DA PUSH0 CODECOPY PUSH0 DUP2 DUP2 PUSH2 0x295 ADD MSTORE DUP2 DUP2 PUSH2 0x437 ADD MSTORE PUSH2 0x67C ADD MSTORE PUSH2 0x1265 PUSH0 RETURN INVALID PUSH1 0x80 PUSH1 0x40 MSTORE CALLVALUE DUP1 ISZERO PUSH2 0xF JUMPI PUSH0 PUSH0 REVERT JUMPDEST POP PUSH1 0x4 CALLDATASIZE LT PUSH2 0xE7 JUMPI PUSH0 CALLDATALOAD PUSH1 0xE0 SHR DUP1 PUSH4 0x5C975ABB GT PUSH2 0x8A JUMPI DUP1 PUSH4 0x91D14854 GT PUSH2 0x64 JUMPI DUP1 PUSH4 0x91D14854 EQ PUSH2 0x20B JUMPI DUP1 PUSH4 0xA217FDDF EQ PUSH2 0x23B JUMPI DUP1 PUSH4 0xD547741F EQ PUSH2 0x259 JUMPI DUP1 PUSH4 0xE63AB1E9 EQ PUSH2 0x275 JUMPI PUSH2 0xE7 JUMP JUMPDEST DUP1 PUSH4 0x5C975ABB EQ PUSH2 0x1C7 JUMPI DUP1 PUSH4 0x7B924592 EQ PUSH2 0x1E5 JUMPI DUP1 PUSH4 0x8456CB59 EQ PUSH2 0x201 JUMPI PUSH2 0xE7 JUMP JUMPDEST DUP1 PUSH4 0x2F2FF15D GT PUSH2 0xC6 JUMPI DUP1 PUSH4 0x2F2FF15D EQ PUSH2 0x169 JUMPI DUP1 PUSH4 0x32042316 EQ PUSH2 0x185 JUMPI DUP1 PUSH4 0x36568ABE EQ PUSH2 0x1A1 JUMPI DUP1 PUSH4 0x3F4BA83A EQ PUSH2 0x1BD JUMPI PUSH2 0xE7 JUMP JUMPDEST DUP1 PUSH3 0xDC2253 EQ PUSH2 0xEB JUMPI DUP1 PUSH4 0x1FFC9A7 EQ PUSH2 0x109 JUMPI DUP1 PUSH4 0x248A9CA3 EQ PUSH2 0x139 JUMPI JUMPDEST PUSH0 PUSH0 REVERT JUMPDEST PUSH2 0xF3 PUSH2 0x293 JUMP JUMPDEST PUSH1 0x40 MLOAD PUSH2 0x100 SWAP2 SWAP1 PUSH2 0xDE9 JUMP JUMPDEST PUSH1 0x40 MLOAD DUP1 SWAP2 SUB SWAP1 RETURN JUMPDEST PUSH2 0x123 PUSH1 0x4 DUP1 CALLDATASIZE SUB DUP2 ADD SWAP1 PUSH2 0x11E SWAP2 SWAP1 PUSH2 0xE5B JUMP JUMPDEST PUSH2 0x2B7 JUMP JUMPDEST PUSH1 0x40 MLOAD PUSH2 0x130 SWAP2 SWAP1 PUSH2 0xEA0 JUMP JUMPDEST PUSH1 0x40 MLOAD DUP1 SWAP2 SUB SWAP1 RETURN JUMPDEST PUSH2 0x153 PUSH1 0x4 DUP1 CALLDATASIZE SUB DUP2 ADD SWAP1 PUSH2 0x14E SWAP2 SWAP1 PUSH2 0xEEC JUMP JUMPDEST PUSH2 0x330 JUMP JUMPDEST PUSH1 0x40 MLOAD PUSH2 0x160 SWAP2 SWAP1 PUSH2 0xF26 JUMP JUMPDEST PUSH1 0x40 MLOAD DUP1 SWAP2 SUB SWAP1 RETURN JUMPDEST PUSH2 0x183 PUSH1 0x4 DUP1 CALLDATASIZE SUB DUP2 ADD SWAP1 PUSH2 0x17E SWAP2 SWAP1 PUSH2 0xF7A JUMP JUMPDEST PUSH2 0x34D JUMP JUMPDEST STOP JUMPDEST PUSH2 0x19F PUSH1 0x4 DUP1 CALLDATASIZE SUB DUP2 ADD SWAP1 PUSH2 0x19A SWAP2 SWAP1 PUSH2 0xFEB JUMP JUMPDEST PUSH2 0x36F JUMP JUMPDEST STOP JUMPDEST PUSH2 0x1BB PUSH1 0x4 DUP1 CALLDATASIZE SUB DUP2 ADD SWAP1 PUSH2 0x1B6 SWAP2 SWAP1 PUSH2 0xF7A JUMP JUMPDEST PUSH2 0x4EF JUMP JUMPDEST STOP JUMPDEST PUSH2 0x1C5 PUSH2 0x56A JUMP JUMPDEST STOP JUMPDEST PUSH2 0x1CF PUSH2 0x59F JUMP JUMPDEST PUSH1 0x40 MLOAD PUSH2 0x1DC SWAP2 SWAP1 PUSH2 0xEA0 JUMP JUMPDEST PUSH1 0x40 MLOAD DUP1 SWAP2 SUB SWAP1 RETURN JUMPDEST PUSH2 0x1FF PUSH1 0x4 DUP1 CALLDATASIZE SUB DUP2 ADD SWAP1 PUSH2 0x1FA SWAP2 SWAP1 PUSH2 0xFEB JUMP JUMPDEST PUSH2 0x5B4 JUMP JUMPDEST STOP JUMPDEST PUSH2 0x209 PUSH2 0x734 JUMP JUMPDEST STOP JUMPDEST PUSH2 0x225 PUSH1 0x4 DUP1 CALLDATASIZE SUB DUP2 ADD SWAP1 PUSH2 0x220 SWAP2 SWAP1 PUSH2 0xF7A JUMP JUMPDEST PUSH2 0x769 JUMP JUMPDEST PUSH1 0x40 MLOAD PUSH2 0x232 SWAP2 SWAP1 PUSH2 0xEA0 JUMP JUMPDEST PUSH1 0x40 MLOAD DUP1 SWAP2 SUB SWAP1 RETURN JUMPDEST PUSH2 0x243 PUSH2 0x7CD JUMP JUMPDEST PUSH1 0x40 MLOAD PUSH2 0x250 SWAP2 SWAP1 PUSH2 0xF26 JUMP JUMPDEST PUSH1 0x40 MLOAD DUP1 SWAP2 SUB SWAP1 RETURN JUMPDEST PUSH2 0x273 PUSH1 0x4 DUP1 CALLDATASIZE SUB DUP2 ADD SWAP1 PUSH2 0x26E SWAP2 SWAP1 PUSH2 0xF7A JUMP JUMPDEST PUSH2 0x7D3 JUMP JUMPDEST STOP JUMPDEST PUSH2 0x27D PUSH2 0x7F5 JUMP JUMPDEST PUSH1 0x40 MLOAD PUSH2 0x28A SWAP2 SWAP1 PUSH2 0xF26 JUMP JUMPDEST PUSH1 0x40 MLOAD DUP1 SWAP2 SUB SWAP1 RETURN JUMPDEST PUSH32 0x0 DUP2 JUMP JUMPDEST PUSH0 PUSH32 0x7965DB0B00000000000000000000000000000000000000000000000000000000 PUSH28 0xFFFFFFFFFFFFFFFFFFFFFFFFFFFFFFFFFFFFFFFFFFFFFFFFFFFFFFFF NOT AND DUP3 PUSH28 0xFFFFFFFFFFFFFFFFFFFFFFFFFFFFFFFFFFFFFFFFFFFFFFFFFFFFFFFF NOT AND EQ DUP1 PUSH2 0x329 JUMPI POP PUSH2 0x328 DUP3 PUSH2 0x819 JUMP JUMPDEST JUMPDEST SWAP1 POP SWAP2 SWAP1 POP JUMP JUMPDEST PUSH0 PUSH1 0x2 PUSH0 DUP4 DUP2 MSTORE PUSH1 0x20 ADD SWAP1 DUP2 MSTORE PUSH1 0x20 ADD PUSH0 KECCAK256 PUSH1 0x1 ADD SLOAD SWAP1 POP SWAP2 SWAP1 POP JUMP JUMPDEST PUSH2 0x356 DUP3 PUSH2 0x330 JUMP JUMPDEST PUSH2 0x35F DUP2 PUSH2 0x882 JUMP JUMPDEST PUSH2 0x369 DUP4 DUP4 PUSH2 0x896 JUMP JUMPDEST POP POP POP POP JUMP JUMPDEST PUSH2 0x377 PUSH2 0x980 JUMP JUMPDEST PUSH2 0x37F PUSH2 0x9C4 JUMP JUMPDEST PUSH0 DUP3 GT PUSH2 0x3C1 JUMPI PUSH1 0x40 MLOAD PUSH32 0x8C379A000000000000000000000000000000000000000000000000000000000 DUP2 MSTORE PUSH1 0x4 ADD PUSH2 0x3B8 SWAP1 PUSH2 0x1095 JUMP JUMPDEST PUSH1 0x40 MLOAD DUP1 SWAP2 SUB SWAP1 REVERT JUMPDEST PUSH0 PUSH20 0xFFFFFFFFFFFFFFFFFFFFFFFFFFFFFFFFFFFFFFFF AND DUP4 PUSH20 0xFFFFFFFFFFFFFFFFFFFFFFFFFFFFFFFFFFFFFFFF AND SUB PUSH2 0x42F JUMPI PUSH1 0x40 MLOAD PUSH32 0x8C379A000000000000000000000000000000000000000000000000000000000 DUP2 MSTORE PUSH1 0x4 ADD PUSH2 0x426 SWAP1 PUSH2 0x10FD JUMP JUMPDEST PUSH1 0x40 MLOAD DUP1 SWAP2 SUB SWAP1 REVERT JUMPDEST PUSH2 0x47C CALLER DUP5 DUP5 PUSH32 0x0 PUSH20 0xFFFFFFFFFFFFFFFFFFFFFFFFFFFFFFFFFFFFFFFF AND PUSH2 0xA05 SWAP1 SWAP4 SWAP3 SWAP2 SWAP1 PUSH4 0xFFFFFFFF AND JUMP JUMPDEST DUP1 DUP4 PUSH20 0xFFFFFFFFFFFFFFFFFFFFFFFFFFFFFFFFFFFFFFFF AND CALLER PUSH20 0xFFFFFFFFFFFFFFFFFFFFFFFFFFFFFFFFFFFFFFFF AND PUSH32 0x2666090529A9DF0D78D1E2D682A10B4814E66560BAB350CD0E611DAF7625C0E8 DUP6 PUSH1 0x40 MLOAD PUSH2 0x4DA SWAP2 SWAP1 PUSH2 0x112A JUMP JUMPDEST PUSH1 0x40 MLOAD DUP1 SWAP2 SUB SWAP1 LOG4 PUSH2 0x4EA PUSH2 0xA87 JUMP JUMPDEST POP POP POP JUMP JUMPDEST PUSH2 0x4F7 PUSH2 0xA90 JUMP JUMPDEST PUSH20 0xFFFFFFFFFFFFFFFFFFFFFFFFFFFFFFFFFFFFFFFF AND DUP2 PUSH20 0xFFFFFFFFFFFFFFFFFFFFFFFFFFFFFFFFFFFFFFFF AND EQ PUSH2 0x55B JUMPI PUSH1 0x40 MLOAD PUSH32 0x6697B23200000000000000000000000000000000000000000000000000000000 DUP2 MSTORE PUSH1 0x4 ADD PUSH1 0x40 MLOAD DUP1 SWAP2 SUB SWAP1 REVERT JUMPDEST PUSH2 0x565 DUP3 DUP3 PUSH2 0xA97 JUMP JUMPDEST POP POP POP JUMP JUMPDEST PUSH32 0x65D7A28E3265B37A6474929F336521B332C1681B933F6CB9F3376673440D862A PUSH2 0x594 DUP2 PUSH2 0x882 JUMP JUMPDEST PUSH2 0x59C PUSH2 0xB81 JUMP JUMPDEST POP JUMP JUMPDEST PUSH0 PUSH1 0x1 PUSH0 SWAP1 SLOAD SWAP1 PUSH2 0x100 EXP SWAP1 DIV PUSH1 0xFF AND SWAP1 POP SWAP1 JUMP JUMPDEST PUSH2 0x5BC PUSH2 0x980 JUMP JUMPDEST PUSH2 0x5C4 PUSH2 0x9C4 JUMP JUMPDEST PUSH0 DUP3 GT PUSH2 0x606 JUMPI PUSH1 0x40 MLOAD PUSH32 0x8C379A000000000000000000000000000000000000000000000000000000000 DUP2 MSTORE PUSH1 0x4 ADD PUSH2 0x5FD SWAP1 PUSH2 0x1095 JUMP JUMPDEST PUSH1 0x40 MLOAD DUP1 SWAP2 SUB SWAP1 REVERT JUMPDEST PUSH0 PUSH20 0xFFFFFFFFFFFFFFFFFFFFFFFFFFFFFFFFFFFFFFFF AND DUP4 PUSH20 0xFFFFFFFFFFFFFFFFFFFFFFFFFFFFFFFFFFFFFFFF AND SUB PUSH2 0x674 JUMPI PUSH1 0x40 MLOAD PUSH32 0x8C379A000000000000000000000000000000000000000000000000000000000 DUP2 MSTORE PUSH1 0x4 ADD PUSH2 0x66B SWAP1 PUSH2 0x118D JUMP JUMPDEST PUSH1 0x40 MLOAD DUP1 SWAP2 SUB SWAP1 REVERT JUMPDEST PUSH2 0x6C1 CALLER DUP5 DUP5 PUSH32 0x0 PUSH20 0xFFFFFFFFFFFFFFFFFFFFFFFFFFFFFFFFFFFFFFFF AND PUSH2 0xA05 SWAP1 SWAP4 SWAP3 SWAP2 SWAP1 PUSH4 0xFFFFFFFF AND JUMP JUMPDEST DUP1 DUP4 PUSH20 0xFFFFFFFFFFFFFFFFFFFFFFFFFFFFFFFFFFFFFFFF AND CALLER PUSH20 0xFFFFFFFFFFFFFFFFFFFFFFFFFFFFFFFFFFFFFFFF AND PUSH32 0x46CAA0EBED33F94F22A64C88EB5E4283C4C91EB15DEA2EDA91009729F309E9EC DUP6 PUSH1 0x40 MLOAD PUSH2 0x71F SWAP2 SWAP1 PUSH2 0x112A JUMP JUMPDEST PUSH1 0x40 MLOAD DUP1 SWAP2 SUB SWAP1 LOG4 PUSH2 0x72F PUSH2 0xA87 JUMP JUMPDEST POP POP POP JUMP JUMPDEST PUSH32 0x65D7A28E3265B37A6474929F336521B332C1681B933F6CB9F3376673440D862A PUSH2 0x75E DUP2 PUSH2 0x882 JUMP JUMPDEST PUSH2 0x766 PUSH2 0xBE2 JUMP JUMPDEST POP JUMP JUMPDEST PUSH0 PUSH1 0x2 PUSH0 DUP5 DUP2 MSTORE PUSH1 0x20 ADD SWAP1 DUP2 MSTORE PUSH1 0x20 ADD PUSH0 KECCAK256 PUSH0 ADD PUSH0 DUP4 PUSH20 0xFFFFFFFFFFFFFFFFFFFFFFFFFFFFFFFFFFFFFFFF AND PUSH20 0xFFFFFFFFFFFFFFFFFFFFFFFFFFFFFFFFFFFFFFFF AND DUP2 MSTORE PUSH1 0x20 ADD SWAP1 DUP2 MSTORE PUSH1 0x20 ADD PUSH0 KECCAK256 PUSH0 SWAP1 SLOAD SWAP1 PUSH2 0x100 EXP SWAP1 DIV PUSH1 0xFF AND SWAP1 POP SWAP3 SWAP2 POP POP JUMP JUMPDEST PUSH0 PUSH0 SHL DUP2 JUMP JUMPDEST PUSH2 0x7DC DUP3 PUSH2 0x330 JUMP JUMPDEST PUSH2 0x7E5 DUP2 PUSH2 0x882 JUMP JUMPDEST PUSH2 0x7EF DUP4 DUP4 PUSH2 0xA97 JUMP JUMPDEST POP POP POP POP JUMP JUMPDEST PUSH32 0x65D7A28E3265B37A6474929F336521B332C1681B933F6CB9F3376673440D862A DUP2 JUMP JUMPDEST PUSH0 PUSH32 0x1FFC9A700000000000000000000000000000000000000000000000000000000 PUSH28 0xFFFFFFFFFFFFFFFFFFFFFFFFFFFFFFFFFFFFFFFFFFFFFFFFFFFFFFFF NOT AND DUP3 PUSH28 0xFFFFFFFFFFFFFFFFFFFFFFFFFFFFFFFFFFFFFFFFFFFFFFFFFFFFFFFF NOT AND EQ SWAP1 POP SWAP2 SWAP1 POP JUMP JUMPDEST PUSH2 0x893 DUP2 PUSH2 0x88E PUSH2 0xA90 JUMP JUMPDEST PUSH2 0xC43 JUMP JUMPDEST POP JUMP JUMPDEST PUSH0 PUSH2 0x8A1 DUP4 DUP4 PUSH2 0x769 JUMP JUMPDEST PUSH2 0x976 JUMPI PUSH1 0x1 PUSH1 0x2 PUSH0 DUP6 DUP2 MSTORE PUSH1 0x20 ADD SWAP1 DUP2 MSTORE PUSH1 0x20 ADD PUSH0 KECCAK256 PUSH0 ADD PUSH0 DUP5 PUSH20 0xFFFFFFFFFFFFFFFFFFFFFFFFFFFFFFFFFFFFFFFF AND PUSH20 0xFFFFFFFFFFFFFFFFFFFFFFFFFFFFFFFFFFFFFFFF AND DUP2 MSTORE PUSH1 0x20 ADD SWAP1 DUP2 MSTORE PUSH1 0x20 ADD PUSH0 KECCAK256 PUSH0 PUSH2 0x100 EXP DUP2 SLOAD DUP2 PUSH1 0xFF MUL NOT AND SWAP1 DUP4 ISZERO ISZERO MUL OR SWAP1 SSTORE POP PUSH2 0x913 PUSH2 0xA90 JUMP JUMPDEST PUSH20 0xFFFFFFFFFFFFFFFFFFFFFFFFFFFFFFFFFFFFFFFF AND DUP3 PUSH20 0xFFFFFFFFFFFFFFFFFFFFFFFFFFFFFFFFFFFFFFFF AND DUP5 PUSH32 0x2F8788117E7EFF1D82E926EC794901D17C78024A50270940304540A733656F0D PUSH1 0x40 MLOAD PUSH1 0x40 MLOAD DUP1 SWAP2 SUB SWAP1 LOG4 PUSH1 0x1 SWAP1 POP PUSH2 0x97A JUMP JUMPDEST PUSH0 SWAP1 POP JUMPDEST SWAP3 SWAP2 POP POP JUMP JUMPDEST PUSH1 0x2 PUSH0 SLOAD SUB PUSH2 0x9BB JUMPI PUSH1 0x40 MLOAD PUSH32 0x3EE5AEB500000000000000000000000000000000000000000000000000000000 DUP2 MSTORE PUSH1 0x4 ADD PUSH1 0x40 MLOAD DUP1 SWAP2 SUB SWAP1 REVERT JUMPDEST PUSH1 0x2 PUSH0 DUP2 SWAP1 SSTORE POP JUMP JUMPDEST PUSH2 0x9CC PUSH2 0x59F JUMP JUMPDEST ISZERO PUSH2 0xA03 JUMPI PUSH1 0x40 MLOAD PUSH32 0xD93C066500000000000000000000000000000000000000000000000000000000 DUP2 MSTORE PUSH1 0x4 ADD PUSH1 0x40 MLOAD DUP1 SWAP2 SUB SWAP1 REVERT JUMPDEST JUMP JUMPDEST PUSH2 0xA81 DUP5 DUP6 PUSH20 0xFFFFFFFFFFFFFFFFFFFFFFFFFFFFFFFFFFFFFFFF AND PUSH4 0x23B872DD DUP7 DUP7 DUP7 PUSH1 0x40 MLOAD PUSH1 0x24 ADD PUSH2 0xA3A SWAP4 SWAP3 SWAP2 SWAP1 PUSH2 0x11BA JUMP JUMPDEST PUSH1 0x40 MLOAD PUSH1 0x20 DUP2 DUP4 SUB SUB DUP2 MSTORE SWAP1 PUSH1 0x40 MSTORE SWAP2 POP PUSH1 0xE0 SHL PUSH1 0x20 DUP3 ADD DUP1 MLOAD PUSH28 0xFFFFFFFFFFFFFFFFFFFFFFFFFFFFFFFFFFFFFFFFFFFFFFFFFFFFFFFF DUP4 DUP2 DUP4 AND OR DUP4 MSTORE POP POP POP POP PUSH2 0xC94 JUMP JUMPDEST POP POP POP POP JUMP JUMPDEST PUSH1 0x1 PUSH0 DUP2 SWAP1 SSTORE POP JUMP JUMPDEST PUSH0 CALLER SWAP1 POP SWAP1 JUMP JUMPDEST PUSH0 PUSH2 0xAA2 DUP4 DUP4 PUSH2 0x769 JUMP JUMPDEST ISZERO PUSH2 0xB77 JUMPI PUSH0 PUSH1 0x2 PUSH0 DUP6 DUP2 MSTORE PUSH1 0x20 ADD SWAP1 DUP2 MSTORE PUSH1 0x20 ADD PUSH0 KECCAK256 PUSH0 ADD PUSH0 DUP5 PUSH20 0xFFFFFFFFFFFFFFFFFFFFFFFFFFFFFFFFFFFFFFFF AND PUSH20 0xFFFFFFFFFFFFFFFFFFFFFFFFFFFFFFFFFFFFFFFF AND DUP2 MSTORE PUSH1 0x20 ADD SWAP1 DUP2 MSTORE PUSH1 0x20 ADD PUSH0 KECCAK256 PUSH0 PUSH2 0x100 EXP DUP2 SLOAD DUP2 PUSH1 0xFF MUL NOT AND SWAP1 DUP4 ISZERO ISZERO MUL OR SWAP1 SSTORE POP PUSH2 0xB14 PUSH2 0xA90 JUMP JUMPDEST PUSH20 0xFFFFFFFFFFFFFFFFFFFFFFFFFFFFFFFFFFFFFFFF AND DUP3 PUSH20 0xFFFFFFFFFFFFFFFFFFFFFFFFFFFFFFFFFFFFFFFF AND DUP5 PUSH32 0xF6391F5C32D9C69D2A47EA670B442974B53935D1EDC7FD64EB21E047A839171B PUSH1 0x40 MLOAD PUSH1 0x40 MLOAD DUP1 SWAP2 SUB SWAP1 LOG4 PUSH1 0x1 SWAP1 POP PUSH2 0xB7B JUMP JUMPDEST PUSH0 SWAP1 POP JUMPDEST SWAP3 SWAP2 POP POP JUMP JUMPDEST PUSH2 0xB89 PUSH2 0xD2F JUMP JUMPDEST PUSH0 PUSH1 0x1 PUSH0 PUSH2 0x100 EXP DUP2 SLOAD DUP2 PUSH1 0xFF MUL NOT AND SWAP1 DUP4 ISZERO ISZERO MUL OR SWAP1 SSTORE POP PUSH32 0x5DB9EE0A495BF2E6FF9C91A7834C1BA4FDD244A5E8AA4E537BD38AEAE4B073AA PUSH2 0xBCB PUSH2 0xA90 JUMP JUMPDEST PUSH1 0x40 MLOAD PUSH2 0xBD8 SWAP2 SWAP1 PUSH2 0x11EF JUMP JUMPDEST PUSH1 0x40 MLOAD DUP1 SWAP2 SUB SWAP1 LOG1 JUMP JUMPDEST PUSH2 0xBEA PUSH2 0x9C4 JUMP JUMPDEST PUSH1 0x1 DUP1 PUSH0 PUSH2 0x100 EXP DUP2 SLOAD DUP2 PUSH1 0xFF MUL NOT AND SWAP1 DUP4 ISZERO ISZERO MUL OR SWAP1 SSTORE POP PUSH32 0x62E78CEA01BEE320CD4E420270B5EA74000D11B0C9F74754EBDBFC544B05A258 PUSH2 0xC2C PUSH2 0xA90 JUMP JUMPDEST PUSH1 0x40 MLOAD PUSH2 0xC39 SWAP2 SWAP1 PUSH2 0x11EF JUMP JUMPDEST PUSH1 0x40 MLOAD DUP1 SWAP2 SUB SWAP1 LOG1 JUMP JUMPDEST PUSH2 0xC4D DUP3 DUP3 PUSH2 0x769 JUMP JUMPDEST PUSH2 0xC90 JUMPI DUP1 DUP3 PUSH1 0x40 MLOAD PUSH32 0xE2517D3F00000000000000000000000000000000000000000000000000000000 DUP2 MSTORE PUSH1 0x4 ADD PUSH2 0xC87 SWAP3 SWAP2 SWAP1 PUSH2 0x1208 JUMP JUMPDEST PUSH1 0x40 MLOAD DUP1 SWAP2 SUB SWAP1 REVERT JUMPDEST POP POP JUMP JUMPDEST PUSH0 PUSH0 PUSH1 0x20 PUSH0 DUP5 MLOAD PUSH1 0x20 DUP7 ADD PUSH0 DUP9 GAS CALL DUP1 PUSH2 0xCB3 JUMPI PUSH1 0x40 MLOAD RETURNDATASIZE PUSH0 DUP3 RETURNDATACOPY RETURNDATASIZE DUP2 REVERT JUMPDEST RETURNDATASIZE SWAP3 POP PUSH0 MLOAD SWAP2 POP POP PUSH0 DUP3 EQ PUSH2 0xCCC JUMPI PUSH1 0x1 DUP2 EQ ISZERO PUSH2 0xCE7 JUMP JUMPDEST PUSH0 DUP5 PUSH20 0xFFFFFFFFFFFFFFFFFFFFFFFFFFFFFFFFFFFFFFFF AND EXTCODESIZE EQ JUMPDEST ISZERO PUSH2 0xD29 JUMPI DUP4 PUSH1 0x40 MLOAD PUSH32 0x5274AFE700000000000000000000000000000000000000000000000000000000 DUP2 MSTORE PUSH1 0x4 ADD PUSH2 0xD20 SWAP2 SWAP1 PUSH2 0x11EF JUMP JUMPDEST PUSH1 0x40 MLOAD DUP1 SWAP2 SUB SWAP1 REVERT JUMPDEST POP POP POP POP JUMP JUMPDEST PUSH2 0xD37 PUSH2 0x59F JUMP JUMPDEST PUSH2 0xD6D JUMPI PUSH1 0x40 MLOAD PUSH32 0x8DFC202B00000000000000000000000000000000000000000000000000000000 DUP2 MSTORE PUSH1 0x4 ADD PUSH1 0x40 MLOAD DUP1 SWAP2 SUB SWAP1 REVERT JUMPDEST JUMP JUMPDEST PUSH0 PUSH20 0xFFFFFFFFFFFFFFFFFFFFFFFFFFFFFFFFFFFFFFFF DUP3 AND SWAP1 POP SWAP2 SWAP1 POP JUMP JUMPDEST PUSH0 DUP2 SWAP1 POP SWAP2 SWAP1 POP JUMP JUMPDEST PUSH0 PUSH2 0xDB1 PUSH2 0xDAC PUSH2 0xDA7 DUP5 PUSH2 0xD6F JUMP JUMPDEST PUSH2 0xD8E JUMP JUMPDEST PUSH2 0xD6F JUMP JUMPDEST SWAP1 POP SWAP2 SWAP1 POP JUMP JUMPDEST PUSH0 PUSH2 0xDC2 DUP3 PUSH2 0xD97 JUMP JUMPDEST SWAP1 POP SWAP2 SWAP1 POP JUMP JUMPDEST PUSH0 PUSH2 0xDD3 DUP3 PUSH2 0xDB8 JUMP JUMPDEST SWAP1 POP SWAP2 SWAP1 POP JUMP JUMPDEST PUSH2 0xDE3 DUP2 PUSH2 0xDC9 JUMP JUMPDEST DUP3 MSTORE POP POP JUMP JUMPDEST PUSH0 PUSH1 0x20 DUP3 ADD SWAP1 POP PUSH2 0xDFC PUSH0 DUP4 ADD DUP5 PUSH2 0xDDA JUMP JUMPDEST SWAP3 SWAP2 POP POP JUMP JUMPDEST PUSH0 PUSH0 REVERT JUMPDEST PUSH0 PUSH32 0xFFFFFFFF00000000000000000000000000000000000000000000000000000000 DUP3 AND SWAP1 POP SWAP2 SWAP1 POP JUMP JUMPDEST PUSH2 0xE3A DUP2 PUSH2 0xE06 JUMP JUMPDEST DUP2 EQ PUSH2 0xE44 JUMPI PUSH0 PUSH0 REVERT JUMPDEST POP JUMP JUMPDEST PUSH0 DUP2 CALLDATALOAD SWAP1 POP PUSH2 0xE55 DUP2 PUSH2 0xE31 JUMP JUMPDEST SWAP3 SWAP2 POP POP JUMP JUMPDEST PUSH0 PUSH1 0x20 DUP3 DUP5 SUB SLT ISZERO PUSH2 0xE70 JUMPI PUSH2 0xE6F PUSH2 0xE02 JUMP JUMPDEST JUMPDEST PUSH0 PUSH2 0xE7D DUP5 DUP3 DUP6 ADD PUSH2 0xE47 JUMP JUMPDEST SWAP2 POP POP SWAP3 SWAP2 POP POP JUMP JUMPDEST PUSH0 DUP2 ISZERO ISZERO SWAP1 POP SWAP2 SWAP1 POP JUMP JUMPDEST PUSH2 0xE9A DUP2 PUSH2 0xE86 JUMP JUMPDEST DUP3 MSTORE POP POP JUMP JUMPDEST PUSH0 PUSH1 0x20 DUP3 ADD SWAP1 POP PUSH2 0xEB3 PUSH0 DUP4 ADD DUP5 PUSH2 0xE91 JUMP JUMPDEST SWAP3 SWAP2 POP POP JUMP JUMPDEST PUSH0 DUP2 SWAP1 POP SWAP2 SWAP1 POP JUMP JUMPDEST PUSH2 0xECB DUP2 PUSH2 0xEB9 JUMP JUMPDEST DUP2 EQ PUSH2 0xED5 JUMPI PUSH0 PUSH0 REVERT JUMPDEST POP JUMP JUMPDEST PUSH0 DUP2 CALLDATALOAD SWAP1 POP PUSH2 0xEE6 DUP2 PUSH2 0xEC2 JUMP JUMPDEST SWAP3 SWAP2 POP POP JUMP JUMPDEST PUSH0 PUSH1 0x20 DUP3 DUP5 SUB SLT ISZERO PUSH2 0xF01 JUMPI PUSH2 0xF00 PUSH2 0xE02 JUMP JUMPDEST JUMPDEST PUSH0 PUSH2 0xF0E DUP5 DUP3 DUP6 ADD PUSH2 0xED8 JUMP JUMPDEST SWAP2 POP POP SWAP3 SWAP2 POP POP JUMP JUMPDEST PUSH2 0xF20 DUP2 PUSH2 0xEB9 JUMP JUMPDEST DUP3 MSTORE POP POP JUMP JUMPDEST PUSH0 PUSH1 0x20 DUP3 ADD SWAP1 POP PUSH2 0xF39 PUSH0 DUP4 ADD DUP5 PUSH2 0xF17 JUMP JUMPDEST SWAP3 SWAP2 POP POP JUMP JUMPDEST PUSH0 PUSH2 0xF49 DUP3 PUSH2 0xD6F JUMP JUMPDEST SWAP1 POP SWAP2 SWAP1 POP JUMP JUMPDEST PUSH2 0xF59 DUP2 PUSH2 0xF3F JUMP JUMPDEST DUP2 EQ PUSH2 0xF63 JUMPI PUSH0 PUSH0 REVERT JUMPDEST POP JUMP JUMPDEST PUSH0 DUP2 CALLDATALOAD SWAP1 POP PUSH2 0xF74 DUP2 PUSH2 0xF50 JUMP JUMPDEST SWAP3 SWAP2 POP POP JUMP JUMPDEST PUSH0 PUSH0 PUSH1 0x40 DUP4 DUP6 SUB SLT ISZERO PUSH2 0xF90 JUMPI PUSH2 0xF8F PUSH2 0xE02 JUMP JUMPDEST JUMPDEST PUSH0 PUSH2 0xF9D DUP6 DUP3 DUP7 ADD PUSH2 0xED8 JUMP JUMPDEST SWAP3 POP POP PUSH1 0x20 PUSH2 0xFAE DUP6 DUP3 DUP7 ADD PUSH2 0xF66 JUMP JUMPDEST SWAP2 POP POP SWAP3 POP SWAP3 SWAP1 POP JUMP JUMPDEST PUSH0 DUP2 SWAP1 POP SWAP2 SWAP1 POP JUMP JUMPDEST PUSH2 0xFCA DUP2 PUSH2 0xFB8 JUMP JUMPDEST DUP2 EQ PUSH2 0xFD4 JUMPI PUSH0 PUSH0 REVERT JUMPDEST POP JUMP JUMPDEST PUSH0 DUP2 CALLDATALOAD SWAP1 POP PUSH2 0xFE5 DUP2 PUSH2 0xFC1 JUMP JUMPDEST SWAP3 SWAP2 POP POP JUMP JUMPDEST PUSH0 PUSH0 PUSH0 PUSH1 0x60 DUP5 DUP7 SUB SLT ISZERO PUSH2 0x1002 JUMPI PUSH2 0x1001 PUSH2 0xE02 JUMP JUMPDEST JUMPDEST PUSH0 PUSH2 0x100F DUP7 DUP3 DUP8 ADD PUSH2 0xF66 JUMP JUMPDEST SWAP4 POP POP PUSH1 0x20 PUSH2 0x1020 DUP7 DUP3 DUP8 ADD PUSH2 0xFD7 JUMP JUMPDEST SWAP3 POP POP PUSH1 0x40 PUSH2 0x1031 DUP7 DUP3 DUP8 ADD PUSH2 0xFD7 JUMP JUMPDEST SWAP2 POP POP SWAP3 POP SWAP3 POP SWAP3 JUMP JUMPDEST PUSH0 DUP3 DUP3 MSTORE PUSH1 0x20 DUP3 ADD SWAP1 POP SWAP3 SWAP2 POP POP JUMP JUMPDEST PUSH32 0x416D6F756E74206D757374206265203E20300000000000000000000000000000 PUSH0 DUP3 ADD MSTORE POP JUMP JUMPDEST PUSH0 PUSH2 0x107F PUSH1 0x12 DUP4 PUSH2 0x103B JUMP JUMPDEST SWAP2 POP PUSH2 0x108A DUP3 PUSH2 0x104B JUMP JUMPDEST PUSH1 0x20 DUP3 ADD SWAP1 POP SWAP2 SWAP1 POP JUMP JUMPDEST PUSH0 PUSH1 0x20 DUP3 ADD SWAP1 POP DUP2 DUP2 SUB PUSH0 DUP4 ADD MSTORE PUSH2 0x10AC DUP2 PUSH2 0x1073 JUMP JUMPDEST SWAP1 POP SWAP2 SWAP1 POP JUMP JUMPDEST PUSH32 0x496E76616C696420617574686F72206164647265737300000000000000000000 PUSH0 DUP3 ADD MSTORE POP JUMP JUMPDEST PUSH0 PUSH2 0x10E7 PUSH1 0x16 DUP4 PUSH2 0x103B JUMP JUMPDEST SWAP2 POP PUSH2 0x10F2 DUP3 PUSH2 0x10B3 JUMP JUMPDEST PUSH1 0x20 DUP3 ADD SWAP1 POP SWAP2 SWAP1 POP JUMP JUMPDEST PUSH0 PUSH1 0x20 DUP3 ADD SWAP1 POP DUP2 DUP2 SUB PUSH0 DUP4 ADD MSTORE PUSH2 0x1114 DUP2 PUSH2 0x10DB JUMP JUMPDEST SWAP1 POP SWAP2 SWAP1 POP JUMP JUMPDEST PUSH2 0x1124 DUP2 PUSH2 0xFB8 JUMP JUMPDEST DUP3 MSTORE POP POP JUMP JUMPDEST PUSH0 PUSH1 0x20 DUP3 ADD SWAP1 POP PUSH2 0x113D PUSH0 DUP4 ADD DUP5 PUSH2 0x111B JUMP JUMPDEST SWAP3 SWAP2 POP POP JUMP JUMPDEST PUSH32 0x496E76616C69642063726561746F722061646472657373000000000000000000 PUSH0 DUP3 ADD MSTORE POP JUMP JUMPDEST PUSH0 PUSH2 0x1177 PUSH1 0x17 DUP4 PUSH2 0x103B JUMP JUMPDEST SWAP2 POP PUSH2 0x1182 DUP3 PUSH2 0x1143 JUMP JUMPDEST PUSH1 0x20 DUP3 ADD SWAP1 POP SWAP2 SWAP1 POP JUMP JUMPDEST PUSH0 PUSH1 0x20 DUP3 ADD SWAP1 POP DUP2 DUP2 SUB PUSH0 DUP4 ADD MSTORE PUSH2 0x11A4 DUP2 PUSH2 0x116B JUMP JUMPDEST SWAP1 POP SWAP2 SWAP1 POP JUMP JUMPDEST PUSH2 0x11B4 DUP2 PUSH2 0xF3F JUMP JUMPDEST DUP3 MSTORE POP POP JUMP JUMPDEST PUSH0 PUSH1 0x60 DUP3 ADD SWAP1 POP PUSH2 0x11CD PUSH0 DUP4 ADD DUP7 PUSH2 0x11AB JUMP JUMPDEST PUSH2 0x11DA PUSH1 0x20 DUP4 ADD DUP6 PUSH2 0x11AB JUMP JUMPDEST PUSH2 0x11E7 PUSH1 0x40 DUP4 ADD DUP5 PUSH2 0x111B JUMP JUMPDEST SWAP5 SWAP4 POP POP POP POP JUMP JUMPDEST PUSH0 PUSH1 0x20 DUP3 ADD SWAP1 POP PUSH2 0x1202 PUSH0 DUP4 ADD DUP5 PUSH2 0x11AB JUMP JUMPDEST SWAP3 SWAP2 POP POP JUMP JUMPDEST PUSH0 PUSH1 0x40 DUP3 ADD SWAP1 POP PUSH2 0x121B PUSH0 DUP4 ADD DUP6 PUSH2 0x11AB JUMP JUMPDEST PUSH2 0x1228 PUSH1 0x20 DUP4 ADD DUP5 PUSH2 0xF17 JUMP JUMPDEST SWAP4 SWAP3 POP POP POP JUMP INVALID LOG2 PUSH5 0x6970667358 0x22 SLT KECCAK256 DUP14 SWAP2 SDIV PUSH32 0xC5F5C5CE2144CE9F9710A852DA2F8E9192F1795D81BF00780873015164736F6C PUSH4 0x4300081E STOP CALLER "
		},
		"gasEstimates": {
			"creation": {
				"codeDepositCost": "941800",
				"executionCost": "infinite",
				"totalCost": "infinite"
			},
			"external": {
				"DEFAULT_ADMIN_ROLE()": "373",
				"PAUSER_ROLE()": "413",
				"getRoleAdmin(bytes32)": "infinite",
				"grantRole(bytes32,address)": "infinite",
				"hasRole(bytes32,address)": "3143",
				"pause()": "infinite",
				"paused()": "2496",
				"payPaywall(address,uint256,uint256)": "infinite",
				"renounceRole(bytes32,address)": "infinite",
				"revokeRole(bytes32,address)": "infinite",
				"storyToken()": "infinite",
				"supportsInterface(bytes4)": "763",
				"tipCreator(address,uint256,uint256)": "infinite",
				"unpause()": "infinite"
			}
		},
		"methodIdentifiers": {
			"DEFAULT_ADMIN_ROLE()": "a217fddf",
			"PAUSER_ROLE()": "e63ab1e9",
			"getRoleAdmin(bytes32)": "248a9ca3",
			"grantRole(bytes32,address)": "2f2ff15d",
			"hasRole(bytes32,address)": "91d14854",
			"pause()": "8456cb59",
			"paused()": "5c975abb",
			"payPaywall(address,uint256,uint256)": "32042316",
			"renounceRole(bytes32,address)": "36568abe",
			"revokeRole(bytes32,address)": "d547741f",
			"storyToken()": "00dc2253",
			"supportsInterface(bytes4)": "01ffc9a7",
			"tipCreator(address,uint256,uint256)": "7b924592",
			"unpause()": "3f4ba83a"
		}
	},
	"abi": [
		{
			"inputs": [
				{
					"internalType": "address",
					"name": "_tokenAddress",
					"type": "address"
				},
				{
					"internalType": "address",
					"name": "initialAdmin",
					"type": "address"
				}
			],
			"stateMutability": "nonpayable",
			"type": "constructor"
		},
		{
			"inputs": [],
			"name": "AccessControlBadConfirmation",
			"type": "error"
		},
		{
			"inputs": [
				{
					"internalType": "address",
					"name": "account",
					"type": "address"
				},
				{
					"internalType": "bytes32",
					"name": "neededRole",
					"type": "bytes32"
				}
			],
			"name": "AccessControlUnauthorizedAccount",
			"type": "error"
		},
		{
			"inputs": [],
			"name": "EnforcedPause",
			"type": "error"
		},
		{
			"inputs": [],
			"name": "ExpectedPause",
			"type": "error"
		},
		{
			"inputs": [],
			"name": "ReentrancyGuardReentrantCall",
			"type": "error"
		},
		{
			"inputs": [
				{
					"internalType": "address",
					"name": "token",
					"type": "address"
				}
			],
			"name": "SafeERC20FailedOperation",
			"type": "error"
		},
		{
			"anonymous": false,
			"inputs": [
				{
					"indexed": true,
					"internalType": "address",
					"name": "payer",
					"type": "address"
				},
				{
					"indexed": true,
					"internalType": "address",
					"name": "author",
					"type": "address"
				},
				{
					"indexed": false,
					"internalType": "uint256",
					"name": "amount",
					"type": "uint256"
				},
				{
					"indexed": true,
					"internalType": "uint256",
					"name": "contentId",
					"type": "uint256"
				}
			],
			"name": "ContentUnlocked",
			"type": "event"
		},
		{
			"anonymous": false,
			"inputs": [
				{
					"indexed": false,
					"internalType": "address",
					"name": "account",
					"type": "address"
				}
			],
			"name": "Paused",
			"type": "event"
		},
		{
			"anonymous": false,
			"inputs": [
				{
					"indexed": true,
					"internalType": "bytes32",
					"name": "role",
					"type": "bytes32"
				},
				{
					"indexed": true,
					"internalType": "bytes32",
					"name": "previousAdminRole",
					"type": "bytes32"
				},
				{
					"indexed": true,
					"internalType": "bytes32",
					"name": "newAdminRole",
					"type": "bytes32"
				}
			],
			"name": "RoleAdminChanged",
			"type": "event"
		},
		{
			"anonymous": false,
			"inputs": [
				{
					"indexed": true,
					"internalType": "bytes32",
					"name": "role",
					"type": "bytes32"
				},
				{
					"indexed": true,
					"internalType": "address",
					"name": "account",
					"type": "address"
				},
				{
					"indexed": true,
					"internalType": "address",
					"name": "sender",
					"type": "address"
				}
			],
			"name": "RoleGranted",
			"type": "event"
		},
		{
			"anonymous": false,
			"inputs": [
				{
					"indexed": true,
					"internalType": "bytes32",
					"name": "role",
					"type": "bytes32"
				},
				{
					"indexed": true,
					"internalType": "address",
					"name": "account",
					"type": "address"
				},
				{
					"indexed": true,
					"internalType": "address",
					"name": "sender",
					"type": "address"
				}
			],
			"name": "RoleRevoked",
			"type": "event"
		},
		{
			"anonymous": false,
			"inputs": [
				{
					"indexed": true,
					"internalType": "address",
					"name": "from",
					"type": "address"
				},
				{
					"indexed": true,
					"internalType": "address",
					"name": "to",
					"type": "address"
				},
				{
					"indexed": false,
					"internalType": "uint256",
					"name": "amount",
					"type": "uint256"
				},
				{
					"indexed": true,
					"internalType": "uint256",
					"name": "storyId",
					"type": "uint256"
				}
			],
			"name": "TipSent",
			"type": "event"
		},
		{
			"anonymous": false,
			"inputs": [
				{
					"indexed": false,
					"internalType": "address",
					"name": "account",
					"type": "address"
				}
			],
			"name": "Unpaused",
			"type": "event"
		},
		{
			"inputs": [],
			"name": "DEFAULT_ADMIN_ROLE",
			"outputs": [
				{
					"internalType": "bytes32",
					"name": "",
					"type": "bytes32"
				}
			],
			"stateMutability": "view",
			"type": "function"
		},
		{
			"inputs": [],
			"name": "PAUSER_ROLE",
			"outputs": [
				{
					"internalType": "bytes32",
					"name": "",
					"type": "bytes32"
				}
			],
			"stateMutability": "view",
			"type": "function"
		},
		{
			"inputs": [
				{
					"internalType": "bytes32",
					"name": "role",
					"type": "bytes32"
				}
			],
			"name": "getRoleAdmin",
			"outputs": [
				{
					"internalType": "bytes32",
					"name": "",
					"type": "bytes32"
				}
			],
			"stateMutability": "view",
			"type": "function"
		},
		{
			"inputs": [
				{
					"internalType": "bytes32",
					"name": "role",
					"type": "bytes32"
				},
				{
					"internalType": "address",
					"name": "account",
					"type": "address"
				}
			],
			"name": "grantRole",
			"outputs": [],
			"stateMutability": "nonpayable",
			"type": "function"
		},
		{
			"inputs": [
				{
					"internalType": "bytes32",
					"name": "role",
					"type": "bytes32"
				},
				{
					"internalType": "address",
					"name": "account",
					"type": "address"
				}
			],
			"name": "hasRole",
			"outputs": [
				{
					"internalType": "bool",
					"name": "",
					"type": "bool"
				}
			],
			"stateMutability": "view",
			"type": "function"
		},
		{
			"inputs": [],
			"name": "pause",
			"outputs": [],
			"stateMutability": "nonpayable",
			"type": "function"
		},
		{
			"inputs": [],
			"name": "paused",
			"outputs": [
				{
					"internalType": "bool",
					"name": "",
					"type": "bool"
				}
			],
			"stateMutability": "view",
			"type": "function"
		},
		{
			"inputs": [
				{
					"internalType": "address",
					"name": "author",
					"type": "address"
				},
				{
					"internalType": "uint256",
					"name": "amount",
					"type": "uint256"
				},
				{
					"internalType": "uint256",
					"name": "contentId",
					"type": "uint256"
				}
			],
			"name": "payPaywall",
			"outputs": [],
			"stateMutability": "nonpayable",
			"type": "function"
		},
		{
			"inputs": [
				{
					"internalType": "bytes32",
					"name": "role",
					"type": "bytes32"
				},
				{
					"internalType": "address",
					"name": "callerConfirmation",
					"type": "address"
				}
			],
			"name": "renounceRole",
			"outputs": [],
			"stateMutability": "nonpayable",
			"type": "function"
		},
		{
			"inputs": [
				{
					"internalType": "bytes32",
					"name": "role",
					"type": "bytes32"
				},
				{
					"internalType": "address",
					"name": "account",
					"type": "address"
				}
			],
			"name": "revokeRole",
			"outputs": [],
			"stateMutability": "nonpayable",
			"type": "function"
		},
		{
			"inputs": [],
			"name": "storyToken",
			"outputs": [
				{
					"internalType": "contract IERC20",
					"name": "",
					"type": "address"
				}
			],
			"stateMutability": "view",
			"type": "function"
		},
		{
			"inputs": [
				{
					"internalType": "bytes4",
					"name": "interfaceId",
					"type": "bytes4"
				}
			],
			"name": "supportsInterface",
			"outputs": [
				{
					"internalType": "bool",
					"name": "",
					"type": "bool"
				}
			],
			"stateMutability": "view",
			"type": "function"
		},
		{
			"inputs": [
				{
					"internalType": "address",
					"name": "creator",
					"type": "address"
				},
				{
					"internalType": "uint256",
					"name": "amount",
					"type": "uint256"
				},
				{
					"internalType": "uint256",
					"name": "storyId",
					"type": "uint256"
				}
			],
			"name": "tipCreator",
			"outputs": [],
			"stateMutability": "nonpayable",
			"type": "function"
		},
		{
			"inputs": [],
			"name": "unpause",
			"outputs": [],
			"stateMutability": "nonpayable",
			"type": "function"
		}
	]
}